:10420000028293008F828E83E0540100000070F8D8
:104210002278FFE4F6D8FD028321E4900A0DF090A5
:104220000BB9E060037F0022900B2F125134900AEB
:10423000E4125140C31250C37003024ADF900AE4F3
:10424000125134900B2F12514C128D6F900A09129B
:10425000514CE4900B33F0900A9EE0900B34F090B8
:104260000AADE0900B35F0900A99E0900B36F09093
:104270000AACE0900B37F0900A96E0FCE4124E0393
:10428000900B3812514C900AAAE0FCE4124E03E461
:10429000FBFA79C87842124CE3900B3C12514C90D7
:1042A0000B9DE0900B40F0900B9EE0900B41F09046
:1042B0000A97E0FCE4124E037B007A40791C7846B2
:1042C000124BDA900B4212514C900B9FE0900B4630
:1042D000F0900A9FE0900B47F0900AA0E0900B4806
:1042E000F0900AABE0900B49F07FA87EAA7DAA7CF3
:1042F00010900A09125140C31250C34019E4FFFE46
:104300007D807C11900A09125140D31250C350068F
:10431000900B337401F0900A091251341251A844E1
:10432000A910AAAAA844B110B8E38A44BA10C71CBD
:104330006D44C310D5555044CC10E38E3244D51093
:10434000F1C71544E710FFFFB544F010FFFFBD446F
:10435000F810FFFFE7450110FFFFEF450910FFFFD1
:10436000F845D1111C71B445E2111C71BD45F31122
:104370001C71C54604111C71CE4615111C71D64620
:1043800024111C71DE4635111C71E74646111C7163
:10439000EF4657111C71F84560112AAA974568111C
:1043A0002AAA9F45711138E37145791138E37A459E
:1043B000821138E38A458B1138E39345931138E332
:1043C0009B459C1138E3A445A51138E3AC45AE11DB
:1043D000471C4C45B711471C5445C011471C5C4550
:1043E000C811471C65468C11471C6D469411471C2B
:1043F00076466711638E00467011638E08469D11E4
:10440000638E1146A611638E1946AF11638E224644
:10441000B811638E2A46C111638E3246CA11638E6B
:104420003B46D311638E4346DC1171C6D246EC1174
:1044300071C6DA46FC1171C6E3470C1171C6EB4731
:104440001C1171C6F3472C1171C6FC473C1171C792
:1044500004474C1171C70D475C1171C715476C11AA
:1044600071C71D481E117FFD0D477C117FFFAC47B2
:104470008D117FFFB5479E117FFFBD47AE117FFFB6
:10448000C547BE117FFFCE47CE117FFFD647DE1155
:104490007FFFDE47EE117FFFE747FE117FFFEF480A
:1044A0000E117FFFF80000482CE4900BBEF002488C
:1044B0002C900BBE7401F002482C900BBE7402F0DD
:1044C00002482C900BBE7403F002482C900B4074F1
:1044D00001F002482CE4900B40F012B4D0EF54FEEF
:1044E000FF12B4CA02482C900B417401F002482C10
:1044F000E4900B41F002482C900B467401F0024806
:104500002CE4900B46F002482CE4900B34F0A3F01E
:10451000A304F0A37403F0E4FFFE7D907C41A3129A
:10452000514CE4FFFEFD7C3F900B3C12514CE4905B
:104530000B46F0900B40F0A3F0900B47F0FF7E7C11
:104540007D927C49900B4212514C900B48747FF045
:10455000E4A3F012B4D0EF54FEFF12B4CA02482C08
:10456000E4900B34F002482C900B347401F00248B4
:104570002CE4900B35F002482C900B357402F002BD
:10458000482C900B357401F002482CE4900B37F066
:1045900002482C900B377401F002482C900B3774B2
:1045A00002F002482C900B377403F002482C900B59
:1045B000367402F002482C900B367401F002482C3D
:1045C000E4900B36F002482C900B367403F002484E
:1045D0002C7F9A7E997D997C3E900B3C12514C0227
:1045E000482C7F337E337DB37C3E900B3C12514C84
:1045F00002482C7FCD7ECC7DCC7C3E900B3C125172
:104600004C02482C7F667E667DE67C3E900B3C1219
:10461000514C02482CE4FFFEFD7C3F900B3C1251B4
:104620004C02482C7FCD7ECC7D0C7C3F900B3C1205
:10463000514C02482C7F9A7E997D197C3F900B3C0F
:1046400012514C02482C7F667E667D267C3F900B83
:104650003C12514C02482C7433FFFEFD7C3F900B02
:104660003C12514C02482C900B477401F002482C2C
:10467000E4900B47F012B4D0EF54DFFF12B4CA122B
:10468000B4D0EF54F7FF12B4CA02482CE4900B499F
:10469000F002482C900B497401F002482C900B4812
:1046A0007459F002482C900B487466F002482C9024
:1046B0000B487473F002482C900B48747FF002484A
:1046C0002C900B48748BF002482C900B487498F097
:1046D00002482C900B4874A5F002482CE4FFFE7DA4
:1046E000A07C40900B3812514C02482CE4FFFE7D18
:1046F000E07C40900B3812514C02482CE4FFFE7DC8
:10470000207C41900B3812514C02482CE4FFFE7D76
:10471000507C41900B3812514C02482CE4FFFE7D36
:10472000707C41900B3812514C02482CE4FFFE7D06
:10473000907C41900B3812514C02482CE4FFFE7DD6
:10474000A07C41900B3812514C02482CE4FFFE7DB6
:10475000C87C41900B3812514C02482CE4FFFE7D7E
:10476000F07C41900B3812514C02482CE4FFFE7D46
:104770000C7C42900B3812514C02482C7F007ED6A4
:104780007D837C49900B4212514C02482C7F007E65
:10479000C47D867C49900B4212514C02482C7F000C
:1047A0007EB27D897C49900B4212514C807E7F0005
:1047B0007EA07D8C7C49900B4212514C806E7F0014
:1047C0007E8E7D8F7C49900B4212514C805E7F0023
:1047D0007E7C7D927C49900B4212514C804E7F0032
:1047E0007E6A7D957C49900B4212514C803E7F0041
:1047F0007E587D987C49900B4212514C802E7F0050
:104800007E467D9B7C49900B4212514C801E7F005E
:104810007E347D9E7C49900B4212514C800E7F006D
:104820007E227DA17C49900B4212514C900B33E0CB
:104830006003024A2BFFFE7D807C1B900A09125107
:1048400040D31250C34009900B7E740CF002497E95
:10485000E4FFFE7D807C0F900A09125140D3125074
:10486000C34009900B7E740BF002497EE4FFFEFD0D
:104870007C0D900A09125140D31250C34009900B8D
:104880007E740AF002497EE4FFFEFD7C0B900A096B
:10489000125140D31250C34009900B7E7409F002AC
:1048A000497EE4FFFE7D807C09900A09125140D3C5
:1048B0001250C34009900B7E7408F002497EE4FF59
:1048C000FEFD7C08900A09125140D31250C34009E2
:1048D000900B7E7407F002497EE4FFFEFD7C06909B
:1048E0000A09125140D31250C34009900B7E74063E
:1048F000F002497EE4FFFE7D807C04900A0912519B
:1049000040D31250C34008900B7E7405F0806FE4D2
:10491000FFFEFD7C03900A09125140D31250C340A0
:1049200008900B7E7404F08055E4FFFE7D807C02CD
:10493000900A09125140D31250C34008900B7E7464
:1049400003F0803AE4FFFE7D807C01900A09125159
:1049500040D31250C34008900B7E7402F0801FE4D5
:10496000FFFE7DC0FC900A09125140D31250C34093
:1049700008900B7E7401F08005E4900B7EF0E4FF5C
:10498000FEFD7C0B900A09125140D31250C3400720
:10499000E4900A0DF0806FE4FFFEFD7C08900A09A8
:1049A000125140D31250C34008900A0D7401F08098
:1049B00055E4FFFE7D807C04900A09125140D31219
:1049C00050C34007E4900A0DF0803BE4FFFE7D8079
:1049D0007C02900A09125140D31250C34008900A39
:1049E0000D7401F08020E4FFFE7D807C01900A09B7
:1049F000125140D31250C34007E4900A0DF08006D4
:104A0000900A0D7401F0900BA07401F0900A0DE073
:104A1000600D12B4D0EF54EFFF12B4CA024AAA12CA
:104A2000B4D0EF4410FF12B4CA807F900B34E090F2
:104A30000A14F0900B35E0900A15F0900B36E090D8
:104A40000A16F0900B3C125134900A1712514CE4A4
:104A5000900A1BF0900B37E0900A1CF0900B46E098
:104A6000900A1DF0900B40E0900A1EF0900B41E080
:104A7000900A1FF0900B42125134900A2012514CB0
:104A8000900B47E0900A24F0900B48E0900A25F044
:104A9000900B49E0900A26F0900B38125134127DA9
:104AA000BF126FF9900BA07401F07F667E667D8661
:104AB0007C0C900A09125140D31250C3401C7F99BC
:104AC0007E997DF97C0D900A09125140C31250C3A2
:104AD0005008900BB87401F08005E4900BB8F07F9B
:104AE0000022024EA3E86480F8E933E83360110441
:104AF00060F0ED33EC337009E8FCE9FDEAFEEBFF12
:104B0000220460DED3EB9FEA9EE99DE8C2E78CF0C9
:104B1000C2F795F0400CE8CCF8E9CDF9EACEFAEB13
:104B2000CFFB124E6E85D0F05804700320D5B3E849
:104B30000470075002B2D5024EAD92D5EC0460F776
:104B4000E4CCC0E0C398F8603B94186008400DD0F6
:104B5000E0FB024E85E4FBFAC9FC8028E830E4065D
:104B6000E4C9FBE4CAFCE830E305E4C9CACBFCE8CD
:104B700054076010F8C3E913F9EA13FAEB13FBECDE
:104B800013FCD8F130F52FC3E49CFCEF9BFFEE9AA9
:104B9000FEED99FDD0E0FBEF4E4D4C701222DB0391
:104BA000024EAAEC2CFCEF33FFEE33FEED33FDEDAD
:104BB00030E7EB024E85EF2BFFEE3AFEED39FDD0EC
:104BC000E0FB50130BBB0003024EADED13FDEE13E3
:104BD000FEEF13FFEC13FC024E85EC4D6011E8492B
:104BE0007017ED33EC3304600DE4FCFFFEFD22E9A9
:104BF00033E8330470F8024EA3124E6E5804600975
:104C0000E4CC24815006285009024EAD284003020E
:104C10004EAAC0E0EB4A7044B98006D0E0FB024ED9
:104C200099EF4E701CBD8008EBFFEAFEE9FD80EBBA
:104C3000E98DF0A4FEE5F0024CC3E9CDF9EAFEEB04
:104C4000FFEF89F0A4FCE5F0CE89F0A42EFFE43557
:104C5000F0CD89F0A42DFEE435F08067EF4E7005AD
:104C6000BD80D780C3EF8BF0A4ACF0EE8BF0A42C0A
:104C7000FCE435F0F8EF8AF0A42CE5F038FCE433DE
:104C8000CB8DF0A42CFCE5F03BF8EE8AF0A42CFCD4
:104C9000E5F038F8E433CF89F0A42CFCE5F038CF08
:104CA0003400CE89F0A42FFFE5F03EFEE433C98D39
:104CB000F0A42EFEE5F039CD8AF0A42FFFE5F03EFA
:104CC000FEE43DFD33D0E0FB50070BBB000F024E6E
:104CD000ADEC2CFCEF33FFEE33FEED33FD024E85E1
:104CE000024EADEC5D046005E859047003024EA36A
:104CF000124E6E580460F6EC4860F2EC7004FDFE53
:104D0000FF22C860DB2481C85009C39860025006A6
:104D1000024EAA9850CAF582E9294B4A7005AB8227
:104D2000024E9975F0007C1A7880C3EF9BEE9AEDE5
:104D300099400DC3EF9BFFEE9AFEED99FDE842F01E
:104D4000DC23ACF0D0E0FFD0E0FED0E0FDAB822071
:104D5000E7101BEB60BAEC2CFCEF33FFEE33FEEDFB
:104D600033FD024E85E803F830E705C0F075F0002A
:104D7000EF2FFFEE33FEED33FD40B830E7C280AADF
:104D800074F8CC6480CCC86480C8F58204604FC3DA
:104D9000EB9FF5F0EA9E42F0E99D42F0E89C45F079
:104DA000603C501DE5825FFFE582D313CB5BCBF403
:104DB0002B5582FB50280ABA002409B9002008802C
:104DC0001DE5825BFBE582D313CF5FCFF4C3132FC6
:104DD0005582FF50090EBE00050DBD00010CC3EB4E
:104DE0009FF5F0EA9E42F0E99D42F0E89C45F060B4
:104DF00007CC4820E701B3EC2275F020800E75F057
:104E000010800575F0087D007E007F003392D5305C
:104E1000D50312509FEC334010EF33FFEE33FEED1D
:104E200033FDEC33FCD5F0ED22E5F0247EA2D51362
:104E3000CC92E7CDCEFF22EDD2E7CD33EC3392D545
:104E400024814006E4FFFEFDFC22FCE4CFCECDCC65
:104E500024E0501174FF80EDC3CC13CCCD13CDCE24
:104E600013CECF13CF0470F030D5DE02509FE9D2BD
:104E7000E7C933E833F892D5EDD2E7CD33EC33FC14
:104E80005002B2D522EC30E7100FBF000C0EBE006E
:104E9000080DBD00040BEB6014A2D5EB13FCED92E2
:104EA000E7FD2274FFFCFDFEFF22E480F8A2D5742A
:104EB000FF13FC7D80E480EFBB010689828A83E0DA
:104EC000225002E722BBFE02E32289828A83E49316
:104ED00022BB010689828A83F0225002F722BBFEA0
:104EE00001F322EF8DF0A4A8F0CF8CF0A428CE8D92
:104EF000F0A42EFE22C5F0F8A3E028F0C5F0F8E5F6
:104F000082158270021583E038F022A3F8E0C5F024
:104F100025F0F0E582158270021583E0C838F0E8CC
:104F200022BB010A89828A83F0E5F0A3F0225006B1
:104F3000F709A7F01922BBFE06F3E5F009F31922E1
:104F4000EF2BFFEE3AFEED39FDEC38FC22C3EF9B70
:104F5000FFEE9AFEED99FDEC98FC22E88FF0A4CCD0
:104F60008BF0A42CFCE98EF0A42CFC8AF0EDA42C90
:104F7000FCEA8EF0A4CDA8F08BF0A42DCC3825F05F
:104F8000FDE98FF0A42CCD35F0FCEB8EF0A4FEA94A
:104F9000F0EB8FF0A4CFC5F02ECD39FEE43CFCEA57
:104FA000A42DCE35F0FDE43CFC2275F0087582009E
:104FB000EF2FFFEE33FECD33CDCC33CCC58233C5DE
:104FC000829BED9AEC99E58298400CF582EE9BFE6F
:104FD000ED9AFDEC99FC0FD5F0D6E4CEFBE4CDFACA
:104FE000E4CCF9A88222B800C1B90059BA002DEC6E
:104FF0008BF084CFCECDFCE5F0CBF97818EF2FFF06
:10500000EE33FEED33FDEC33FCEB33FB10D70399AD
:105010004004EB99FB0FD8E5E4F9FA227818EF2F5A
:10502000FFEE33FEED33FDEC33FCC933C910D70579
:105030009BE99A4007EC9BFCE99AF90FD8E0E4C998
:10504000FAE4CCFB2275F010EF2FFFEE33FEED33C8
:10505000FDCC33CCC833C810D7079BEC9AE89940F5
:105060000AED9BFDEC9AFCE899F80FD5F0DAE4CD57
:10507000FBE4CCFAE4C8F922EF5BFFEE5AFEED59EF
:10508000FDEC58FC22EF4BFFEE4AFEED49FDEC48EB
:10509000FC22CFF4CFCEF4CECDF4CDCCF4CC22C3D1
:1050A000E49FFFE49EFEE49DFDE49CFC22EB9FF563
:1050B000F0EA9E42F0E99D42F0EC6480C86480987A
:1050C00045F022EB9FF5F0EA9E42F0E99D42F0E8C0
:1050D0009C45F022E8600FECC313FCED13FDEE13CA
:1050E000FEEF13FFD8F122E8600FEFC333FFEE337A
:1050F000FEED33FDEC33FCD8F122BB010789828A37
:10510000830251345005E9F8025240BBFE05E9F82C
:1051100002524C89828A83025258BB010789828AD3
:105120008302514C5005E9F8025268BBFE05E9F8CC
:1051300002527422E0FCA3E0FDA3E0FEA3E0FF2204
:10514000E0F8A3E0F9A3E0FAA3E0FB22ECF0A3ED82
:10515000F0A3EEF0A3EFF022A42582F582E5F0356E
:1051600083F58322E0FBA3E0FAA3E0F922EBF0A3AE
:10517000EAF0A3E9F022E493FB740193FA7402933A
:10518000F922D083D082F8E4937012740193700DE9
:10519000A3A393F8740193F5828883E47374029354
:1051A0006860EFA3A3A380DFD083D082E493701262
:1051B000740193700DA3A393F8740193F58288830F
:1051C000E4737402936C70127403936D700C740426
:1051D000936E70067405936F60DDA3A3A3A3A3A3CE
:1051E00080CAE5092582F582E5083583F583B5088F
:1051F000048582092210AF06858209F5082285827E
:1052000009F508D2AF22E5092582F582E508358344
:10521000F58322EC8EF0A4CCC5F0CCCDF8EFA4CE73
:10522000C5F02DFDE43CFCE8A42EC8C5F03DFDE42E
:105230003CFCEFA4FFE5F028FEE43DFDE43CFC224D
:10524000E6FC08E6FD08E6FE08E6FF22E2FC08E2CE
:10525000FD08E2FE08E2FF22E493FC740193FD7472
:105260000293FE740393FF22ECF608EDF608EEF6C7
:1052700008EFF622ECF208EDF208EEF208EFF22267
:10528000900A1012514CE4900A16F012AC7B900A6E
:1052900014EFF0E0FE5402A3F0EE5401900A14F073
:1052A000900A8BE024FE606D147003025341147069
:1052B000030253D724FE70030253F924056003024E
:1052C000544D900AA3E07027900A14E06008900AF9
:1052D00088E06401600D900A15E06013900A88E090
:1052E000B4030C900A10125134900A8E12514C9053
:1052F0000A10125140900A8E125134124F4DE4FBA5
:10530000FAF9F8D31250AD500302544D900A8B7441
:1053100002F002544D900A10125140900A9212511C
:1053200034124F4DE4FBFAF9F8D31250AD40069019
:105330000A8B7403F0900A89E0C39404500302546A
:105340004D900A10125140900A92125134124F4D52
:10535000E4FBFAF9F8D31250AD500302544D900A11
:1053600089E0FF24FC602914602E14602B24057052
:1053700036900A8DE0900A16F0900A8D7480F090B5
:105380000AA3E0C39402401F900A8B7402F08017B6
:10539000900A8DE0900A16F0900AA3E0C3940340AF
:1053A00006900A8B7402F0EFC394075006900A89A6
:1053B000E004F0900AA1E0B40206900A8B7403F0B6
:1053C000900A92125134900A9A125140124F409012
:1053D0000A9212514C8076900A10125140900A9213
:1053E000125134124F4DE4FBFAF9F8D31250AD408C
:1053F0005C900A8B7405F08054900A101251409012
:105400000A8E125134124F4DE4FBFAF9F8D31250C0
:10541000AD403A900A8B7403F0E4A3F0900A9A121C
:105420005134900A10125140124F40900A9212517A
:105430004CE4900A89F0900A8DE0FF30E00574FF9B
:10544000F0800AEFC313900A8DF04480F0900AA117
:10545000E0FF64036008EF640260030254E5900A11
:1054600015E06055900A10125134900A1712514CF1
:10547000900A8BE0C39404500F7404F0900A171242
:105480005134900A9212514C900A8BE0C39406500A
:105490001B900A17125134900A8E12514C900A1721
:1054A000125134129B14900A167401F0900A8874F9
:1054B00003F0E4900A8CF08038900A8BE064057069
:1054C00030A3E0B40108900A8B7403F08023900AA3
:1054D0008B7406F0900A10125134129B14900A1625
:1054E0007401F0800C900A8BE0D39403400374069F
:1054F000F0900A8CE060030255BA900A8BE0D394D6
:1055000001405B900A14E0FF6038A3E06034900A29
:105510008AE06011900AA1E0B4010A900A88E09044
:105520000A8CF08015900A88E0B40108900A8C7407
:1055300003F08006900A8C7401F0900A8A7401F0DE
:105540008078EF6006900A8C7401F0900A15E06094
:1055500006900A8C7403F0E4900A8AF0805C900A4A
:105560008AE06008900AA1E06401604E900A14E0AD
:105570006020900A88E064036007A3E0D3940040B1
:1055800011900AA2E030E10A900A8C7401F0900AAE
:105590008AF0900A15E06022900A88E064016007B2
:1055A000A3E0D394004013900AA2E030E00C900AEC
:1055B0008C7403F0900A8A7401F0900A8BE0640303
:1055C0006003025744A3E0FF7003025744E4FCFD6C
:1055D000FE900A9A125140124F5B900A10125140ED
:1055E000124F40900A1712514CE4FFFEFD7C409090
:1055F0000AA4125140124BDAE4FBFA798078BF1208
:105600004AE9C004C005C006C007900A9A12513486
:10561000EC124DF9D003D002D001D000124BDAC009
:1056200004C005C006C007900A17125134EC124D91
:10563000F9D003D002D001D000124AE9124E3790BF
:105640000A1712514C900AA9E0FFE4FCFDFE7BE82A
:105650007A03F9F8124F5B900A17125140124F402B
:10566000900A9212514C900A8E12514C900A92124A
:105670005134129B14900A167401F0E4FFFEFD7C75
:1056800040900AA4125140124BDAA804A905AA06B8
:10569000AB07E4FFFEFD7C40124AE5C004C005C034
:1056A00006C007900A9A125134EC124DF9D003D07B
:1056B00002D001D000124BDAC004C005C006C007FA
:1056C000900A17125134EC124DF9D003D002D001D8
:1056D000D000124AE9124E37900A1712514C900A24
:1056E000A3E0C394014018900A17125134900A8E17
:1056F00012514C900A17125134900A9212514CE4F4
:10570000900A89F0900A8DE0FF30E012B401079012
:105710000A8CE0B4031C900A8D74FFF08014900A88
:105720008DE0FFC313F0900A8CE0B40305A3E044BE
:1057300080F0900A8CE0900A88F0E4900A8CF09057
:105740000A8B04F0900AA1E0B403037F0022900AC0
:1057500016E0FF22900ABBE01251825780005841A8
:10576000015AB3085AB30A591A0C5A8A0D593F0EF6
:105770005A8A0F5A56105A8A115AAD1200005AB955
:10578000900ACEE06009128ABB900AD412514C9064
:105790000AD8125134900AC4125140C31250C37037
:1057A00015900AD4125134900AE4125140C3125099
:1057B000C37003025B7712B232900A09EFF0900ACD
:1057C000D4125134900AE412514C900AD812513438
:1057D000900AC412514C900A09E0FF12B140900A9D
:1057E000E4125134128D6FE4124DF9E4FBFAF978AA
:1057F0004A124CE3900ABC12514CE4FFFE7D807CBF
:1058000040900ABC125140124D80500DE4FFFE7DC5
:10581000807C40900ABC12514CE4FFFE7D207C430A
:10582000900ABC125140124D80600F400DE4FFFE03
:105830007D207C43900ABC12514C900ABB7401F04D
:10584000227F007EC07D5A7C45900AC012514012D2
:105850004BDA7B007A2479747849124CE3900A1869
:1058600012514C900ABAE0FCE4124E03900ABC12AA
:105870005140124BDAC004C005C006C007900AB9F7
:10588000E0FCE4124E03D003D002D001D000124B52
:10589000DA900A1412514C900AC0125140900A1426
:1058A000125134124AE512B415900A1C12514C7F61
:1058B000007E907D977C45900A14125140124D80D5
:1058C000603F403D7F007E307DB17C45900A1412E0
:1058D0005140124D80502A900A18125134900A1CDF
:1058E000125140124D805019900AB87401F0900A7C
:1058F00014125134900AC012514C900ABB740CF02F
:1059000022E4900AB8F0FF7E307DB17C45900AC059
:1059100012514C900ABB7404F022900ADC7487F098
:10592000A37420F07B017A0A79DC900A247402F0D7
:10593000E4A3F07F551295BF900ABBE004F02290DB
:105940000AC4125134128D6FE4124DF9E4FBFA7956
:1059500080784B124CE3A804A905AA06AB07900A6D
:10596000C0125134124CE3900A1012514C900A109C
:10597000125134124E37900A0AEEF0A3EFF0FDAC4C
:1059800006E4124DFEA804A905AA06AB07900A106A
:10599000125134124AE5E4FBFA7980784D124BDA61
:1059A000124E37900A0C12514C74FFFFFEFD7C0F13
:1059B000900A0C125140D31250C3400D74FFFFFEE9
:1059C000FD7C0F900A0C12514C900ADD7407F09088
:1059D0000ABAE024FC900A09F0E0FFC43354E0F96D
:1059E000900ADEF0900AB9E014900A09F0E0FD1385
:1059F00013543F49900ADEF0EDC4333354C0F9A389
:105A0000F0900A0AE0FAA3E0FBEAC4F854F0C86890
:105A1000EBC4540F4849900ADFF0900A0C1251343D
:105A2000900AE012514C900AE0E0FDEBC4F8540FEC
:105A3000C868FFEAC454F048ED4FF07B017A0A7958
:105A4000DD900A247407F0E4A3F07F551295BF900F
:105A50000ABBE004F022900ADC7487F0900AB8E0F8
:105A60006007E4900ADDF08006900ADD7440F07B68
:105A7000017A0A79DC900A247402F0E4A3F07F55DD
:105A80001295BF900ABBE004F02212B004900A09FC
:105A9000EFF030E707900ABBE014F022900A09E02B
:105AA00020E103025B77900ABBE004F022E4900A55
:105AB000BBF022900ABBE004F0900ABBE0FCE412C9
:105AC0004E03900ABC125140124BDAA804A905AA51
:105AD00006AB077F007E607DA47C45124CE3124E2E
:105AE00037900A09EFF0D394014006E030E0020459
:105AF000F0900ABBE0FCE4124E03900ABC12514045
:105B0000124BDAC004C005C006C007900A09E0FCC9
:105B1000E4124E03D003D002D001D000124BDA9031
:105B20000A1412514C900ABBE004F0900A09E0D329
:105B3000948050437F007E907D977C45900A14129C
:105B40005140124D806030402E900AC01251349066
:105B50000A14125140124D80501D900A14125134F3
:105B6000900AC012514C900A09E0900AB9F0900ACC
:105B7000BBE014900ABAF022E49009F7F0FBFAF9BE
:105B80009009FA12516DE4900916F0A3F0906000AC
:105B9000E0548064806003025DB2A3E07003025CA5
:105BA000F324F87003025D6B24FE7003025D892408
:105BB000046003025F65906003E0B4012D12B0F74A
:105BC0009009FDEEF0A3EFF0F5828E83A3125176DB
:105BD00090091812516D900916E4F0A37412F01296
:105BE000A98D9009F7EFF0025F65906003E0640211
:105BF0007064906002E0FF12A50F9009FDEEF0A323
:105C0000EFF09009FDE0FEA3E0FF4E7003025F6538
:105C10008F828E83A312517690091812516D9009CC
:105C200018125164E92403F9E43AFA124EB8FE90CE
:105C30000918125164E92402F9E43AFA124EB8FD47
:105C4000EEEDFF900916EEF0A3EFF012A98D90098A
:105C5000F7EFF0025F65906003E064036003025CAD
:105C6000E8FF7BFF7AC0798D9009FA12516D906040
:105C700002E0D39F401F9009FA125164124EB8609F
:105C800014124EB8FE7C0029F9EC3AFA9009FA1287
:105C9000516D0F80D9906002E0602290BFD4E493F0
:105CA000FF906002E0B507157B017A0B790D129029
:105CB0008F7B017A0B790D9009FA12516D9009FAD8
:105CC000125164124EB87003025F65124EB8FF9015
:105CD0000916E4F0A3EFF090091812516D12A98D86
:105CE0009009F7EFF0025F6512A4729009F7EFF0E8
:105CF000025F65906000E05403604224FE6003028E
:105D00005F65900916E4F0A37402F0906004E0541B
:105D10007F75F00BA42437F582E43409F583E09015
:105D20000BC2F0E4A3F07B017A0B79C29009181240
:105D3000516D12A98D9009F7EFF0025F6590091679
:105D4000E4F0A37402F090092FE0900BC2F0E4A3FA
:105D5000F07B017A0B79C290091812516D12A98D4E
:105D60009009F7EFF0025F65025F65900916E4F0B5
:105D7000A304F0FB7A09793090091812516D12A929
:105D80008D9009F7EFF0025F65900916E4F0A30427
:105D9000F0906004E02412F9E43409FA7B019009E0
:105DA0001812516D12A98D9009F7EFF0025F65028C
:105DB0005F65906001E0147003025E8924FE700349
:105DC000025F0024FA601E24FE607824066003024D
:105DD0005F65906002E0900927F012B1289009F702
:105DE000EFF0025F65906002E09009F9F0E0FFD308
:105DF0009400400EEF14FF12A50F9009FDEEF0A3E2
:105E0000EFF09009F9E0FFD39400400A9009FDE01B
:105E10007002A3E07006EF6003025F65900930E056
:105E2000FF9009F9E0FE6F600F900930EEF09009E5
:105E3000227401F0FF125F6B12B1289009F7EFF0A6
:105E4000025F65129D50EF7003025F65906004E091
:105E50009009F8F0E090091EF09009227401F01208
:105E60006BDB9009F8E0FF2412F582E43409F58336
:105E7000E0FE74232FF582E43409F583EEF012B1CD
:105E8000289009F7EFF0025F65906000E05403602E
:105E90001D146037146003025F65906002E06003C8
:105EA000025F651287DC9009F7EFF0025F65906092
:105EB00002E064016003025F6590092FE054FDF089
:105EC00012B1289009F7EFF0025F65906004E0C31B
:105ED00094044003025F65E02428F582E43409F568
:105EE00083C083C082E0FF906002E0F4FEEF5ED0EA
:105EF00082D083F012B1289009F7EFF080678065B7
:105F0000906000E05403601614602C147057906089
:105F100002E070511294809009F7EFF08047906092
:105F200002E06401703F90092FE04402F012B128B2
:105F30009009F7EFF0802E906004E0C394045025A0
:105F4000E02428F582E43409F583C083C082E0FFB1
:105F5000906002E0F4FEEF5ED082D083F012B128B0
:105F60009009F7EFF09009F7E0FF22E49009FFF0C5
:105F70009009FFE0FEC39409507BEE75F00BA4245A
:105F800035F582E43409F583E4F0EE75F00BA424D2
:105F900037F582E43409F583E4F0EE75F00BA424C0
:105FA00036F582E43409F583E4F0EE75F00BA424B1
:105FB00038F582E43409F583E4F0EE75F00BA4249F
:105FC0003AF582E43409F583E4F0EE75F00BA4248D
:105FD0003DF582E43409F583E4F0A3F0EE75F00BAF
:105FE000A4243FF582E43409F583E4F09009FFE04E
:105FF00004F0025F70EF602FE4900A00F0900A0056
:10600000E0FFC39404502074122FF582E43409F5A4
:1060100083E4F074232FF582E43409F583E4F090EF
:106020000A00E004F080D6900930E0D394005003D9
:1060300002629EE014FF12A50F900A01EEF0A3EF9A
:10604000F0900A01E0FCA3E0FDF5828C83A31251DD
:1060500076E92407F9E43AFA124EB8544060099000
:10606000092FE04401F0800790092FE054FEF0ED85
:106070002404FFE43CFE900A01F0A3EFF0F5828EC9
:1060800083E4939009FFF0A37401F0900A00E0C349
:106090009409400302622FA3E0FEA3E0F5828E8301
:1060A000A3125176AF01900A03EAF0A3EFF0E4FFE8
:1060B0009009FFE0FEEFC39E4003026226900A03B0
:1060C000E0FCA3E0F5828C83740293547FFD900A78
:1060D00000E0FE6D7001E46003026214900A03E0C8
:1060E000A3E0F5828C83740493FC740593FDEE7534
:1060F000F00BA4243DF582E43409F583E0FAA3E033
:10610000C39DEA9C5029900A03E0FCA3E0F5828C31
:1061100083740493FC740593FD900A00E075F00B02
:10612000A4243DF582E43409F583ECF0A3EDF0906E
:106130000A03E0FCA3E0FDF5828C83E4932412F5CE
:1061400082E43409F583E0FE8D828C83740193FD33
:10615000EE6D6003026214900A03E0A3E0F5828C06
:10616000837403935403FE900A03E0A3E0F5828C4A
:106170008374029354806030900A00E0FD75F00B48
:10618000A42436F582E43409F5837401F0B50604DD
:106190007C0780027C0DED75F00BA4243AF582E4B7
:1061A0003409F583ECF0802E900A00E0FD75F00BC9
:1061B000A42436F582E43409F583E4F0EEB4010456
:1061C0007E0580027E09ED75F00BA4243AF582E489
:1061D0003409F583EEF0900A03E0FCA3E0FDF582BC
:1061E0008C83740293FE900A00E0FB75F00BA424EC
:1061F00039F582E43409F583EEF08D828C837403E3
:1062000093FEEB75F00BA42435F582E43409F58395
:10621000EEF08012900A04E02407F0900A03E034C4
:1062200000F00F0260B0900A00E004F002608B9072
:106230000A01E0FEA3E0F5828E83A3125176AF013E
:10624000900A03EAF0A3EFF0E4900A00F09009FF4F
:10625000E0FFA3E0C39F5038900A03E0FEA3E0F5FF
:10626000828E83E493FD740293547F75F00BA42413
:106270003FF582E43409F583EDF0900A04E0240749
:10628000F0900A03E03400F0900A00E004F080BDD2
:1062900012A024900920EEF0A3EFF0128F2222C06A
:1062A000E0C0F0C083C082C085C084C0867586000F
:1062B000C093759300C0D075D000C000C001C0026B
:1062C000C003C004C005C006C0079049D7E0900ACB
:1062D00043F0900BC1E05440700302651F900A43E5
:1062E000E0FF540170030264EF900BC1E024BA7028
:1062F000030263E724FD600D14700302648E24051D
:1063000060030264EAEF54DF900A43F0540AFD7C14
:106310000064087075900BC1E06445705F900B706D
:10632000E0D394004022900B69125164124EB89051
:1063300049D8F09049D77404F0900B6D7401F09037
:106340000BC17446F00264EF900B6EE054026016CD
:10635000900B71E0440AF0900BC17460F09044C956
:106360007480F00264EF9049D6E04410F09049D96F
:106370007410F09049D77404F00264EF9049D7E4A8
:10638000F0900BC1744AF00264EFED640A4C704F58
:10639000900B71E044A0F0900B6EE05402602A90E4
:1063A0000B71E0FF900BC1E0540860047E01800295
:1063B0007E02EE44084F900B71F0900BC17460F0B8
:1063C0009044C97480F00264EF9049D6E04410F024
:1063D0009049D97410F09049D77404F00264EF7FAB
:1063E0000012B2470264EF900A43E05402706690D4
:1063F0000B70E0FF900B6DE0C39F5025900B69126E
:106400005164900B6DE029F9E43AFA124EB89049C4
:10641000D8F09049D77404F0900B6DE004F002645A
:10642000EF900B6EE054026016900B71E0440AF09E
:10643000900BC17460F09044C97480F00264EF90D6
:1064400049D6E04410F09049D97410F09049D774BF
:1064500004F00264EF900B6EE054026015900B7133
:10646000E0449AF0900BC17460F09044C97480F0DD
:10647000807D9049D6E04410F09049D97410F09096
:1064800049D77404F0900B71E04490F0806190491A
:10649000D8E0FF900B72125164900B6CE029F9E484
:1064A0003AFAEF124ED1900B6CE004F0900B6FE0D3
:1064B000FF900B6CE0C39F50089049D77410F08098
:1064C0002E900B6EE054026015900B71E04409F0C1
:1064D000900BC17460F09044C97480F080119049B1
:1064E000D6E04410F0A3E4F080057F0012B247909C
:1064F0000A43E054206036900B71E0FF900BC1E03E
:10650000540860047E0180027E02EF4E900B71F011
:106510009049D6E054EFF0900BC17410F0800E90CB
:106520000BC1E054107006900BC17410F0D007D06E
:1065300006D005D004D003D002D001D000D0D0D0F6
:1065400093D086D084D085D082D083D0F0D0E03272
:10655000E4900A09F0900A09E0FFC39403400302A3
:1065600065FDEF64027041E02407F582E43409F52B
:1065700083E0FF900907E0FBE4900A18F07D01FC3E
:10658000129930900A09E02407F582E43409F58372
:10659000E0FF7B017A097903E9EAE4AD01AC027B13
:1065A000477A64129A25804C900A09E0FE2407F588
:1065B00082E43409F583E0FF74082EF582E434099F
:1065C000F583E0FB900A187404F07D017C001299B9
:1065D00030900A09E02407F582E43409F583E0FFEE
:1065E0007B017A09790BE9EAE4AD01AC027B477AD9
:1065F00064129A25900A09E004F0026555900BC8D0
:10660000E0FF12AE6C900BC8E0FF900907E0FD12AE
:10661000B0C5E4900A09F0900A09E0FFC394034072
:1066200003026734EF04A3F0C39403402FE4F09017
:106630000A09E0240FF582E43409F583E0FF900AAB
:106640000AE0240FF582E43409F583E0FB900A1890
:106650007405F07D807C01129930802A900A09E04F
:10666000240FF582E43409F583E0FF900A0AE02460
:106670000FF582E43409F583E0FB900A187401F009
:106680007D80FC129930900A09E0FB75F08090043F
:1066900083125158EB2583F583FEE582EEE4AD824B
:1066A000AC06C005740F2BF582E43409F583E0FFD6
:1066B0007B017A09790BE9EAE4AB01D005129A254E
:1066C000900A09E02400F582E43400F583E0FF90AD
:1066D0000A0AE02400F582E43400F583E0FB900A26
:1066E000187402F07D807C01129930900A09E0F95B
:1066F00075F080900483125158E92583F583FEE5F7
:1067000082EEE4AB82AA06C002C003740029F582BF
:10671000E43400F583E0FF7B017A097903E9EAE4D8
:10672000AD01AC02D003D002129A25900A09E00410
:10673000F0026617900BC7E0FF12AE6C900BC7E03B
:10674000FF90090FE0FD12B0C5900BC9E0FF12AE3B
:106750006C900BC9E0FF900000E0FD12B0C5900BFB
:10676000C9E0FF7D0112AA4C900BC7E0FF7D01122A
:10677000AF69900BC7E0FF7D0112AA4C900BC8E0F7
:10678000FF7D0112AA4C22E4900A00F0906000E024
:10679000900A01F0906004E0547F900A02F0900AA1
:1067A00001E0FF548064806003026908EF540364D1
:1067B000027044906001E0247F60030269B490603D
:1067C00003E0640160030269B4900916F0A3740346
:1067D000F0900A02E075F003A424E9F9740A35F098
:1067E000FA7B0190091812516D12A98D900A00EFE1
:1067F000F00269B40269B4900A01E05403640160D4
:10680000030269B4906001E0247E606914700302A1
:10681000689F1470030268C9248570030268F3241A
:106820007E60030269B4906003E0B4011E90091613
:10683000E4F0A304F0FB7A0A79E890091812516D8C
:1068400012A98D900A00EFF00269B4906003E06431
:106850000260030269B4900916F0A37402F07B0190
:106860007A0B790A90091812516D12A98D900A00BD
:10687000EFF00269B4906003E0640260030269B45F
:10688000900916F0A37402F07B017A0B7906900947
:106890001812516D12A98D900A00EFF00269B490A0
:1068A0006003E0640260030269B4900916F0A37407
:1068B00002F07B017A0B790890091812516D12A928
:1068C0008D900A00EFF00269B4906003E06402600A
:1068D000030269B4900916F0A37402F07B017A0BED
:1068E000790490091812516D12A98D900A00EFF0E9
:1068F0000269B4E4900916F0A3F012AB74900A0098
:10690000EFF00269B40269B4900A01E05403640232
:106910007049906001E01460030269B4906003E084
:10692000640160030269B4900916F0A37403F09047
:106930000A02E075F003A424E9F9740A35F0FA7B41
:106940000190091812516D12AB74900A00EFF0908B
:106950000A02E0900B0CF0805B8059900A01E05431
:10696000036401704F906001E0147048906003E090
:10697000B4011D900916E4F0A304F0FB7A0A79E84B
:1069800090091812516D12AB74900A00EFF0802438
:10699000906003E0B4021D900916E4F0A37402F0C5
:1069A0007B017A0B790A90091812516D12AB749021
:1069B0000A00EFF0900A00E0FF22E49009F7F0905F
:1069C0006000E09009F8F0906001E09009F9F09023
:1069D00009F8E0548064806003026B65A3E0125103
:1069E000826A00006A2A026B2B206A613A6A813C43
:1069F0006AB23D6AD23F6AF1506B055100006B6587
:106A0000900BB2741EF0A3740FF07B017A0B79B275
:106A100090091812516D900916E4F0A37402F01257
:106A2000A98D9009F7EFF0026B6512AC15900BB2CF
:106A3000EFF0125134EFEEEDEC4408FC900BB21283
:106A4000514C7B017A0B79B290091812516D900963
:106A500016E4F0A304F012A98D9009F7EFF0026B91
:106A6000657B017A0A79D490091812516D90091644
:106A7000E4F0A37404F012A98D9009F7EFF0026B13
:106A8000657F707E3D7D0A7C07128D6F900BB21280
:106A9000514C7B017A0B79B290091812516D900913
:106AA00016E4F0A37404F012A98D9009F7EFF00238
:106AB0006B657B017A0A79D890091812516D90099B
:106AC00016E4F0A37404F012A98D9009F7EFF00218
:106AD0006B657B017A0A79DE90091812516D900975
:106AE00016E4F0A37406F012A98D9009F7EFF08078
:106AF00074906002E030E008900BB97401F08005FA
:106B0000E4900BB9F012AC15900BB2EFF07B017A68
:106B10000B79B290091812516D900916E4F0A30494
:106B2000F012A98D9009F7EFF0803A906003E0B47D
:106B300087337B027A60790412B37FEF64014E7071
:106B40002412AEBBE4900BB2F07B017A0B79B290C9
:106B5000091812516D900916E4F0A304F012A98DE2
:106B60009009F7EFF09009F8E054807068A3E024F2
:106B7000CE60261460422403705B7B017A0A79CED2
:106B800090091812516D900916E4F0A37406F012E2
:106B9000AB749009F7EFF0803C7B017A0A79D490CE
:106BA000091812516D900916E4F0A37404F012ABA9
:106BB000749009F7EFF0801D7B017A0A79D890096B
:106BC0001812516D900916E4F0A37404F012AB741E
:106BD0009009F7EFF09009F7E0FF22900930E0D339
:106BE00094005003026DEBE014FF12A50FEF240494
:106BF000FFE43EFE8F82F583E4939009FFF08F82DD
:106C00008E83A3125176AB01E4F99009FFE0FFE90E
:106C1000C39F4003026DEB8B828A83E493FE24239F
:106C2000F582E43409F583E0FF74122EF582E43432
:106C300009F583E06F7003026DE08B828A83E49331
:106C40002412F582E43409F583E0FF8B828A837491
:106C50000193FEEF6E6003026DE093FF906004E02D
:106C6000FEEF6E6003026DE08B828A8374029354A0
:106C70007FFD24FFFFE434FFFEEFC4F8540FC86823
:106C8000FFEEC454F048900A00EFF08B828A8374C0
:106C900003935403FC7402935480602CED75F00B45
:106CA000A42436F582E43409F5837401F0B50404B4
:106CB0007F0780027F0DED75F00BA4243AF582E486
:106CC0003409F583EFF0802AED75F00BA42436F536
:106CD00082E43409F583E4F0ECB401047F0580021A
:106CE0007F09ED75F00BA4243AF582E43409F583AD
:106CF000EFF0900A00E0FC240EFFE434608F82F590
:106D0000837401F08B828A83740493FE740593FF6D
:106D1000ED75F00BA4243DF582E43409F583EEF023
:106D2000A3EFF08B828A83740293FFED75F00BA4BE
:106D30002439F582E43409F583EFF08B828A837479
:106D40000393FFED75F00BA42435F582E43409F5C7
:106D500083EFF0ED75F00BA42438F582E43409F5E7
:106D600083E4F0EC2480FFE434608F82F583E05408
:106D7000FEF0ED24FFFFE434FFFEEF25E0FFEE33ED
:106D8000906014EFF0E04401F0906014E054106063
:106D9000F88B828A837402935480701F90608FC036
:106DA00083C082E0FFED14FE7401A806088002C3D0
:106DB00033D8FC4FD082D083F0801E90608FC08388
:106DC000C082E0FFED14FE7401A806088002C33300
:106DD000D8FCF45FD082D083F0906014E054FEF0D1
:106DE000EB2407FBE43AFA09026C0A22E4900A0E4B
:106DF000F0900A11F0A3F0900A0EE0FFC394064051
:106E000003026ED8EF14605C14603714605614707F
:106E100003026E94147003026EB2240570D9900AB6
:106E2000DC7487F0A37401F0FB7A0A79DC900A2401
:106E300004F0E4A3F07F551295BF900A0EE004F031
:106E400080B5900ADC7407F07B017A0A79DC900A3D
:106E5000247401F0A304F07F551295BF900A0EE050
:106E600004F0809312B004900A0DEFF030E706A30F
:106E7000E014F0800B900A0DE030E104A3E004F090
:106E8000900A1174FFF5F0124EF545F06003026DA3
:106E9000F77F01227B017A0A79DE900A1B7406F0E3
:106EA000A37401F07F551293DF900A0EE004F00204
:106EB0006DF712B004900A0DEFF030E707A37402EB
:106EC000F0026DF7900A0DE020E003026DF7A3E0F9
:106ED00004F0026DF7026DF7900AD8125134EC4DB0
:106EE0004E4F6003026FC3900ADEE0FDC4135407E7
:106EF0002404900A0BF0ED541FFF25E025E0FF90DD
:106F00000ADFE0FEC4131354034F04900A0CF0EEA2
:106F1000543FC4F8540FC868FFE4C454F048FE90CE
:106F20000AE0E0FDC4540FFDEEEF4DFF900A0FEEB6
:106F3000F0A3EFF0900AE0125134EFEEEDEC540FB5
:106F4000FCE4124DF9E4FBFA7980784D124CE3C071
:106F500004C005C006C007900A0FE0FCA3E0FDE4F2
:106F6000124DFED003D002D001D000124AE9900A9F
:106F70001312514C900A0BE0FCE4124E037BAE7AE4
:106F80004779617842124BDAC004C005C006C007D9
:106F9000900A0CE0FCE4124E03D003D002D001D0E2
:106FA00000124BDA900A13125140124CE3E4FBFA40
:106FB0007980784B124BDA124E37128D6F900AD8C7
:106FC00012514CE4900A0DF0900A0DE0C394065063
:106FD00021E0FF24DEF582E4340AF583E0FE74C884
:106FE0002FF582E4340AF583EEF0900A0DE004F008
:106FF00080D6E4900ACEF0FF22900A0E7480F0A3AF
:107000007410F0900A0EE0FEA3E0F5828E83E0900B
:107010000AB7F0E0645A6041E4900A14F0A3F0A3C8
:1070200004F0E4FFFEFD7C3FA312514CE4900A1BE8
:10703000F0A37403F0E4A3F0A3F0A3F0FFFEFDFCC3
:10704000A312514CE4900A24F0A3747FF0E4A3F05F
:10705000FFFE7D907C41127DBF900A0EE0FEA3E012
:10706000FFF5828E83A3E0900A9EF08F828E83A329
:10707000A3E0900AADF0900A0EE0FEA3E0FFF582D7
:107080008E83A3A3A3E0900A99F0EF2404F582E491
:107090003EF583E0900AAEF0900A0EE0FEA3E0FF1A
:1070A0002405F582E43EF583E0900AACF0EF240776
:1070B000F582E43EF583E0900B9FF0900A0EE0FE2F
:1070C000A3E0FF2408F582E43EF583E0900B9DF0F9
:1070D000EF2409F582E43EF583E0900B9EF0900AE0
:1070E0000EE0FEA3E0FF240AF582E43EF583E09083
:1070F0000A9FF0EF240BF582E43EF583E0900AA0AE
:10710000F0900A0EE0FEA3E0FF240CF582E43EF5C9
:1071100083E0900A96F0EF240DF582E43EF583E0DB
:10712000900AAAF0900A0EE0FEA3E0FF240EF5827A
:10713000E43EF583E0900A97F0EF240FF582E43EF9
:10714000F583E0900AABF0900AA0E0FCE4124E0355
:107150007B007A2079F67844124BDAC004C005C06F
:1071600006C007900A96E0FCE4124E03A804A905A5
:10717000AA06AB07D007D006D005D004124CE31204
:107180004E3712B39B900A96E0FCE4124E0312A90C
:1071900007900A9EE0900AA8F0900AADE0900AA13C
:1071A000F0900A99E0900AA3F0900AAAE0FCE41299
:1071B0004E03E4FBFA79C87842124CE3900AA41219
:1071C000514C900AAEE0900AA9F0900AACE0900A07
:1071D000A2F022906564E0FD7C0020E0030273A32E
:1071E000906566E0FEE42DFDEC3EFCFEAF05ED246F
:1071F00010FFEE34AA900A09F0A3EFF0900B82E0A2
:10720000FEA3E0FF900A09E0FCA3E0FDC39FFFECB2
:107210009EA3F0A3EFF0EC124DFE7B177AB779D165
:107220007839124BDA124E37900A0DEEF0A3EFF0D8
:10723000900A0BE0FCA3E0FDEC124DFEE4FBFAF932
:10724000783F124BDA124E37900A09E0FDA3E09026
:107250000B82CDF0A3EDF0900A0EE02FFF900A0D07
:10726000E03E900B808FF0124EF5D3900B81E094AE
:10727000E8900B80E0943F4007743FF0A374E8F07F
:10728000C3900B81E0940C900B80E0943A5007740B
:107290003AF0A3740CF0900B85E07002A3E0700349
:1072A000027398900B84E06032E4900B80F0A3F0BE
:1072B000900B84E014F0600302739812B4D0EF5482
:1072C000FEFF12B4CA900B80743DF0A374F4F07DFD
:1072D000017F0C7E00128034027398900B8574FF3E
:1072E000F5F0124EF5900A0BE0FEA3E0FFC3EE644A
:1072F000809480500FC3900B88E09FF0900B87E044
:107300009EF08011900A0BE0FEA3E0FF900B87EE49
:107310008FF0124EF5900B87E0C313FEA3E013FF2E
:10732000900B87EEF0A3EFF0C39402EE940050149C
:10733000A3E07002A3E06025900B8974FFF5F012C2
:107340004EF58019D3900B88E09407900B87E0945A
:1073500000400A900B89E475F001124EF5D3900BB2
:107360008AE09432900B89E09400402CE4900B87E3
:10737000F0A3F0A3F0A3F0900B8474C8F0A3740BF7
:10738000F0A374B8F012B4D0EF4401FF12B4CA7D78
:10739000017F0D7E00128034900B80E0FEA3E0FFA1
:1073A00012B350227B007A4079807D0C7C0012B3AE
:1073B0008C904082741AF07B007A4079847D027C44
:1073C0000012B38C9040867418F07B007A40798864
:1073D0007D017C0012B38C90408A7418F07B007A97
:1073E00040798C7D0B7C0012B38C90408E7419F028
:1073F0007B007A4079907D5F7C0912B38C9040923B
:107400007419F07B007A4079947DBF7C5D12B38C57
:107410009040967419F07B007A4079987DE77C0360
:1074200012B38C90409A741BF09043007406F09055
:1074300042007452F07B0C7A01790F12B42290460C
:10744000A1EFF07B007A4279127D177C3312B38C66
:107450009042107405F0E0FFE47FC87E32FDFC909E
:107460000A0812514C900A08125134D3EF9400EEDE
:1074700094004029904210E054806021E47FE07E37
:1074800001FDFC12AB00900A0812513474FFFBFAA4
:10749000F9F8124F40900A0812514C80C8900A081F
:1074A000125134EF4E70057F0112B50A904210E080
:1074B0004440F07B007A4279227D147C0C12B38C1C
:1074C0009040007401F07B007A4279207D517C125B
:1074D00012B38CE4900A0CF07F19FEFDFC900A08B0
:1074E00012514C900A08125134D3EF9400EE9400DC
:1074F000403B900A0CE0FF64036032904225E05468
:1075000001FEEF25E04E5403900A0CF0E47FE07E8C
:1075100001FDFC12AB00900A0812513474FFFBFA13
:10752000F9F8124F40900A0812514C80B6900A08A0
:10753000125134EF4E70057F0312B50A7B007A407A
:1075400079047D007C0112B38C9040047407F090A4
:107550004006E4F09040087448F0904004E4F09055
:107560004009F09040017402F09043A2E0447FF0A3
:10757000227B007A4679E812B422EF4405FD7B00B5
:107580007A4679E812B42E1288DA7B007A7679008E
:107590007D047C0012B0DE7CBF7DB07B007A767902
:1075A000087F047E0012AE957CBF7DB47B007A76A6
:1075B00079107F047E0012AE957B007A7679187D73
:1075C000047C0012B0DE7CBF7DB87B007A76792027
:1075D0007F047E0012AE957CBF7DBC7B007A7679FD
:1075E000287F047E0012AE957CBF7DC07B007A763A
:1075F00079307F047E0012AE957B007A7679387DF3
:10760000047C0012B0DE7B017A50790312B422EFC1
:107610004402FD7B017A50790312B42E7B017A502B
:10762000791312B422EF4402FD7B017A50791312D0
:10763000B42E9043A0E04440F09043C2E04410F0E8
:107640007B087A1F79ECC003C002C0017B007A512D
:107650007902900A0D12516DD001D002D0037F083B
:107660007E0012ABE17B087A1F79F4C003C002C030
:10767000017B007A5179C0900A0D12516DD001D072
:1076800002D0037F0A7E0012ABE17CBF7D927B00BB
:107690007A5179F07F0A7E0012AE957CBF7D9C7B8B
:1076A000007A5179107F0A7E0012AE957CBF7DA6CC
:1076B0007B007A5179207F0A7E0012AE959044F4C7
:1076C0007401F0904322E04408F09046ECE0C3944B
:1076D000055006904689743AF090480074F1F01213
:1076E00073A490480074B1F012B0227B007A437901
:1076F000A0C00179B0900A0D12516DD0017F0E7EAD
:107700000012ABE19043B0E054FDF022900A40EF4C
:10771000F0ED60030277C3E0FD24CEF582E4340986
:10772000F583E075F008A42400FEE5F03478900AB3
:1077300041F0A3CEF0ED25E024BCF582E43409F558
:1077400083E0FEA3E024E0FDEE34FFFC900A41E07C
:10775000FEA3E0AA06F97B0112B38E900A40E0FD79
:1077600024CEF582E43409F583E075F008A42404FE
:10777000FEE5F03478900A41F0A3CEF0ED75F00309
:10778000A424A1F582E43409F583125164E924208C
:10779000FFE43AFEE43BFDE433FCEFEEE4AD07AC7E
:1077A00006900A41E0FEA3E0AA06F97B0112B38E1F
:1077B000900A40E024E1F582E43409F5837401F095
:1077C00002784B900A40E024CEF582E43409F58338
:1077D000E075F008A42400FEE5F03478900A41F04A
:1077E000A3CEF0900A41E0FEA3E0AA06F97B017D5A
:1077F000027C0012B38E900A40E0FD24CEF582E4B4
:107800003409F583E075F008A42404FEE5F034782B
:10781000900A41F0A3CEF0ED75F003A424A1F58207
:10782000E43409F583125164E9241EFFE43AFEE4CE
:107830003BFDE433FCEFEEE4AD07AC06900A41E01B
:10784000FEA3E0AA06F97B0112B38E900A40E0FF86
:1078500024CEF582E43409F583E0FE74EA2FF58244
:10786000E43409F583E075F010907019125158EE68
:10787000F022900B7CE07002A3E0601E900B7C7401
:10788000FFF5F0124EF5900B7CE07002A3E0700A59
:1078900012B4D0EF547FFF12B4CA900B7BE06004A7
:1078A00014F08016900B77E0FF900B7EE06F600A7B
:1078B000900B7A7401F0A374C8F0900B75E014700B
:1078C000030279571470030279A824026003027935
:1078D000D512B4C4EF30E407900B76E004F02290A8
:1078E0000B76E0FFC39455402BEFD3947350259053
:1078F0000B757401F0A37414F0900B7EE0900B777D
:10790000F0A3F0A37404F012B4D0EF54DF4440FFAE
:1079100012B4CA22E4900B76F0900B7AE0700990D2
:107920000B7FE070030279D512B4D0EF4480FF12D0
:10793000B4CA900B7FE0600C900B7C7403F0A374CE
:10794000E8F08009900B7CE4F0A3740AF0E4900B5B
:107950007FF0900B7AF022900B76E014F0E07075D7
:10796000900B79E0603212B4D0EF4420FF12B4CA19
:10797000900B78E0FF30E308900B767408F08006F7
:10798000900B767403F0EF25E0900B78F0A3E014F1
:10799000F0900B757402F02212B4D0EF549FFF12D6
:1079A000B4CAE4900B75F022900B76E014F0E0700E
:1079B00024900B79E06008900B767403F0800690B9
:1079C0000B76740AF012B4D0EF54DFFF12B4CA90F1
:1079D0000B757401F022E4900A09F0900A09E0FFA7
:1079E000C394035073EFB4021D2404F582E43409F8
:1079F000F583E0FF900904E0FBE4900A18F07D01B4
:107A0000FC1299308029900A09E0FE2404F582E4F2
:107A10003409F583E0FF74052EF582E43409F5831B
:107A2000E0FB900A187404F07D017C0012993090FC
:107A30000A09E02404F582E43409F583E0FF7B01C0
:107A40007A09790AE9EAE4AB017D437C64129A255C
:107A5000900A09E004F08083900BC6E0FF12AE6C40
:107A6000900BC6E0FF900904E0FD12B0C5E4900A57
:107A700009F0900A09E0FFC394034003027AFEEF85
:107A800004A3F0C394034002E4F0900A09E0240C3C
:107A9000F582E43409F583E0FF900A0AE0240CF54E
:107AA00082E43409F583E0FB900A187402F07D80CB
:107AB0007C01129930900A09E0F975F0809000037A
:107AC000125158E92583F583FEE582EEE4AB82AAE4
:107AD00006C002C003740C29F582E43409F583E082
:107AE000FF7B017A09790AE9EAE4AD01AC02D0032F
:107AF000D002129A25900A09E004F0027A72900BE3
:107B0000C5E0FF12AE6C900BC5E0FF90090CE0FDE4
:107B100012B0C5900BC5E0FF7D0112AA4C900BC6B8
:107B2000E0FF7D0112AA4C22410BA001410B9B00FA
:107B3000410B9C0041090300440AD4713D0A0744EB
:107B40000AE4713D0A07410ABA00410ABB00440A2F
:107B5000C400000000410BB900410BB800410BB656
:107B600000410B7500420B803DF4420B8200004146
:107B70000B8400420B850BB8420B870000420B8937
:107B80000000410B3300410B3400410B3500410B29
:107B90003601410B3703440B3841900000440B3C45
:107BA0003F000000410B4000410B4100440B4249A3
:107BB000927C00410B4600410B4700410B487F413E
:107BC0000B4900410A9800410A8700410A89024195
:107BD0000A8B03410A8C00410A8D80420B950000FC
:107BE000410B9700410B98004109D7004109F30C64
:107BF000490998000004040000000000410BC00087
:107C0000410BC400410BC5FF410BC6FF410BC7FF31
:107C1000410BC8FF410BC9FF410BCAFF410BCB0011
:107C2000410BCC00410BA680410BA57F440BA1006A
:107C30000000FF430BAD000000440B60023366C43C
:107C4000440B5B0000903C410B5F25440B65481ED4
:107C50000000460BA7008102080600410BCDFF4142
:107C60000BCEFF410BCF00420B060180420B08FFF9
:107C70007F420B04010000900A0A12516D900A091C
:107C8000EFF024FFFFE434FFFEEFC4F8540FC868A0
:107C9000FFEEC454F048900A0FEFF02488FFE4345C
:107CA00060FAA9077B01900A1112516D900BBEE09A
:107CB00030E008900A107491F08006900A1074D198
:107CC000F0900A0DE0FCA3E0FDECFF900A09E0FE55
:107CD00075F00B900938125158E04FFF900A0FE0F1
:107CE000FB240CF582E43460F583EFF0ED740D2B8A
:107CF000F582E43460F583EDF074EA2EF582E43425
:107D000009F583E0FF12AE43900A09E024CEF58224
:107D1000E43409F583E0FBFF900A0DE0FCA3E0FDED
:107D2000900A10E0900A18F0129930900A09E024A5
:107D3000CEF582E43409F583E0FF900A0A1251641B
:107D4000E9EAE4AD01AC02C005900A11125164E900
:107D5000EAE4AB01D005129A25900A09E024EAF57D
:107D600082E43409F583E0FF12AE6C900A09E0FE6C
:107D700024EAF582E43409F583E0FF74CE2EF5821F
:107D8000E43409F583E0FD12B0C5900A09E024EA65
:107D9000F582E43409F583E0FF7D0112AA4C900AD4
:107DA00009E075F00B900936125158E4F0900A0F73
:107DB000E02480F582E43460F583E04401F0229011
:107DC0000A1012514C900A287401F012B15812B2E4
:107DD00032900A29EFF0E4FB7D017F5A128BA690C6
:107DE0000A27EFF0900A14E0FF7B017D01128BA6B9
:107DF000900A27EFF0900A15E0FF7B027D01128BBD
:107E0000A6900A27EFF0900A16E0FF7B037D01128F
:107E10008BA6900A27EFF0900A1BE0FF7B047D0100
:107E2000128BA6900A27EFF0900A1CE0FF7B057DDD
:107E300001128BA6900A27EFF0900A1DE0FF7B0746
:107E40007D01128BA6900A27EFF0900A1EE0FF7BBF
:107E5000087D01128BA6900A27EFF0900A1FE0FF21
:107E60007B097D01128BA6900A27EFF0900A24E08F
:107E7000FF7B0A7D01128BA6900A27EFF0900A265D
:107E8000E0FF7B0F7D01128BA6900A27EFF0900A8E
:107E900025E0FF7B0B7D01128BA6900A27EFF0E413
:107EA000FFFE7DC87C42900A17125140124BDA1235
:107EB0004E377B0D7D01128BA6900A27EFF0900ABA
:107EC00010125134124E377B0C7D01128BA6900A92
:107ED00027EFF07B007A40791C7846900A201251F7
:107EE00034124CE3124E377B0E7D01128BA6900AA2
:107EF00027EFF0900A29E0FF12B14022C0E0C0F065
:107F0000C083C082C085C084C086758600C093755A
:107F10009300C0D075D000C000C001C002C003C033
:107F200004C005C006C007900A377401F0A3E4F04E
:107F300090609FE0900A35F0E090609FF0900A35E5
:107F4000E0FF700302801154017003027FF9900A70
:107F500038E0FF7E002482FDEE34608D82F583E000
:107F6000900A36F0E05401607BA3E0FD75F00BA4AD
:107F70002439F582E43409F583E054806066EF2407
:107F800080FFEE34608F82F583E054FEF0ED25E053
:107F900024BCF582E43409F583E0FEA3E0D3942009
:107FA000EE9400400C900A37E0FFE4FD12770C805D
:107FB00010900A37E024E1F582E43409F583740176
:107FC000F0900A37E075F00BA4243AF582E4340906
:107FD000F583E0FF900A38E0240EFDE434608D82E2
:107FE000F583EFF0900A36E0FF900A38E02482FD36
:107FF000E434608D82F583EFF0900A38E02410F0CD
:10800000900A37E004F0900A35E0FFC313F0027FD6
:108010003DD007D006D005D004D003D002D001D087
:1080200000D0D0D093D086D084D085D082D083D0D9
:10803000F0D0E032900A0FEEF0A3EFF0A3EDF012D3
:10804000B497900A13EFF012B451900A14EEF0A313
:10805000EFF0900A0FE0FCA3E0FD6F7002EC6E7091
:10806000030281639043A2E05401900A12F0A3E05E
:10807000703BA3E0FEA3E0FF4E6004ED4C702EEFDA
:108080004E70117B027A40798012B38E904082E06C
:1080900054BFF022904082E04440F07B027A407965
:1080A00080900A0FE0FCA3E0FD12B38E22900A122A
:1080B000E06053904001E4F090401004F0904014D0
:1080C000E4F0904008E0547FF0904082E054086073
:1080D0000A900A0FE07002A3E0702B7B027A4079CD
:1080E00002900A14E0FCA3E0FD12B38E90400174EC
:1080F00007F0904001E0540170F89043A2E054FE74
:10810000F0904001E4F09043A2E05401602F7B0224
:108110007A407902900A0FE0FCA3E0FD12B38E9042
:108120000A11E060047F0280027F00EF440190406A
:1081300001F0904001E05401602980F6227B027A30
:10814000407980900A0FE0FCA3E0FD12B38E9043CB
:10815000A2C083C082E0FF900A12E0FEEF4ED08200
:10816000D083F022EA494B6010E4900B8BF0900B27
:108170008EF0900B9012516D22900B8EE0147003D4
:108180000282131470030282441470030282762464
:10819000036003028292900B90125164900B8BE06B
:1081A00029F9E43AFA124EB87004900B8BF0900B58
:1081B00090125164900B8BE0FF04F0E92FF9E43A40
:1081C000FA124EB8FFC39461400AEFD3947A500478
:1081D00074E02FFFEFC394224006EFD3945A400877
:1081E000900B8C7407F08009EF90C17693900B8C04
:1081F000F0900B8CE0FF5407A3F070037406F0EFCF
:10820000B40710900B8F7402F0E4900B8DF0A37400
:1082100003F022900B8CE0FF30E708900B8F740383
:10822000F08006900B8F7401F0EF25E0900B8CF03E
:10823000A3E014F012B4D0EF54FEFF12B4CA900BB6
:108240008E7402F0900B8FE07025900B8E7403F00B
:10825000900B8DE07008900B8F7402F08005E49015
:108260000B8FF012B4D0EF4401FF12B4CA80079014
:108270000B8FE014F022900B8FE07010900B8DE0CC
:108280007003A3F022900B8E7401F022900B8FE00C
:1082900014F02275930078007583467582E8E044F7
:1082A00001F00090480074C0F07581099076BCE43C
:1082B000F0A3F0A3F0A3F0907010F0907019F0907C
:1082C0007020F09076007410F0907604E4F0A3F043
:1082D000A3F0A3F09078007800087400F0A374086D
:1082E000F0E8B8040274FFA3F0A37422F0A374BCF6
:1082F000F0A37476F0A3E4F0A3E81475F008A4F0FA
:10830000A3B804D59070107401F0907014F07E70D2
:108310007F18124204907010F0EA900B64F0024251
:108320001175081F7509FD12757112AD9902836BE5
:10833000028FDEE493A3F8E493A34003F68001F2F6
:1083400008DFF48029E493A3F85407240CC8C3334E
:10835000C4540F4420C8834004F456800146F6DF1D
:10836000E4800B0102040810204080907B28E47E0A
:10837000019360BCA3FF543F30E509541FFEE49312
:10838000A360010ECF54C025E060A840B8E493A3D9
:10839000FAE493A3F8E493A3C8C582C8CAC583CA04
:1083A000F0A3C8C582C8CAC583CADFE9DEE780BEBC
:1083B000C0E0C0F0C083C082C085C084C08675861E
:1083C00000C093759300C0D075D000C000C001C03C
:1083D00002C003C004C005C006C007900A3E740175
:1083E000F0A3E4F012B4FAEF547F900A3DF012B516
:1083F00000EF5403900A3CF0900A3CE070030284C2
:10840000A9900A3DE0FF607D54016061900A3FE061
:10841000FD7C002482FFEC34608F82F583E0FF5402
:1084200001704A900A3EE0FF24E1F582E43409F548
:1084300083E07039ED2485FBEC34608B82F583E4B6
:10844000F0EFC43354E024FEFEED2484FDEC3460F0
:108450008D82F583EEF07D0112770C900A3FE024C7
:1084600080FFE434608F82F583E04401F0900A3F9E
:10847000E02410F0900A3EE004F0900A3DE0FFC3D3
:1084800013F0028401900A3CE0FFC313F070030272
:1084900083F8900A3F7470F0900A3E7408F0900AD6
:1084A0003CE05401A3F00283F8D007D006D005D0F9
:1084B00004D003D002D001D000D0D0D093D086D049
:1084C00084D085D082D083D0F0D0E03212B2329006
:1084D0000A0BEFF09043A5E04401F09043B5E0446F
:1084E00001F090609D7401F090600904F0906010BC
:1084F000E0547FF0E4FFFE12AD6C904394E054F939
:10850000F0906012E054DFF0904394E04401F07F7B
:10851000017E0012AD6C7F287E0012AD6C9051F888
:10852000E0547FF0E054BFF0904394E04402F07FC9
:10853000027E0012AD6C904394E04404F09060849D
:10854000E4F0A3F0FFFEC3EF9409EE940050217411
:10855000CE2FF58274093EF58374FFF074D82FF5A1
:108560008274093EF58374FFF00FEF70010E80D620
:10857000900A0BE0FF12B1407CA37D817F17129E11
:108580002A7D077F1712A7F17CAD7D6A7F15129EA9
:108590002A7D077F1512A7F17C857DD97F18129E51
:1085A0002A7D077F1812A7F17CA27DDF7F01129E32
:1085B0002A7D077F0112A7F17CA37D307F02129EE6
:1085C0002A7D077F0212A7F17C7E7DFC7F16129E1A
:1085D0002AE4FD7F1612A7F122C0E0C0F0C083C0DC
:1085E00082C085C084C086758600C093759300C024
:1085F000D075D000C000C001C002C003C004C005D7
:10860000C006C007906028E09009F4F0E0FF541025
:1086100070030286BBA37401F0EF548060219009BF
:10862000F4E0540F64016005A3E4F08031129E91E0
:10863000900931E0548060269009F5E4F0801F90A5
:1086400009F4E05440600512B03F80129009F4E054
:108650005420600512AEDF80059009F5E4F0900922
:10866000F5E06057906028E09009F4F0E0548070E5
:108670004A900934E0FF90092CE04F9009F4F0E0B3
:10868000FF906029F0E0FEEF6E7030900931E090CD
:1086900009F5F0906028E054809009F4F0E0700F44
:1086A000900931E0906028F0E0540F9009F5F090C7
:1086B0000931E0FF9009F5E0B507D0D007D006D02A
:1086C00005D004D003D002D001D000D0D0D093D0B8
:1086D00086D084D085D082D083D0F0D0E032900B89
:1086E00098E01460511470030287781470030287B5
:1086F000A3240360030287DB900B99E06007A3E0EB
:1087000060030287DB900AABE014600F047016125E
:10871000B4D0EF4460FF12B4CA800A12B4D0EF5450
:10872000F7FF12B4CA7F0112AE1A900A0BEFF09055
:108730000B987401F022900BB9E06035900B99E032
:108740006004A3E070247F0112AE1A900A0BEFF0D0
:1087500012B4D0EF4404FF12B4CA900B9FE0600A39
:1087600012B4D0EF4480FF12B4CA900B987402F098
:1087700022900B987403F022900B99E0601EA3E006
:10878000601A12B4D0EF54FBFF12B4CA900B9FE0F2
:10879000600A12B4D0EF547FFF12B4CA900B9874E1
:1087A00003F022E4FF12AE1A900A0BEFF06026905D
:1087B0000AABE014600F04701612B4D0EF54DFFF60
:1087C00012B4CA800A12B4D0EF4408FF12B4CAE44B
:1087D000900B98F022900B987401F022E49009FF1E
:1087E000F0906004E0547FF924FFFFE434FFFEEFD3
:1087F000C4F8540FC868FFEEC454F048AD01E9D383
:10880000940050030288D4ED940940030288D4ED0B
:1088100075F00BA42437F582E43409F583E054FEA7
:10882000F0ED75F00BA42438F582E43409F583E407
:10883000F0EFFB7A00240CFDEA34608D82F583E0D2
:10884000547FF0E975F00BA42436F582E43409F581
:1088500083E054FDF0E975F00BA42439F582E4348B
:1088600009F583E054806032E975F00BA42436F5F5
:1088700082E43409F583E0B40110EB240EFDEA3400
:10888000608D82F583740CF08042EF240EFDE43499
:10889000608D82F583740DF08032AE01E975F00BC6
:1088A000A42436F582E43409F583E0B40110EF2402
:1088B0000EFDE434608D82F5837408F0800EEF24A1
:1088C0000EFFE434608F82F5837409F012B12890B2
:1088D00009FFEFF09009FFE0FF22E4FFFEFDFC90AE
:1088E0000BBA12514C9076007410F0907010740115
:1088F000F0907019E4F07B027A78F97DD87C02124E
:10890000B38E9078027401F0A374A3F07B027A789E
:108910007904C003C002C0017BFF7ABC79BAE9EADE
:10892000E4AD01AC02D001D002D00312B38E7B02C1
:108930007A7879067D087C7812B38E7B027A767914
:10894000047D107C0012B38E7B027A767906E4FDFA
:10895000FC12B38E907029740BF0907039740DF086
:108960009070597413F09070697422F0907079745B
:108970002BF09070147401F0907018E0540170F8AE
:10898000907028E0540170F8907038E0540170F84D
:10899000907058E0540170F8907068E0540170F8DD
:1089A000907078E0540170F87B087A087940C00331
:1089B000C002C0017B017A517910900A0D12516DED
:1089C000D001D002D0037F067E0012ABE122900AD4
:1089D0000A12516D900A09EFF024FFFFE434FFFE04
:1089E000EFC4F8540FC868FFEEC454F048EF248871
:1089F000FFE43460FAA9077B01900A1012516D90D0
:108A00000BBEE030E108900A0F7492F08006900AE5
:108A10000F74D2F0900A09E024EAF582E43409F5F3
:108A200083E0FF12AE43900A09E024CEF582E434DD
:108A300009F583E0FBFF900A0DE0FCA3E0FDA3E055
:108A4000900A18F0129930900A09E024CEF582E4D9
:108A50003409F583E0FF900A10125164E9EAE4ADAD
:108A600001AC02C005900A0A125164E9EAE4AB01C4
:108A7000D005129A25900A09E024EAF582E4340927
:108A8000F583E0FF12AE6C900A09E0FE24EAF5825D
:108A9000E43409F583E0FF74CE2EF582E43409F561
:108AA00083E0FD12B0C5900A09E024EAF582E434BF
:108AB00009F583E0FF7D0112AA4C22900ACEE0FD69
:108AC000C41354072404900A20F0ED541FFF25E03E
:108AD00025E0FF900ACFE0FEC4131354034F049027
:108AE0000A21F0EE543FC4F8540FC868FFE4C454A0
:108AF000F048FE900AD0E0FDC4540FFDEEEF4DFFAC
:108B0000900A22EEF0A3EFF0900AD0125134EFEE6B
:108B1000EDEC540FFCE4124DF9E4FBFA7980784D4A
:108B2000124CE3C004C005C006C007900A22E0FC56
:108B3000A3E0FDE4124DFED003D002D001D000121C
:108B40004AE9900A2412514CE4900ACEF0900A218E
:108B5000E0FCE4124E03C004C005C006C007900A42
:108B600020E0FCE4124E03D003D002D001D000126A
:108B70004BDAC004C005C006C0077FEC7E917DE4DF
:108B80007C42900A24125140124BDAD003D002D01A
:108B900001D000124CE3E4FBFAF9784A124BDA12E6
:108BA0004E37128D6F22900A2AEFF0A3EDF0A3EB5F
:108BB000F012B286900A2BE0C394804003028C7FAF
:108BC000A3E0C394104003028C7F12AFC7EF600391
:108BD000028C77900A2D74FFF0900A2CE0FD7C0047
:108BE0007B017A0A792A900A347401F07F40129648
:108BF0005EEF6407707C904722E0540260F8904773
:108C000022E054026009E0FF1313543FFF80027F0B
:108C1000FFEF7004900A2DF0900A2DE0704E900A3C
:108C20002BE0FD7C00900BB0E0FBA3E0900A32F05B
:108C30007F4012A28BEF6407702A900A2D74FFF018
:108C4000904722E0540260F8904722E05402600905
:108C5000E0FF1313543FFF80027FFFEF7014900A70
:108C60002DF0800E900A2D74FFF08006900A2D746E
:108C7000FFF012B43A800E900A2D7404F080069032
:108C80000A2D7401F0900A2DE0FF227BFF7AB17962
:108C900010900A0912516D7AB17914900A0C125190
:108CA0006D7AB1791A900A0F12516D7AB1792090CC
:108CB0000A1212516D900BA0E0146041046003028F
:108CC0008D6E12B4C4EF5408FF900B93F0A3E06FC5
:108CD0007003028D6E900B93E0A3F0A374FFF5F088
:108CE000124F0B45F06003028D6E900B9504F0A3BC
:108CF000742CF07B007A00790012816422900B9D25
:108D0000E06015900B9EE0700F900A9FE070099054
:108D10000A09125164128164900B9DE06015900B5A
:108D20009EE0600F900A9FE07009900A0C12516457
:108D3000128164900B9DE06015900B9EE0700F9087
:108D40000A9FE06009900A0F125164128164900B2F
:108D50009DE06015900B9EE0600F900A9FE0600917
:108D6000900A12125164128164E4900BA0F02290D8
:108D7000FFFC1251E212514C90FFF61251E27B01BE
:108D8000900006125206A982AA838508838509826B
:108D900012516D7B0190000A125206A982AA83909B
:108DA000000312520612516D900003125206125126
:108DB00064E92403F9E43AFA124EB8FF8508838582
:108DC0000982125164EF124ED19000031252061222
:108DD0005164E92402F9E43AFA124EB8FF85088397
:108DE000850982125164E92401F9E43AFAEF124E3E
:108DF000D1900003125206125164E92401F9E43AB9
:108E0000FA124EB8FF850883850982125164E9245D
:108E100002F9E43AFAEF124ED19000031252061210
:108E20005164124EB8FF850883850982125164E9A6
:108E30002403F9E43AFAEF124ED1900006125206DA
:108E400012513490000E1251E222900A097402F07D
:108E5000900BB6E014603614604A24F86075147004
:108E600003028F12240B6003028F21900BB9E07074
:108E700003028F21900BB8E06003028F21900BB6A4
:108E800004F012B4D0EF54FDFF12B4CA22900B9D2F
:108E9000E0700A12B4D0EF4404FF12B4CA900BB6CB
:108EA0007402F022900B9DE0700C12B4D0EF54F7D6
:108EB000FF12B4CA8012900AABE06401600A12B4D7
:108EC000D0EF54F7FF12B4CA900BB6740AF0A37433
:108ED00001F022900BB9E06026900BB7E014F0E0AF
:108EE000703F12B4D0EF30E008900BB77464F0809C
:108EF00006900BB77450F0EF6401FF12B4CA22124F
:108F0000B4D0EF54FA4408FF12B4CA900BB6740BF5
:108F1000F02212B4D0EF4402FF12B4CAE4900BB6B0
:108F2000F022E4FF7E01FDEDC394804003028FB682
:108F3000ED2480FBE434608B82F583740CF0ED2427
:108F400081FBE434608B82F583741DF0EE75F00BC9
:108F5000A4243AF582E43409F583E06043EE75F029
:108F60000BA42439F582E43409F583E054806010C1
:108F7000ED240EFBE434608B82F583740CF0802EBC
:108F8000ED240EFBE434608B82F5837408F0EE145C
:108F9000FC7401A804088002C333D8FC4FFF800E84
:108FA000ED240EFBE434608B82F5837480F00E7444
:108FB000102DFD028F2790608C7455F09060BC746A
:108FC00020F0A3E4F090608E7406F0A3EFF09060C0
:108FD0009C74D0F07450F090600A74FFF0221298E4
:108FE0002A126FF9129BFD1271D312B4C4EF540808
:108FF000FF900A08F0900B9BE06F60E8A3E0FF048D
:10900000F0EF125182901E00903A01903F0290447E
:1090100003904904904E05905A060000907B900BF7
:109020009DE0700512787280BB900A9FE070B59049
:109030000B9FE070AF12787280AA128E4A80A51240
:10904000A0DE80A0125754809B12421A809612B460
:10905000C4EF20E28F12B45B808A900B9DE0600326
:1090600012A237900BB9E06003028FE4900B9DE0F1
:109070007003028FE4128C8B028FE412ADC5E49072
:109080000B9CF0900A08E0900B9BF0028FE422907A
:1090900009FF12516DE4900A03F09009FF12516428
:1090A000E94A4B700302913F9009FF125164742208
:1090B000124ED19009FF125164E92401F9E43AFA01
:1090C0007403124ED1900A0214F0900A02E0C39485
:1090D00022506CA3E0FFE4E42FFFE43401FEE4340B
:1090E0000CFDE433A907AA06AB0512B422900A04CA
:1090F000EFF0900A03E004F0A3E0FFC4540F90C126
:10910000D193FE9009FF125164900A02E0FD29F903
:10911000E43AFAEE124ED1EF540F90C1D193FFED25
:109120002402FDE433FC9009FF125164E92DF9EAB1
:109130003CFAEF124ED1900A02E02404F0808B2218
:10914000900A0912516D900A0CEDF012B286900A45
:109150000CE0C3948040030291E212AFC7EF707A33
:10916000900A0D74FFF0900A09125164900A12E4FB
:10917000F0A37410F07F40129DBFEF6407706990F8
:109180004722E0540260F8904722E054026009E070
:10919000FF1313543FFF80027FFFEF7004900A0D0E
:1091A000F0900A0DE0702B900A0CE0FD7C00900B13
:1091B000B0E0FBA3E0900A32F07F4012A28BEFB444
:1091C0000708900A0D7407F0801E900A0D74FFF0D6
:1091D0008016900A0D74FFF0800E900A0D7404F052
:1091E0008006900A0D7401F0900A0DE0FF22E490D1
:1091F0000A10F0A3F0FBFA7D017F0112A5F0E490C4
:109200000A10F0A3F0FBFA7D017F0112A63AE49068
:109210000A10F0A3F0FBFA7D017F0112A684E4900E
:109220000A0BF0900A0BE0C39403501A12AAC390E1
:109230000A0BE02407F582E43409F583EFF0900A85
:109240000BE004F080DDE4900A0BF0900A0BE0C321
:109250009403501A12AAC3900A0BE0240FF582E47B
:109260003409F583EFF0900A0BE004F080DDE49020
:109270000A0BF0900A0BE0C39403501A12AAC39091
:109280000A0BE02400F582E43400F583EFF0900A45
:109290000BE004F080DD22E4900A03F090091FE067
:1092A000FF900932E48FF0124EF5D3900917E09445
:1092B00000900916E094004045900A03E0FF9408EE
:1092C000503C900918125164124EB8FEEF2400FD74
:1092D000E434608D82F583EEF0900918125164E950
:1092E0002401F9E43AFA90091812516D900A03E04A
:1092F00004F090091674FFF5F0124EF580AC900959
:109300001FE064086009900A03E0D39400401590C0
:10931000092CE06480F0900931740FF090092D74ED
:1093200002F0800A9009317402F090092DF0900A41
:1093300003E0FF90091FF0900934EFF022900A0932
:10934000EFF0E4A3F0A3F0A3F0A3F0EF24FD60306E
:10935000047058900A0AE0FAA3E0FBA3E0FFA3E040
:10936000900A12CFF0A3EFF07D017F2012A7189092
:109370000A09E024EAF582E43409F583EFF0802B52
:10938000900A0AE0FAA3E0FBA3E0FFA3E0900A1230
:10939000CFF0A3EFF07D017F2012A6CE900A09E066
:1093A00024EAF582E43409F583EFF0900A09E0FF3E
:1093B000D394004029EF9409502412AAC3900A09BB
:1093C000E024CEF582E43409F583EFF012AAC390CD
:1093D0000A09E024D8F582E43409F583EFF02290FD
:1093E0000A1812516DAC077D02900A18125164E9F7
:1093F0004A4B700302947D900BC1E0B4100F90496A
:10940000D9E054087003FD801A7D018016900BC1CD
:10941000E0B4600FE4FD9044D97480F0900B71E0EB
:1094200054F7F0ED7057900BC17449F0E4900B6C59
:10943000F0900A1BE0900B6FF0900A1812516490A4
:109440000B7212516D900A1CE0FF900B6EF0900BA6
:1094500071E054FEF0AE04EE25E044019049D8F0EE
:10946000EF5401600CA37412F09049D77404F0809B
:10947000069049D97401F09044C17480F0AF052280
:10948000E49009FFF0906004E0547FFD24FFFFE4C6
:1094900034FFFEEFC4F8540FC868FFEEC454F04820
:1094A000EDD394004074ED9409506FED75F00BA46A
:1094B0002437F582E43409F583E04401F0ED75F0DA
:1094C0000BA42438F582E43409F583E4F0ED75F05B
:1094D0000BA42436F582E43409F583E04402F0AEAF
:1094E00005EE75F00BA42439F582E43409F583E028
:1094F00054806010EF240EFDE434608D82F5837497
:109500008DF0800EEF240EFFE434608F82F58374BB
:1095100089F012B1289009FFEFF09009FFE0FF22D7
:109520009044C97480F09049CAE0900BAAF0904929
:10953000DBE0900BABF09049DCE0900BACF0904995
:10954000DCE0FE9049DBE0FDEEED2401FFE43E901F
:109550000A0CF0A3EFF09049D6E054FEF0900A0C0C
:10956000E0FEA3E0FFE4FCFD12AB0012B232900A71
:109570000BEFF09043A5E054FBF09043B5E054FBB3
:10958000F0900A0BE0FF12B1409049D6E04402F09F
:10959000900BAAE0FF9049CAF0EFF0900BABE0907F
:1095A00049DBF0900BACE09049DCF09049D6E054F8
:1095B000EFF09044D97480F0900BC17410F02290B9
:1095C0000A2112516DAC077D02900A21125164E903
:1095D0004A4B700302965B900BC1E0B4100F9049A8
:1095E000D9E054087003FD801A7D018016900BC1EC
:1095F000E0B4600FE4FD9044D97480F0900B71E00A
:1096000054F7F0ED7055900BC17445F0E4900B6D7C
:10961000F0900A24E0900B70F0900A2112516490AF
:109620000B6912516D900A25E0FF900B6EF0900BC4
:1096300071E054FDF0AE04EE25E09049D8F0EF540F
:1096400001600CA37412F09049D77404F080069066
:1096500049D97401F09044C17480F0AF0522900A9A
:109660002FECF0A3EDF0A312516D900A2EEFF07DD8
:1096700007C3943F5009900A34E0C39420401190EE
:109680000A2EE0D3943F4070900A34E09410506862
:10969000904722E05402605C90472074B6F074D486
:1096A000F07401F0904722E054027044900A2EE0DA
:1096B000904720F0900A2FE0FAA3E0FBEA540190D3
:1096C0004720F0EBF0900A34E014904720F0E4FFDC
:1096D000900A34E0FEEFC39E5020900A311251648C
:1096E000E92FF9E43AFA124EB8904720F00F80E0E3
:1096F0007D0980067D0480027D01AF0522900A0B62
:10970000EFF0A3EDF09044C27480F0A37401F090E8
:1097100044C004F07404F090609E7406F09044C25B
:109720007440F090609C7450F07E837FB012AFA8BC
:1097300012B3B712B3D3E490092DF0900A0CE014E1
:10974000600B0470109060097402F0800E90600944
:109750007403F080069060097403F0900A0BE090A7
:10976000092EF0E4900930F090091EF0900922F0E3
:10977000900927F090092FF090091FF0906028744D
:1097800003F09060087480F0E47F01FEFDFC12ABF2
:10979000009060127404F022900A11EFF0C3940953
:1097A0005004E0FF80027F01900A12EFF0900A124D
:1097B000E0FF24CEF582E43409F583E0F4603174EF
:1097C000EA2FF582E43409F583E0FF12AE43900AF4
:1097D00012E024CEF582E43409F583E0FF12AB3BBE
:1097E000900A12E024CEF582E43409F58374FFF088
:1097F000900A12E024D8F582E43409F583E0FFF4FE
:10980000601312AB3B900A12E024D8F582E43409CD
:10981000F58374FFF0900A12E004F0E0C39409505D
:1098200008900A11E0640960842212B50612B2D5CC
:1098300012B2E8D2AF9044F474FDF0E47F64FEFD10
:10984000FC129F5B12AF4912B0AC129B89126DECF7
:10985000900A09EFF0600912952012B0AC12B29B89
:1098600012B3E1900A0AEFF0900A09E0600DA3E05C
:1098700060097BFF7AB0795B12A082900A09E060F0
:10988000097BFF7AB0796012A082900A0AE0600931
:109890007BFF7AB0796712A08212B36EEF60097B0A
:1098A000FF7AB0797012A08212B4D0EF54FEFF128A
:1098B000B4CA22900A0CEFF0A3EDF0E4900A10F085
:1098C000A3F0A3F0900A10E0FFC39402505FEF14DE
:1098D000602F0470EF900A0CE0900A0EF0900A0DD1
:1098E000E0900A0FF07B017A0A790E900A24740244
:1098F000F0E4A3F07F461295BF900A10E004F080D8
:10990000C312B004EF30E708900A10E014F0800AA8
:10991000EF30E106900A10E004F0900A1174FFF5B0
:10992000F0124EF545F0709C7F012280977F002257
:10993000900A15ECF0A3EDF0A3EBF0900A14EFF011
:10994000900A197401F0EFC39480505B900A15E0FF
:1099500054F0A37052900A14E075F008A42400FF9C
:10996000E5F03478FE900A1AF0A3EFF0AA06F97B2E
:1099700001900A15E0FCA3E0FD12B38E900A17E0F7
:10998000FF900A14E0FE75F008907802125158EF2B
:10999000F0900A18E0FF75F008EE90780312515825
:1099A000EFF0E4900A19F0900A19E0FF22900A15EE
:1099B000ECF0A3EDF0A3EAF0A3EBF0900A14EFF0C3
:1099C000900A197401F0EFC394185053900A14E0F0
:1099D00075F008A42404FFE5F03476FE900A1AF02E
:1099E000A3EFF0AA06F97B01900A15E0FCA3E0FDC5
:1099F00012B38E900A14E075F008A42406FFE5F077
:109A00003476FE900A1AF0A3EFF0AA06F97B0190D3
:109A10000A17E0FCA3E0FD12B38EE4900A19F0905F
:109A20000A19E0FF22900A15ECF0A3EDF0A3EAF08A
:109A3000A3EBF0900A14EFF0900A197401F0EFC351
:109A400094805053900A14E075F008A42404FFE5B4
:109A5000F03478FE900A1AF0A3EFF0AA06F97B0121
:109A6000900A15E0FCA3E0FD12B38E900A14E07595
:109A7000F008A42406FFE5F03478FE900A1AF0A35B
:109A8000EFF0AA06F97B01900A17E0FCA3E0FD12B3
:109A9000B38EE4900A19F0900A19E0FF22E4FF90D7
:109AA0006029E0540F24FEFEFD900932E48DF0128F
:109AB0004EF5D3900917E09400900916E094004009
:109AC0003EEED394004038EF2400FDE434608D82F4
:109AD000F583E0FD900918125164ED124ED1900902
:109AE00018125164E92401F9E43AFA900918125164
:109AF0006D0F1E90091674FFF5F0124EF580B3AF8E
:109B000006900934EEF090092CE06480F090093161
:109B1000740BF022900A1B12514C900A9FE0602AAD
:109B2000900AABE014600F04701612B4D0EF4460DA
:109B3000FF12B4CA800A12B4D0EF4408FF12B4CAAC
:109B40007F0112AE1A900A1FEFF0900B9DE0602C7F
:109B5000900BB9E06026900A98E0702012B4D0EF24
:109B60004404FF12B4CA900A987401F0900B9FE06D
:109B7000600A12B4D0EF4480FF12B4CA900A1B12DC
:109B80005134900AAF12514C22908000125134127D
:109B90008D6FE4124DF9E4FBFA7980784B124CE3B7
:109BA000900A0B12514C7FEC7E917DE07C42900A32
:109BB0000B125140124D80401E7FEC7E917DE87C5F
:109BC00042900A0B125140124D8060025009908061
:109BD00004E0D394034011E4FFFEFDFC900AD81288
:109BE000514CE4900BBEF022908000125134900A48
:109BF000D812514C908004E0900BBEF0227F0312EB
:109C0000B3FBEF6013900BBFE0701D7F0312A3D274
:109C1000900BBF7401F08010900BBFE0600A7F03CF
:109C200012AD0DE4900BBFF012B3EEEF60057F03B1
:109C300012A3D27F0312B31FEFB4011712B17090B9
:109C40000A0D7401F0A37480F07F031289CE7F03A4
:109C500012A3D27F0212B31FEFB4011212B1879088
:109C60000A0D7401F0A37480F07F02127C7722E465
:109C7000900A10F0A3F0FBFA7D017F0112A5A6E483
:109C8000900A10F0A3F0FBFA7D017F0112A55CE4BD
:109C9000900A0BF0900A0BE0C39403501A12AAC367
:109CA000900A0BE02404F582E43409F583EFF09088
:109CB0000A0BE004F080DDE4900A0BF0900A0BE060
:109CC000C39403501A12AAC3900A0BE0240CF58225
:109CD000E43409F583EFF0900A0BE004F080DD2214
