:400000000226D6008F828E83E0540100000070F82278FFE4F6D8FD02273B900001EFF0E4F541F54275430AF544C200F545F546123E0FD2AF9044F474FDF0E4F53D754C0084
:40004000754D00754E39900001E0FF70067EFF7FFF80008F4F7B017A0079027D2C7C011227C78F40900001E060021543E5436004E54070C9E5406003020652C3E53A9407A9
:40008000E53994004008900002E064016006753D0402011A900005E0FE900004E0FDEEF541EDF542E5422407FFE43541FED3EF953AEE95395008EF942CEE94014005753D93
:4000C00003805774072542F58274003541F583E0FE74062542F58274003541F583E0FDEEF53EEDF53F74082542F58274003541F583E064176005753D04801F7B017A007974
:4001000002E5422404FDE43541FC122C85EF653F7003EE653E6003753D08E4F53BF53CE53D6003020641900006E0F538753D04900003E012092F01553101823202083403FE
:40014000E83503F63704423802083904843A062B3B0000063E200003020641E54245416003020641FF121A6AEF70047F0180027F00900006EFF0753B00753C01E4F53D02D2
:400180000641200003020641E542640145416003020641E538C394014003020641900628E0FEA3E0F5828E831208BDE4FBFA7901F81207938F24E538B5241E900628E0FEF5
:4001C000A3E0F5828E831208BDE4FB7A01F9F81207937522008F238014E538D395244007E4F522F5238006752201752300E523900006F0E522A3F0A374FFF0E4A3F0F53BBB
:40020000753C04F53D020641900003E06434703C200003020641E542640345416003020641E538C39440400FE538D3947F50087545007546108006754501754620AE45AF0A
:40024000467D007B017A01792E1209A6200003020641C3E5429403E54194005003020641E54224FDFFE54134FFFE742E2546F974013545A801FC7D017B017A007909120ACF
:400280008EE54224FDFFE54134FFFEEF2546F546EE3545F545E538C39440401BE538D3947F5014123B1175410075421090025AE4F0A37440F0800F75410175422090025A7A
:4002C0007401F0A3E4F0E54665427004E545654160030203DD900008E0FE900007E0FDEEF545EDF546D390025BE0954690025AE0954540047F0080027F0A8F3DE53D60034D
:40030000020641E538D3943F40030203B7E5387F00FEEF2546FFE5453E90025CF0A3EFF0900628E0FEA3E0F5828E831208BDE4FB7A01F9F812079390025EEEF0A3EFF090A2
:400340000628E0FEA3E0F5828E831208BDEFE4EF600A90025EE475F00112068D90025EE0FEA3E0FFC390025DE09F90025CE09E500B753D0AE4F545F546020641E54470370E
:400380007E017F20FD7B017A0279601209A6E4900380F0E0FFE4C374FF9FFDE49400FC7B017A02796090049A7401F0A37420F0E4FF121C247544017B017A01792E90049A5A
:4003C000E541F0A3E542F0AD46AC45AF38121C24EF60047F0A80027F008F3D8003753D03E4F545F546020641200003020641E4F545F546020652200003020641E546254270
:40040000FFE5453541FED3EF942CEE9401502DE4F53DAE41AF42742E2546F974013545A801FC7D017B017A007906120A8EE5422546F546E5413545F545020641753D0302C9
:400440000641E5424541703678257C00FD7BFF7A4179C0FE7F08120A8ED200753B00753C08E4F545F546AE3BAF3C78067C007D01FB7A007925120A8EE4F53D020641753D81
:4004800004020641200003020641E542640345416003020641900008E0FE900007E0FDEEF52FEDF530E538C394404056E538D3947F504FAE2FAF307C007D101209798F36AB
:4004C0008E358D348C33C3E5309440E52F940050047F0080027F0A8F3DE53D600302064185364E85354D85344C85334BE4755210F551F550F54FFF7E80FDFC1230688F37E5
:40050000806AAE2FAF307C017D00120979C004C005C006C007AF38E4FCFDFEFBFA7901F8120708D003D002D001D0001206ED8F368E358D348C33C3E52F940150047F008015
:40054000027F0A8F3DE53D600302064185364E85354D85344C85334BE4F552755101F550F54FFFFE7D10FC1230688F37E538D3943F5072AF387E007C207D00120979E42F23
:40058000FFE43EFEED3408FDE43CFCC004A905AA06AB07AE2FAF307C007D20120979D0001206ED8F368E358D348C33E4F52DF52EC3E52E9420E52D9400502AE4E52E25369B
:4005C000FFE52D3535FEE43534FDE43533A907AA06AB05123F23EF2537F537052EE52E7002052D80CB852F31853032E538702AAE31AF32FCFD7BFFFAF9F8C3120840701975
:40060000FD7F05120EDDC3E5379FF537E4FD7F06120EDDC3E5379FF537E537F404900006F0E4F53DF53B753C018016E4FF121A6AEF70069046FA7480F0123F5B8003753DEA
:40064000057B017A007902853B4B853C4CAF3D122B0F900001E0700302003A30000302003A22BB010689828A83E0225002E722BBFE02E32289828A83E49322BB010689828E
:400680008A83F0225002F722BBFE01F322C5F0F8A3E028F0C5F0F8E582158270021583E038F022BB010A89828A83E0F5F0A3E022500687F009E71922BBFE07E3F5F009E306
:4006C000192289828A83E493F5F074019322BB010A89828A83F0E5F0A3F0225006F709A7F01922BBFE06F3E5F009F31922EF2BFFEE3AFEED39FDEC38FC22C3EF9BFFEE9A6B
:40070000FEED99FDEC98FC22E88FF0A4CC8BF0A42CFCE98EF0A42CFC8AF0EDA42CFCEA8EF0A4CDA8F08BF0A42DCC3825F0FDE98FF0A42CCD35F0FCEB8EF0A4FEA9F0EB8FFB
:40074000F0A4CFC5F02ECD39FEE43CFCEAA42DCE35F0FDE43CFC2275F008758200EF2FFFEE33FECD33CDCC33CCC58233C5829BED9AEC99E58298400CF582EE9BFEED9AFDBD
:40078000EC99FC0FD5F0D6E4CEFBE4CDFAE4CCF9A88222B800C1B90059BA002DEC8BF084CFCECDFCE5F0CBF97818EF2FFFEE33FEED33FDEC33FCEB33FB10D703994004EB96
:4007C00099FB0FD8E5E4F9FA227818EF2FFFEE33FEED33FDEC33FCC933C910D7059BE99A4007EC9BFCE99AF90FD8E0E4C9FAE4CCFB2275F010EF2FFFEE33FEED33FDCC337F
:40080000CCC833C810D7079BEC9AE899400AED9BFDEC9AFCE899F80FD5F0DAE4CDFBE4CCFAE4C8F922EF4BFFEE4AFEED49FDEC48FC22C3E49FFFE49EFEE49DFDE49CFC222F
:40084000EB9FF5F0EA9E42F0E99D42F0E89C45F022E8600FECC313FCED13FDEE13FEEF13FFD8F122E8600FEFC333FFEE33FEED33FDEC33FCD8F122BB010789828A8302085D
:40088000B15005E9F8020AB4BBFE05E9F8020AC089828A830208BDBB010789828A830208D95005E9F8020ACCBBFE05E9F8020AD822E0FCA3E0FDA3E0FEA3E0FF22E493FCE2
:4008C000740193FD740293FE740393FF22E0F8A3E0F9A3E0FAA3E0FB22ECF0A3EDF0A3EEF0A3EFF022A42582F582E5F03583F58322E0FBA3E0FAA3E0F922EBF0A3EAF0A3F5
:40090000E9F022E493FB740193FA740293F922BB010789828A830208F15005E9F8020AE4BBFE05E9F8020AED89828A83020903D083D082F8E4937012740193700DA3A39376
:40094000F8740193F5828883E4737402936860EFA3A3A380DFE5092582F582E5083583F583B508048582092210AF06858209F50822858209F508D2AF22EC8EF0A4CCC5F047
:40098000CCCDF8EFA4CEC5F02DFDE43CFCE8A42EC8C5F03DFDE43CFCEFA4FFE5F028FEE43DFDE43CFC22EF4E6012EF60010EEDBB010B89828A83F0A3DFFCDEFA2289F050CA
:4009C00007F709DFFCA9F022BBFEFCF309DFFCA9F022E709F608DFFA8046E709F208DFFA803E88828C83E709F0A3DFFA8032E309F608DFFA806EE309F208DFFA806688827E
:400A00008C83E309F0A3DFFA805A89828A83E0A3F608DFFA804E89828A83E0A3F208DFFA804280D280FA80C680D4805580F28029801080A680EA809A80A880DA80E280CA47
:400A4000802988848C8589828A83E493A30586F0A30586DFF5DEF3800B89828A83E493A3F608DFF9ECFAA9F0EDFB2288848C8589828A83E0A30586F0A30586DFF6DEF4808C
:400A8000E389828A83E493A3F208DFF980D688F0EF60010E4E60CD88F0ED2402B4040050C3F582EB2402B4040050B92323458223900A2273E6FC08E6FD08E6FE08E6FF22E2
:400AC000E2FC08E2FD08E2FE08E2FF22ECF608EDF608EEF608EFF622ECF208EDF208EEF208EFF222E6FB08E6FA08E6F922E2FB08E2FA08E2F922E49004AFF0FBFAF990048D
:400B0000B21208FAE490054BF0A3F0906000E0548064806003020D24A3E07003020C6524F87003020CDD24FE7003020CFB24046003020ED7906003E0B4012D123D98900467
:400B4000B5EEF0A3EFF0F5828E83A312090390054D1208FA90054BE4F0A37412F012390C9004AFEFF0020ED7906003E064027064906002E0FF1238369004B5EEF0A3EFF0ED
:400B80009004B5E0FEA3E0FF4E7003020ED78F828E83A312090390054D1208FA90054D1208F1E92403F9E43AFA120662FE90054D1208F1E92402F9E43AFA120662FDEEED26
:400BC000FF90054BEEF0A3EFF012390C9004AFEFF0020ED7906003E06403707EFF7BFF7A3F79C89004B21208FA906002E0D39F401F9004B21208F11206626014120662FE07
:400C00007C0029F9EC3AFA9004B21208FA0F80D9906002E06019903F9DE493FF906002E0B5070C7BFF7A4079279004B21208FA9004B21208F11206627003020ED7120662A0
:400C4000FF90054BE4F0A3EFF090054D1208FA12390C9004AFEFF0020ED71236F69004AFEFF0020ED7906000E05403604224FE6003020ED790054BE4F0A37402F0906004BC
:400C8000E0547F75F00BA42466F582E43405F583E090062DF0E4A3F07B017A06792D90054D1208FA12390C9004AFEFF0020ED790054BE4F0A37402F090055EE090062DF092
:400CC000E4A3F07B017A06792D90054D1208FA12390C9004AFEFF0020ED7020ED790054BE4F0A304F0FB7A05795F90054D1208FA12390C9004AFEFF0020ED790054BE4F0F7
:400D0000A304F0906004E0244AF9E43405FA7B0190054D1208FA12390C9004AFEFF0020ED7020ED7906001E0147003020DFB24FE7003020E7224FA601E24FE607824066078
:400D400003020ED7906002E0900559F0123DE19004AFEFF0020ED7906002E09004B1F0E0FFD39400400EEF14FF1238369004B5EEF0A3EFF09004B1E0FFD39400400A900471
:400D8000B5E07002A3E07006EF6003020ED790055FE0FF9004B1E0FE6F600F90055FEEF09005577401F0FF121286123DE19004AFEFF0020ED71231DFEF7003020ED79060C6
:400DC00004E09004B0F0E0900553F09005577401F012160F9004B0E0FF244AF582E43405F583E0FE74582FF582E43405F583EEF0123DE19004AFEFF0020ED7906000E054DE
:400E000003601D146037146003020ED7906002E06003020ED71225D89004AFEFF0020ED7906002E064016003020ED790055EE054FDF0123DE19004AFEFF0020ED790600433
:400E4000E0C394014003020ED7E0245AF582E43405F583C083C082E0FF906002E0F4FEEF5ED082D083F0123DE19004AFEFF080678065906000E05403601614602C14705766
:400E8000906002E07051122F399004AFEFF08047906002E06401703F90055EE04402F0123DE19004AFEFF0802E906004E0C394015025E0245AF582E43405F583C083C082BD
:400EC000E0FF906002E0F4FEEF5ED082D083F0123DE19004AFEFF09004AFE0FF22900381EDF0AB079003867402F0E4FFFEFDFCA31208D9EB12092F0F1F010F4C020F710301
:400F00000F96040FBB050FE606103607101108105B0910800A10AA0B10D40C000010FE900381E0FF7E007C017D00120979120832EF24C0FFEE34FFFEED3410FDE43CFCA3CE
:400F40001208D99003867401F002110E900381E0FF7E007C017D00120979C374C39FFF74FF9EFE74109DFDE49CFCA31208D902110E900381E0FF7E007C017D00120979C326
:400F800074C79FFF74FF9EFE74109DFDE49CFCA31208D902110E900381E0FF7E007C017D00120979C374CB9FFF74FF9EFE74109DFDE49CFCA31208D902110E900381E0FF06
:400FC0007E007C017D00120979C374D09FFF74FF9EFE74109DFDE49CFCA31208D99003867401F002110E900381E0FF7E007C017D00120979C374D19FFF74FF9EFE74109D8D
:40100000FDE49CFCA31208D99003867401F002110E900381E0FF7E007C017D00120979C374D69FFF74FF9EFE74109DFDE49CFCA31208D902110E900381E0FF7E007C017D8D
:4010400000120979C374D29FFF74FF9EFE74109DFDE49CFCA31208D902110E900381E0FF7E007C017D00120979C374D49FFF74FF9EFE74109DFDE49CFCA31208D902110ECD
:40108000900381E0FF7E007C017D00120979C374D89FFF74FF9EFE74109DFDE49CFCA31208D99003867404F08064900381E0FF7E007C017D00120979C374DC9FFF74FF9E1F
:4010C000FE74109DFDE49CFCA31208D99003867401F0803A900381E0FF7E007C017D00120979C374E09FFF74FF9EFE74109DFDE49CFCA31208D99003867404F080107F0007
:40110000123E25E4FFFEFDFC9003821208D9900386E0B401199003821208B1A907AA06AB05123F23E4FCFDFE9003871208D9900386E06402705C9003821208B1EF2401FF27
:40114000E43EFEE43DFDE43CA907AA06AB05123F23E4FCFDFE9003871208D99003871208CDC000C001C002C0039003821208B1A907AA06AB05123F23E4FCFDFE78081208C5
:4011800064D003D002D001D0001208259003871208D9900386E06404600302127F9003821208B1EF2403FFE43EFEE43DFDE43CA907AA06AB05123F23E4FCFDFE9003871204
:4011C00008D99003871208CDC000C001C002C0039003821208B1EF2402FFE43EFEE43DFDE43CA907AA06AB05123F23E4FCFDFE7808120864D003D002D001D0001208259043
:4012000003871208D99003871208CDC000C001C002C0039003821208B1EF2401FFE43EFEE43DFDE43CA907AA06AB05123F23E4FCFDFE7810120864D003D002D001D000121C
:4012400008259003871208D99003871208CDC000C001C002C0039003821208B1A907AA06AB05123F23E4FCFDFE7818120864D003D002D001D0001208259003871208D990BE
:4012800003871208B122E49004B9F0A3F09004B7F09004B7E0FEC39409507BEE75F00BA42464F582E43405F583E4F0EE75F00BA42466F582E43405F583E4F0EE75F00BA49C
:4012C0002465F582E43405F583E4F0EE75F00BA42467F582E43405F583E4F0EE75F00BA42469F582E43405F583E4F0EE75F00BA4246CF582E43405F583E4F0A3F0EE75F051
:401300000BA4246EF582E43405F583E4F09004B7E004F0021291EF602FE49004B8F09004B8E0FFC394015020744A2FF582E43405F583E4F074582FF582E43405F583E4F08F
:401340009004B8E004F080D690055FE0D39400500302160EE014FF1238369004BBEEF0A3EFF09004BBE0FCA3E0FDF5828C83A3120903E92407F9E43AFA1206625440600993
:4013800090055EE04401F0800790055EE054FEF0ED2404FFE43CFE9004BBF0A3EFF0F5828E83E4939004B7F0A37401F09004B8E0C3940940030215509004BBE0FEA3E0F579
:4013C000828E83A3120903AF019004BDEAF0A3EFF0E4FF9004B7E0FEEFC39E40030215479004BDE0FCA3E0F5828C83740293547FFD9004B8E0FE6D7001E460030215359005
:4014000004BDE0A3E0F5828C83740493FC740593FDEE75F00BA4246CF582E43405F583E0FAA3E0C39DEA9C50299004BDE0FCA3E0F5828C83740493FC740593FD9004B8E026
:4014400075F00BA4246CF582E43405F583ECF0A3EDF09004BDE0FCA3E0FDF5828C83E493244AF582E43405F583E0FE8D828C83740193FDEE6D60030215359004BDE0A3E07D
:40148000F5828C837403935403FE9004BDE0A3E0F5828C83740293548060309004B8E0FD75F00BA42465F582E43405F5837401F0B506047C0780027C0DED75F00BA424698E
:4014C000F582E43405F583ECF0802E9004B8E0FD75F00BA42465F582E43405F583E4F0EEB401047E0580027E09ED75F00BA42469F582E43405F583EEF09004BDE0FCA3E055
:40150000FDF5828C83740293FE9004B8E0FB75F00BA42468F582E43405F583EEF08D828C83740393FEEB75F00BA42464F582E43405F583EEF09004BEE02407F09004BDE05B
:401540003400F00F0213D39004B8E004F00213AC9004BBE0FEA3E0F5828E83A3120903AF019004BDEAF0A3EFF0E49004B8F09004B7E0FFA3E0C39F50389004BDE0FEA3E0B0
:40158000F5828E83E493FD740293547F75F00BA4246EF582E43405F583EDF09004BEE02407F09004BDE03400F09004B8E004F080BD1234A5900555EEF0A3EFF09004B774D1
:4015C00001F09004B7E0FFC39409503F9004B9E0FCA3E0FDEF75F00BA4246AF582E43405F583ECF0A3EDF0EF75F00BA4246CF582E43405F583E0FEA3E0FF9004B9EE8FF086
:4016000012068D9004B7E004F080B71220532290055FE0D39400500302187EE014FF123836EF2404FFE43EFE8F82F583E4939004B7F08F828E83A3120903AF019004B8EA35
:40164000F0A3EFF0E4FA9004B7E0FFEAC39F400302187EA3E0FEA3E0FFF5828E83E493FC2458F582E43405F583E0FB744A2CF582E43405F583E06B700302186C8F828E830C
:40168000E493FC244AF582E43405F583E0FB8F828E83740193FFEB6F600302186C906004E0FFEC6F600302186C9004B8E0A3E0F5828E83740293FC547FFB24FFFFE434FF9C
:4016C000FEEFC4F8540FC868FFEEC454F048A9079004B8E0FEA3E0F5828E837403935403FFEC5480602CEB75F00BA42465F582E43405F5837401F0B507047E0780027E0D95
:40170000EB75F00BA42469F582E43405F583EEF0802AEB75F00BA42465F582E43405F583E4F0EFB401047F0580027F09EB75F00BA42469F582E43405F583EFF0E9240EFF5A
:40174000E434608F82F5837401F09004B8E0FEA3E0F5828E83740493FE740593FFEB75F00BA4246CF582E43405F583EEF0A3EFF09004B8E0FEA3E0FFF5828E83740293FD85
:40178000EB75F00BA42468F582E43405F583EDF08F828E83740393FFEB75F00BA42464F582E43405F583EFF0EB75F00BA42467F582E43405F583E4F0EB75F00BA4246CF52A
:4017C00082E43405F583E0FFE9240CFDE434608D82F583EFF0EB75F00BA4246CF582E43405F583E0A3E0FFE9240DFDE434608D82F583EFF0EB75F00BA4246AF582E43405EC
:40180000F583E0A3E0FFE92486FDE434608D82F583EFF0EB75F00BA4246AF582E43405F583E0FFE92487FDE434608D82F583EFF0EB75F00BA4246AF582E43405F583E0A35D
:40184000E0FFE92484FDE434608D82F583EFF0EB75F00BA4246AF582E43405F583E0FFE92485FDE434608D82F583EFF09004B9E02407F09004B8E03400F00A02164622E432
:401880009004B8F0906004E09004B9F0906000E054806480600302197CA3E014605814607014700302194924FD6003021A64906003E0B4211B122DE790054BE07002A3E099
:4018C0007003021A6412390C9004B8EFF0021A64906003E064226003021A641228A390054BE07002A3E07003021A6412390C9004B8EFF0021A64121DA990054BE07002A383
:40190000E07003021A6412390C9004B8EFF0021A649004B9E0FFC394014003021A64906002E06003021A6490054BF0A304F0742B2FF9E43406FA7B0190054D1208FA1239D3
:401940000C9004B8EFF0021A649004B9E0FFC394014003021A6490054BE4F0A304F0742C2FF9E43406FA7B0190054D1208FA12390C9004B8EFF0021A64021A64906000E07A
:4019800054806003021A64A3E024F66028147003021A3C24026003021A64121DA990054BE07002A3E07003021A64123A729004B8EFF0021A649004B9E0FFC39401400302B1
:4019C0001A64906002E06003021A64A3E0FE742B2FF582E43406F583EEF0742A2FF582E43406F583E0FE742B2FF582E43406F583E0C39E50119004B9E0242AF582E4340635
:401A0000F583E4F0802C9004B9E0FF242AF582E43406F583E0D394014018742B2FF582E43406F583E0FE742A2FF582E43406F583EEF0123DE19004B8EFF080289004B9E0E6
:401A4000FFC39401501E906002E094015016E0FE742C2FF582E43406F583EEF0123DE19004B8EFF09004B8E0FF228F47AD477F03120EDDEF2401FFE43EFEE43DFDE43CFCDE
:401A8000E4FB7A01F9F8120708C004C005C006C007AD477F04120EDDD003D002D001D0001206ED8F4F8E4E8D4D8C4CC201E4F550AD477F06120EDDEF64014E7002FF22AD35
:401AC000477F03120EDDEF2401FFE43EFEE43DFDE43CFCE4FB7A01F9F81207088F4B8E4A8D498C48AF4FAE4EAD4DAC4CAB4BAA4AA949A848C31208405032854B82854A83F0
:401B0000E493F5516005F46002D201E5512550F550AF4BAE4AAD49AC48E47B01FAF9F81206ED8F4B8E4A8D498C4880B8AD477F03120EDDEF2401FFE43EFEE43DFDE43CFCCA
:401B4000E4FB7A01F9F812070878031208518F4B8E4A8D498C48E47FC07EFFFDFCAB4FAA4EA94DA84CC31208407007FF7E20FDFC800DAF4FAE4EAD4DAC4C78031208518F2A
:401B80004F8E4E8D4D8C4CAF4FAE4EAD4DAC4CAB4BAA4AA949A848C31208405039E4254BFFE4354AFEE5493408FDE43548A907AA06AB05123F23EF2550F550AF4BAE4AADA2
:401BC00049AC48E47B01FAF9F81206ED8F4B8E4A8D498C4880B1E550F404F550AD477F01120EDDA804A905AA06AB07AF50E4FCFDFEC312084070032001037F0622AF477E83
:401C0000007C017D00120979C374D19FFF74FF9EFE74109DFDE49CFC9003857401F0122A497F0022900495ECF0A3EDF0A31208FA900494EFF0E490049CF0EFD3943F500EEA
:401C4000900494E09401400690049C7401F0900494E0FFD3947F400690049C7401F0EFC39440400CEFD39441400690049C7401F0EFD3943F501E900495E0FEA3E0FFE4FC74
:401C8000FDFB7A01F9F8C3120840502F90049C7401F08027D3900496E09480900495E09400400690049C7401F090049AE07004A3E06410600690049C7401F09004971208C6
:401CC000F1E94A4B700590049C04F090049CE06003021DA3123CCFEF6003021D9D900495E0FCA3E0FDA31208F190049AE0FFA3E09004A3CFF0A3EFF0900494E0FF1222A85E
:401D000090049CEFF064076003021D98904722E0540270087F01FE123BD080F0904722E054026009E0FF1313543FFF80027FFFEF700690049CF0800690049C74FFF09004FC
:401D40009CE07054900494E0FFA3E0FCA3E0FD900624E0FBA3E09004A1F01235AF90049CEFF064077032904722E0540270087F01FE123BD080F0904722E054026009E0FFA5
:401D80001313543FFF80027FFFEF700690049CF0800690049C74FFF0123F3B800690049C7404F090049CE0FF22E490054BF0A3F090055FE014FF1238369004BAEEF0A3EF86
:401DC000F0906003E09004C0F0906004E09004BFF0E02402FFE433FEEF7802C333CE33CED8F9FF9004BBE02FFF9004BAE03EFEF0A3EFF0F5828E83A3120903AF019004BA2D
:401E0000EAF0A3EFF09004BFE0FFC394014003021F02744A2FF582E43405F583E075F004A4FFAEF09004BBE02FF09004BAE03EF0E0FEA3E0F5828E83A3120903AF0190043B
:401E4000BAEAF0A3EFF09004C0E0FFC394015003021F02EFD394034003021F02EF24FFFFE434FFFEEF7802C333CE33CED8F9FF9004BBE02FF09004BAE03EF0906002E0905C
:401E800004C0F09004BAE0FEA3E0F5828E83E493FF9004C0E0FEEFC39E40679004BAE0FCA3E0F5828C83A31209039004BC1208FAEE75F008A4FF9004BC1208F1E92FF9EAEC
:401EC00035F0FA9004BC1208FA9004BC1208F1E92402F9E43AFA12090F90054D1208FA9004BC1208F11206A3FF90054BE5F0F0A3EFF0E92405F9E43AFA12090F9005501244
:401F000008FA229003821208FA900381EFF0D394005003022052E094094003022052E0FD24FFFFE434FFFEEFC4F8540FC868FFEEC454F048900387EFF0FB7A002488FEEA6E
:401F40003460A3F0A3CEF0ED75F00BA4246AF582E43405F583E0FEA3E0FFC3E49FFF74029EFED3900386E09F900385E09E4024900381E075F00BA4246AF582E43405F58380
:401F8000E0FEA3E0FFC3E49F900386F074029E900385F0900385E0FF900381E075F00BA42467F582E43405F583E04FFFEB240CFDEA34608D82F583EFF0900385E0A3E0FF1C
:401FC000EB240DFDEA34608D82F583EFF09003821208F1E94A4B6046E490038AF0A3F0900385E0FEA3E0FF90038AE0FCA3E0FDC39FEC9E50299003821208F1E92DF9EA3C71
:40200000FA120662FF900388E0FCA3E0F5828C83EFF090038AE475F00112068D80C1900381E0FF75F00BA42465F582E43405F583E4F0EF75F00BA42469F582E43405F583F5
:40204000E0FF900387E0240EFDE434608D82F583EFF0227D01E4FCECC39480400302217FECFF7E002480FBEE34608B82F583740CF0ED75F00BA42469F582E43405F583E059
:402080006033ED75F00BA42468F582E43405F583E054806010EF240EFFEE34608F82F583740CF0801EEC240EFFE434608F82F5837408F0800EEC240EFFE434608F82F58361
:4020C0007480F0ED75F00BA4246CF582E43405F583E0FFEC240CFBE434608B82F583EFF0ED75F00BA4246CF582E43405F583E0A3E0FFEC240DFBE434608B82F583EFF0EDAD
:4021000075F00BA4246AF582E43405F583E0A3E0FFEC2486FBE434608B82F583EFF0ED75F00BA4246AF582E43405F583E0FFEC2487FBE434608B82F583EFF0ED75F00BA439
:40214000246AF582E43405F583E0A3E0FFEC2484FBE434608B82F583EFF0ED75F00BA4246AF582E43405F583E0FFEC2485FBE434608B82F583EFF00D74102CFC0220579050
:40218000600A74FFF022C0E0C0F0C083C082C085C084C086758600C093759300C0D075D000C000C001C002C003C004C005C006C00790061AE014604B14607914700302225E
:4021C000652403600302228590061E1208F1900619E0FF04F0E92FF9E43AFA12066290061BF0E0FE5407A3F0EE7018900619F090061D7402F090061CE4F090061A7403F02B
:4022000002228590061BE0FF30E70890061D7403F0800690061D7401F0EF25E090061BF0A3E014F0123F71EF54FEFF1239FA90061A7402F090061DE0702390061A7403F0D8
:4022400090061CE07006A37402F0800590061DE4F0123F71EF4401FF1239FA800890061DE014F0802090061DE0701490061CE0700690061AF0800E90061A7401F0800690D0
:40228000061DE014F0D007D006D005D004D003D002D001D000D0D0D093D086D084D085D082D083D0F0D0E03290049DEFF0A3ECF0A3EDF0A31208FA9004A57407F0904722CF
:4022C000E0540270030223B890472074B6F074D5F07402F0904722E0540260030223B090049DE0904720F0E49004A6F0A3F09004A3E0FEA3E0FF9004A6E0FCA3E0FDC39F19
:40230000EC9E501F9004A01208F1E92DF9EA3CFA120662904720F09004A6E475F00112068D80CB9004A3E064017002A3E060030223BE90049DE0FFD3943F40030223BE7E50
:40234000007C207D00120979E42FFFE43EFEED3408FDE43CFCC004A905AA06AB07A3E0FEA3E0FF7C007D20120979D0001206ED9004A81208D9E49004A6F0A3F09004A6E0F9
:40238000FEA3E0FFC39420EE94005032E4FCFDA31208CD1206EDA907AA06AB05123F23904720EFF09004A6E475F00112068D80CC9004A57409F080069004A57404F0900486
:4023C000A5E0FF227B007A4679E8123F23EF4405FD7B007A4679E8123F2FE4F523E523C39409502CE52375F005A4248EF582E43441AF82F5218F22F5831209038F82852119
:4024000083740393FC740493FD123D7F052380CD7E407FEE123B727B017A507903123F23EF4402FD7B017A507903123F2F7B017A507913123F23EF4402FD7B017A507913EA
:40244000123F2F9043A0E04440F09043C2E04410F07C407DD47B007A5179F07F0A7E00123BFD7C407DDE7B007A5179127F087E00123BFD7C407DE67B007A5179227F087E13
:4024800000123BFD9044F47401F0904322E04408F09046ECE0C394055006904689743AF090480074F1F0122BCA90480074B1F0123D2B7B007A4379A0C00179B090000512C6
:4024C00008FAD0017F0E7E00123ADD9043B0E054FDF022C0E0C0F0C083C082C085C084C086758600C093759300C0D075D000C000C001C002C003C004C005C006C007906034
:4025000028E09004ACF0E0FF541070030225B5A37401F0EF548060219004ACE0540F64016005A3E4F0803112337F900560E0548060269004ADE4F0801F9004ACE054406055
:4025400005123D4880129004ACE054206005123C2380059004ADE4F09004ADE06057906028E09004ACF0E05480704A900563E0FF90055BE04F9004ACF0E0FF906029F0E0CD
:40258000FEEF6E7030900560E09004ADF0906028E054809004ACF0E0700F900560E0906028F0E0540F9004ADF0900560E0FF9004ADE0B507D0D007D006D005D004D003D0F4
:4025C00002D001D000D0D0D093D086D084D085D082D083D0F0D0E032E49004B7F0906004E0547FF924FFFFE434FFFEEFC4F8540FC868FFEEC454F048AD01E9D3940050032D
:402600000226D0ED940940030226D0ED75F00BA42466F582E43405F583E054FEF0ED75F00BA42467F582E43405F583E4F0EFFB7A00240CFDEA34608D82F583E0547FF0E996
:4026400075F00BA42465F582E43405F583E054FDF0E975F00BA42468F582E43405F583E054806032E975F00BA42465F582E43405F583E0B40110EB240EFDEA34608D82F5E2
:4026800083740CF08042EF240EFDE434608D82F583740DF08032AE01E975F00BA42465F582E43405F583E0B40110EF240EFDE434608D82F5837408F0800EEF240EFFE434F0
:4026C000608F82F5837409F0123DE19004B7EFF09004B7E0FF2275930078007583467582E8E04401F0009046ECE0F99046FAE0FA900614F0B903225420B40012B8001AEA79
:40270000901FFFF07401901FFEF09046F6F0901FFEE06005901FFFE0FA90480074C0F075815A123C4790000078007920E4F0A3D8FCD9FAEA900614F002001175081F750962
:40274000FD1223C40227820232B5E493A3F8E493A34003F68001F208DFF48029E493A3F85407240CC8C333C4540F4420C8834004F456800146F6DFE4800B0102040810206A
:4027800040809038CAE47E019360BCA3FF543F30E509541FFEE493A360010ECF54C025E060A840B8E493A3FAE493A3F8E493A3C8C582C8CAC583CAF0A3C8C582C8CAC58311
:4027C000CADFE9DEE780BE8B478A4889498C4A8D4BE54F75F00AA485F051F552D3E54B9440E54A94004006754A00754B40900630E06032123F83EF7019E55245516013E485
:402800007F01FEFDFC12331AE55215527002155180E1123F83EF601C123F16123F7DE4900630F0800F123F16EF6009123F83EF6003123F7DE54F75F00AA485F051F5527FC8
:4028400001123E9CEF64016019E55245516013E47F01FEFDFC12331AE55215527002155180DD7F01123E9CEFB40126AB47AA48A949900385E54AF0A3E54BF07F01122D37D5
:40288000AB4CAA4DA94EEE8FF01206CEE4F550800FAB4CAA4DA94EE4F5F01206CE755010AF502290055FE014FF1238369004BAEEF0A3EFF0906004E09004BFF0E02402FF6D
:4028C000E433FEEF7802C333CE33CED8F9FF9004BBE02FFF9004BAE03EFEF0A3EFF0F5828E83A3120903AF019004BAEAF0A3EFF09004BFE0244AF582E43405F583E075F0F7
:4029000004A4FFAEF09004BBE02FF09004BAE03EF0E0FEA3E0F5828E83A3120903AE02AF019004BAEEF0A3EFF0240CFFE43EFE9004BAF0A3EFF0F5828E83A3120903900404
:40294000BC1208FA9004BC1208F1E92401F9E43AFA120662FE9004BC1208F1120662FDEEEDFF90054BEEF0A3EFF0E92402F9E43AFA90054D1208FA22123E3A900383EFF0F2
:402980009043A5E04401F09043B5E04401F090609D7401F090600904F0906010E0547FF0E4FFFE123BD0904394E054F9F0906012E054DFF0904394E04401F07F017E001258
:4029C0003BD07F287E00123BD09051F8E0547FF0E054BFF0904394E04402F07F027E00123BD0904394E04404F0906084E4F0A3F0900383E0FF123DB17C367DA57F17123295
:402A00004E7D077F171238837C3B7DCF7F1512324E7D077F151238837C247DD37F1812324E7D077F181238837C367D03E4FF12324E7D07E4FF1238837C367D547F01123230
:402A40004E7D077F01123883229003811208D99003811208B1E42FFFE43EFEED34F0FDEC34FFFC9003861208D9E4FBFA7901F89003861208B112079390048AEFF0900386D7
:402A80001208B1EFEEE4FDFCFB7A01F9F812079390048BEEF0A3EFF09003811208B1EFFBE4FAF9F89003811208B11206FA90048D1208D9E4FBC3EA9401502590048D120891
:402AC000B1EF2BFFEE3A8F82F583E493FF748A2BF58274033AF583EFF00BEB70010A80D5900385E0FB9003811208B1EFE4FE748A2FF582EE3403F583EBF090048AE0FFA318
:402B0000E0FCA3E0FD7B017A03798A123AA9228B488A49894A740112067BAB48254AF9E43549FAEF12067BE54CAB48E54A2402F9E43549FAE54C12067BE54BFFAB48E54A89
:402B40002403F9E43549FAEF12067BAB48AA49A94AE54C2404FDE4354BFC122C858E4D8F4EEFAB48E54C2404FDE4354BFCE54A2DF9E5493CFAEF12067BE54DFFAB48E54C25
:402B80002405FDE4354BFCE54A2DF9E5493CFAEF12067BAB48E54C2406FFE4354BFEE54A2FF9E5493EFA741712067BE54C2407FDE4354BFC75540075550075564B75579606
:402BC000AB48AA49A94A123446227B007A4079807DBF7C5D123EEB9040827419F09043007406F07B007A4279127D177C33123EEB9042107405F0E0FFE47FC87E32FDFC90F6
:402C000000001208D99000001208B1D3EF9400EE94004029904210E054806021E47FE07E01FDFC123A009000001208B174FFFBFAF9F81206ED9000001208D980C890420091
:402C40007452F07B0C7A01790F123F239046A1EFF07B007A407904E4FDFC123EEB9040047407F0904006E4F09040087448F0904004E4F0904009F09040017402F09043A2F6
:402C8000E04401F0228B4F8A5089518C528D5374FFF554F555855258855359E553455270096355FF6354FF022D32C3E5599553FFE5589552FEAB4FE5512FF9E5503EFA1234
:402CC0000662755600F557E4FDEDC39408503DE5575401FFE5555401FBE4EB6F6015E554C313FEE55513FFEE6484F554EF6408F555800BE554C313F554E55513F555E556FC
:402D0000C313F556E55713F5570D80BDE553155370021552E553455270906355FF6354FF855456855557E555FCE556FFECF554EFF555AE54AF55229003821208FA90038135
:402D4000EFF0D394005003022DD7E094094003022DD7A31208F1E94A4B607C900381E0FD24FFFFE434FFFEEFC4F8540FC868FFEEC454F048EF2488FEE43460900387F0A385
:402D8000CEF0AF051237E7D3900386E09F900385E09E4005EEF0A3EFF0E4FFFED3900386E09F900385E09E4024900387E0FCA3E0F5828C83E0FD9003821208F1E92FF9EA8E
:402DC0003EFAED12067B0FEF70010E80CF900381E0FF1237978007E4900385F0A3F0900385E0FEA3E0FF2290055FE014FF1238369004BAEEF0A3EFF0906004E09004BCF0B3
:402E0000E02402FFE433FEEF7802C333CE33CED8F9FF9004BBE02FFF9004BAE03EFEF0A3EFF0F5828E83A3120903AF019004BAEAF0A3EFF0A3E0244AF582E43405F583E0C1
:402E400075F004A4FFAEF09004BBE02FF09004BAE03EF0E0FEA3E0F5828E83A3120903AE02AF019004BAEEF0A3EFF02410FFE43EFE9004BAF0A3EFF0F5828E83A3120903EA
:402E8000120662FF90054BE4F0A3EFF090054D1208FA22E49004BAF0900554E0FF900561E48FF012068DD390054CE0940090054BE0940040459004BAE0FF9408503C900578
:402EC0004D1208F1120662FEEF2400FDE434608D82F583EEF090054D1208F1E92401F9E43AFA90054D1208FA9004BAE004F090054B74FFF5F012068D80AC900554E06408B3
:402F000060099004BAE0D39400401590055BE06480F0900560740FF090055C7402F0800A9005607402F090055CF09004BAE0FF900554F0900563EFF022E49004B7F0906007
:402F400004E0547FFD24FFFFE434FFFEEFC4F8540FC868FFEEC454F048EDD394004074ED9409506FED75F00BA42466F582E43405F583E04401F0ED75F00BA42467F582E407
:402F80003405F583E4F0ED75F00BA42465F582E43405F583E04402F0AE05EE75F00BA42468F582E43405F583E054806010EF240EFDE434608D82F583748DF0800EEF240EB2
:402FC000FFE434608F82F5837489F0123DE19004B7EFF09004B7E0FF22752106E4FF121A6AEF7002F521123DC9EF60057F00123E25E4F54EF54DF54CF54B900628E0FEA329
:40300000E0F5828E831208BD8F528E518D508C4FE4FFFE7D10FC123068900626E0FCA3E0F5828C83E493FEC3EF9EFFF404FFB50612900628E0FEA3E0F5828E831208BDEF2F
:403040004E70057F00123E259046FAE054C064406004E52160099046FAE4F0FF12001AE4FF12001A123F47228F4A8E498D488C47E4F553EF7003EE64806019E4FFFE7D1027
:40308000FCAB4AAA49A948A847C312084060057F00123E25D3E5529400E5519400404BAF52AE51AD50AC4F74FFFBFAF9F81206ED8F528E518D508C4FE54A254EFFE5493511
:4030C0004DFEE548354CFDE547354BFCEF2552FFEE3551FEED3550FDEC354FA907AA06AB051206622553F55380AAAF5322E4FE7E0190062C7401F0A3DEFC7E019044C27456
:4031000080F0A37401F09044C0F004F0E490055CF0ED14600B0470109060097402F0800E9060097403F080069060097403F090055DEFF0E490055FF0900553F0900557F06A
:40314000900559F090055EF0900554F09060287403F09060087480F0E47F01FEFDFC123A009060127404F022E4FF906029E0540F24FEFEFD900561E48DF012068DD3900567
:403180004CE0940090054BE09400403EEED394004038EF2400FDE434608D82F583E0FD90054D1208F1ED12067B90054D1208F1E92401F9E43AFA90054D1208FA0F1E900593
:4031C0004B74FFF5F012068D80B3AF06900563EEF090055BE06480F0900560740BF0229004B77401F0906004E09004B8F090055FE014FF1238368F828E83A3120903E92488
:4032000004F9E43AFA120662FF9004B8E0FEC39F5006EEC394014007E49004B7F08029744A2EF582E43405F583E0FF74582EF582E43405F583EFF0906002E0FF744A2EF55B
:4032400082E43405F583EFF09004B7E0FF22900385ECF0A3EDF0900384EFF0D3941F50028001C340057F00123E25900384E0541F25E0FFE433FEE42FFFEE3444FAA9077B2D
:4032800001123EDE900387EEF0A3EFF0900384E075F002A42400FFE5F03444FAA9077B01A3E0FEA3E0FFFDAC06123EED900387E0FEA3E0FF22E4900000F07F64FEFDFC12F2
:4032C000331A123EBE900000EFF0600E7BFF7A4179CD90061E1208FA800C7BFF7A4179C890061E1208FA123E64EF701D7E217F86123CB0123E77D2AF9044F474FDF09000B6
:4033000000E07013122FD9800EE4FF1233E49046FA7480F0123F5B80FE2290FFFC1209551208D98508838509821208B1D3EF9400EE9480402E9006151208B1123A00850888
:4033400083850982C083C0821208B1E42FFFEE3480FEED34FFFDEC34FFFCD082D0831208D980C090060B1208B18508838509821208CD120708123A00900004120955229012
:403380006028E09004AEF0E0906028F0E09004AEF0E0FF54806006900560EFF0227F0212394E906000E0546024E0601224E060182440701E120AF69004AEEFF080191236D4
:4033C000F69004AEEFF0800F123E8A9004AEEFF08005E49004AEF09004AEE070069005607403F0228F21E521B402079046FAE4F08050AF21121A6AEF7043F522E522C39417
:40340000015032AF227E007C017D00120979C374D09FFF74FF9EFE74109DFDE49CFCE522B521047B0180027B00900385EBF0122A49052280C79046FA7480F080059046FA95
:40344000E4F0123F5B228C528D53E55775F00AA485F059F55A900385E4F0A37440F07F02121F037F02123E9CEF7019E55A45596013E47F01FEFDFC12331AE55A155A700289
:40348000155980DF7F02123E9CEF70057558108011AB54AA55A956E5528553F01206CEE4F558AF582290055FE014FF123836AD07AC06ED4C603D8D828C83A3120903E92435
:4034C00004F9E43AFA1206622402FFE433FEEF7802C333CE33CED8F92DFDEE3CFCAF058D82F583A3120903AF019004BFEAF0A3EFF08007E49004BFF0A3F09004BFE0FEA344
:40350000E0FF22123E4F90000274FFF0123CCFEF703B7F01123BA0EF6407702C7B017A0679247D02123559EFB40215E4900002F0904722E0540270107F01FE123BD080F04A
:40354000904722E0540260D4123F3B80069000027404F0900002E0FF229000031208FA900006EDF0E4A3F0900006E0FFA3E0C39F5037904722E054016003D38001C34009E6
:403580007F017E00123BD080E9904720E0FF9000031208F1900007E029F9E43AFAEF12067B900007E004F080BE900007E0FF2290049EECF0A3EDF0AC077D07904722E054AD
:4035C00002603B90472074B6F074D8F07405F0904722E054027023904720ECF090049EE0904720F090049EE0A3E0904720F0EBF09004A1E0904720F080067D0980027D0488
:40360000AF0522C0E0C083C082C085C084C086758600C093759300C0D075D000C00790600EE0FF90056FE0540364016007900572E06480F09005707401F090600BE054FE98
:40364000F0D007D0D0D093D086D084D085D082D083D0E032C0E0C083C082C085C084C086758600C093759300C0D075D000C00790601EE0FF90057AE0540364016007900580
:403680007DE06480F090057B7401F090600BE054FDF0D007D0D0D093D086D084D085D082D083D0E032C0E0C0F0C083C082C085C084C086758600C093759300C0D075D00019
:4036C000C000C001C002C003C004C005C006C007123A3BD007D006D005D004D003D002D001D000D0D0D093D086D084D085D082D083D0F0D0E032E49004B7F0FF906000E054
:40370000540324FE600A04701C906004E0FF8015906004E0547F75F00BA4246EF582E43405F583E0FF900555E0FCA3E02FF582E43CF583E49324FD700812187F9004B7EFFC
:40374000F09004B7E0FF22123E4F123CCFEF703B123D64900002EFF06407702A904722E0540270087F01FE123BD080F0904722E054026009E0FF1313543FFF80027FFFEFBE
:403780007004900002F0123F3B80069000027404F0900002E0FF22AD07EDD394004047ED94095042ED24FFFFE434FFFEEFC4F8540FC868FFEEC454F048ED75F00BA42465A0
:4037C000F582E43405F583E4F0ED75F00BA42469F582E43405F583E0FEEF240EFDE434608D82F583EEF022E4FDFCEFD394004041EF9409503CEF24FFFFE434FFFEEFC4F8B7
:40380000540FC868FFEEC454F048EF240CFBE434608B82F583E0540FFDEF240DFFE434608F82F583E0FBEDFCEBFD24FEFD74FF3CFCAE04AF05229004C1EFF090055DE02518
:40384000E025E024D1F582E43440F583120903AE02AF01EF2404FFE43EFE8F82F583E493FD9004C1E0FCC39D4005E4FEFF80138F828E8375F004EC1208E5A3120903AE0245
:40388000AF0122900384EFF0A3EDF0D3940750028001C340057F00123E25900384E0D3941F50028001C340057F00123E25900385E0540775F020A4FF900384E0541F2480AE
:4038C000F582E43444F583EFF0224106190041061A0042062641BB42062841BC41062F00440610016E360044060B00005DC041060F184406152EE000004106300043062141
:4039000000000041063100410632000090054BE07002A3E07005123D0D803090055C7402F0E490055BF0123B42906007E0FE906006E0FDEEEDFFD390054CE09F90054BE041
:403940009E4005EEF0A3EFF0122E937F01229005501208F1E94A4B60319005501208F1EF12067B900561E0FEA3E0FF9005501208F1E92401F9E43AFAEE8FF01206CE7B00EB
:403980007A0079009005501208FA22904F00E05401F0904F02E054FCF0904F01E04401F0904F0BE054CFF0E04430F0E054F0F0E0440FF07FF0123F087FF01239C3E4FF126D
:4039C0003F7722900001EFF09043A3E054017003D38001C340057F00123E259043A3E04401F07B027A4F7906900001E0FD7C00123EED9043A3E054FEF02290647DEFF0226E
:403A0000EC4D4E700D78FCEF24E950032840FD2200007BF178DA0000EF28FF78FFEE38FEED38FDEC38FC50E7EF2BFFEE38FEED38FDEC38FC40F22205020304E4FF7F01907C
:403A4000062C7401F0A3DFFCE490055CF090055FF0900553F0900557F0900559F090055EF0900554F09060287403F09060087480F02290055C7404F090055B7480F0123B43
:403A800042906007E0FE906006E0FDEEEDFFD390054CE09F90054BE09E4005EEF0A3EFF0900560740BF07F0122900491EFF0D3943F40067E007F1080047E017F0090049261
:403AC000EEF0A3EFF0900492E0FFA3E090049ACFF0A3EFF0900491E0FF121C2422758600EF4E6027EF60010E759300900005E0F595A3E0F585A3E0F5848B938A838982E0C4
:403B0000A30586F0A31586DFF6DEF4E4F593F59522123E3A9043A0E04408F09043B0E04408F090470174C8F09043ACE04410F09043BCE04410F0904700E0542060F8123D86
:403B4000B122E4900561F0A3F09005501208F1E94A4B601D9005501208F1E412067B9005501208F1E92401F9E43AFAE4F5F01206CE22ACEAADA08E838F82E493F9601CA34F
:403B8000E493F5EAA3E493F5A0A3E49360F1FAA3E493F8A3E493F2DAF6D9E48DA08CEA227E07904722E05402601F90472074B6F074E1F0740EF0904722E0540270079047B3
:403BC00020EFF080067E0980027E04AF06223232EEFA90060FE0F88FF0A4FFAEF0E88AF0A42EFEE5F03400FDEF24C9FF78FFEE38FEED38FDE438FC5003023A0022758600C1
:403C0000EF4E601BEF60010E8C838D828B958A858984E493A30586F0A31586DFF5DEF3E4F5952290055CE024FC600C24FE600C24047013123CEE22123168227F0312394E30
:403C40009005607403F0229046FAE054C064807018F521F0AD217F02120EDDEF4E600AAD217F02120EDD123ECD22900381EFF0A3EDF0900631E07009122978900631740190
:403C8000F0900381E0FFA3E0FD1230ED22900559E0600CE04480906008F0E4900559F0E490055CF07F0112394E9005607403F022900001EEF0A3EFF0123F6A900001E0FE51
:403CC000A3E0FF123EFA7F07123F51123F632290049D7404F0123E3A900632E0700704F0E490049DF0123DB190049DE0FF22900554E0FF900561E48FF012068DE490055CF2
:403D0000F07F0112394E9005607403F02290055C7402F090055B7480F0900560740FF0E4900554F0900563F07F01227B0C7A0179CF123F23EF540790586EF0EFC4540FA31B
:403D4000F09058767444F02290055CE024FC600C24FE600C2404700B123F8922123EAD22123C8D227F07904722E05402600E90472074B6F074E0F0740DF080027F0422EC89
:403D80004D6011ED60010C8B938A838982E4F0A3DDFCDCFA7593002290055DE025E025E024D1F582E43440F583120903AE02AF0122EF54016004D2AF8002C2AFEF5402FF4D
:403DC0009044F4E054FD4FF022123747900001EFF07008123503900001EFF0900001E0FF2290055C7406F0900560F090055B7480F0E4900563F07F01229043A3E04401F098
:403E00009043B3E04401F0904F00E04401F022D2AF9044F474FDF07D02E4FF123C6A9006307401F02290FFFF120955EFF09046EA7401F0900001120955229044F4E0F844B7
:403E400002F0E85402FF10AF012274014FFF22123E3A9043A0E04408F09043B0E04408F0123DB122905111E054207E007805CEC313CE13D8F9FF2290062FE0700912398BC6
:403E800090062F7401F0123DF922E4FF906000E0548064807005A3E0FE800022EF75F00BA42465F582E43405F583E0FF22E490055CF07F0112394E9005607403F0229042A4
:403EC00010E0548060047F0180027F0022900614E0FA8E838F827400758101738B938A838982E0FFA3E0FE759300228B938A838982EDF0A3ECF0759300227B027A4479043F
:403F0000AD07AC06123EED227B027A4F7904EFFD7C00123EED22E4FF900557E06004E0FFE4F0228B938A838982E0759300FF228B938A838982EDF075930022123E3AE490D0
:403F40000632F0123DB1229046FA7480F0123F5B22EFC43354E0904482F0229046F6E04401F0229044C07404F0229044C87404F02290647DE0FF22904F03EFF0227F0112C5
:403F800037972290055FE0FF22122E93221201000200000008B4041DB701300203800109022900010100C002090400000203000003092111010001222400070501034000E7
:403FC0000107058203400001040309040C03410045003900520042002C0343007900700072006500730073002000530065006D00690063006F006E006400750063007400C2
:404000006F0072002203500053006F0043003300200042006F006F0074006C006F006100640065007200000A033000300030003100240005010900A1000900A1000900155D
:404040000025FF7508954091020900150025FF750895408102C0C00000240005010900A1000900A1000900150025FF7508954091020900150025FF750895408102C0C00064
:404080000000410104C2010506004101050901050300FF408100FF40890000000001FF405901FF3FB101FF409100000103004003000082030040030301FF3F9F02FF40A9D7
:4040C00001FF40A500FF40B701FF3F8D01FF40B801FF40C80000000000000000C00000240000000000000000600060000000130045017E02004F010A4B0052040C20106005
:4041000011607C400064017D01010501EE01010B01AA40010C04BE01D804DB04DF01010D031A8068018801011701EE0A011901EE0A014004320433803640CC70014103969B
:4041400008A640A78001420A12805B0296089B02A640A780AB02C410D640EE80014303A640A780AE8401450464088808D801E00101470308080F40C20C014803AE40AF803A
:40418000EE50014C02AC08AF40015101003A004F00000C005100001000513000400051C00010010000100001140008000140000A00014C0002000150000020980000420091
:4041C0006930091E0328010144E34283009481424400000000000000000000000000000000000000000000000000000000000000000000000000000000000000000000004B
:40420000028293008F828E83E0540100000070F82278FFE4F6D8FD028321E4900A0DF0900BB9E060037F0022900B2F125134900AE4125140C31250C37003024ADF900AE481
:40424000125134900B2F12514C128D6F900A0912514CE4900B33F0900A9EE0900B34F0900AADE0900B35F0900A99E0900B36F0900AACE0900B37F0900A96E0FCE4124E035F
:40428000900B3812514C900AAAE0FCE4124E03E4FBFA79C87842124CE3900B3C12514C900B9DE0900B40F0900B9EE0900B41F0900A97E0FCE4124E037B007A40791C7846D6
:4042C000124BDA900B4212514C900B9FE0900B46F0900A9FE0900B47F0900AA0E0900B48F0900AABE0900B49F07FA87EAA7DAA7C10900A09125140C31250C34019E4FFFED5
:404300007D807C11900A09125140D31250C35006900B337401F0900A091251341251A844A910AAAAA844B110B8E38A44BA10C71C6D44C310D5555044CC10E38E3244D510E9
:40434000F1C71544E710FFFFB544F010FFFFBD44F810FFFFE7450110FFFFEF450910FFFFF845D1111C71B445E2111C71BD45F3111C71C54604111C71CE4615111C71D6466B
:4043800024111C71DE4635111C71E74646111C71EF4657111C71F84560112AAA974568112AAA9F45711138E37145791138E37A45821138E38A458B1138E39345931138E3F8
:4043C0009B459C1138E3A445A51138E3AC45AE11471C4C45B711471C5445C011471C5C45C811471C65468C11471C6D469411471C76466711638E00467011638E08469D11A3
:40440000638E1146A611638E1946AF11638E2246B811638E2A46C111638E3246CA11638E3B46D311638E4346DC1171C6D246EC1171C6DA46FC1171C6E3470C1171C6EB4780
:404440001C1171C6F3472C1171C6FC473C1171C704474C1171C70D475C1171C715476C1171C71D481E117FFD0D477C117FFFAC478D117FFFB5479E117FFFBD47AE117FFF90
:40448000C547BE117FFFCE47CE117FFFD647DE117FFFDE47EE117FFFE747FE117FFFEF480E117FFFF80000482CE4900BBEF002482C900BBE7401F002482C900BBE7402F074
:4044C00002482C900BBE7403F002482C900B407401F002482CE4900B40F012B4D0EF54FEFF12B4CA02482C900B417401F002482CE4900B41F002482C900B467401F0024862
:404500002CE4900B46F002482CE4900B34F0A3F0A304F0A37403F0E4FFFE7D907C41A312514CE4FFFEFD7C3F900B3C12514CE4900B46F0900B40F0A3F0900B47F0FF7E7C53
:404540007D927C49900B4212514C900B48747FF0E4A3F012B4D0EF54FEFF12B4CA02482CE4900B34F002482C900B347401F002482CE4900B35F002482C900B357402F002AD
:40458000482C900B357401F002482CE4900B37F002482C900B377401F002482C900B377402F002482C900B377403F002482C900B367402F002482C900B367401F002482C5D
:4045C000E4900B36F002482C900B367403F002482C7F9A7E997D997C3E900B3C12514C02482C7F337E337DB37C3E900B3C12514C02482C7FCD7ECC7DCC7C3E900B3C1251DA
:404600004C02482C7F667E667DE67C3E900B3C12514C02482CE4FFFEFD7C3F900B3C12514C02482C7FCD7ECC7D0C7C3F900B3C12514C02482C7F9A7E997D197C3F900B3C13
:4046400012514C02482C7F667E667D267C3F900B3C12514C02482C7433FFFEFD7C3F900B3C12514C02482C900B477401F002482CE4900B47F012B4D0EF54DFFF12B4CA12CE
:40468000B4D0EF54F7FF12B4CA02482CE4900B49F002482C900B497401F002482C900B487459F002482C900B487466F002482C900B487473F002482C900B48747FF00248D1
:4046C0002C900B48748BF002482C900B487498F002482C900B4874A5F002482CE4FFFE7DA07C40900B3812514C02482CE4FFFE7DE07C40900B3812514C02482CE4FFFE7D8D
:40470000207C41900B3812514C02482CE4FFFE7D507C41900B3812514C02482CE4FFFE7D707C41900B3812514C02482CE4FFFE7D907C41900B3812514C02482CE4FFFE7DBD
:40474000A07C41900B3812514C02482CE4FFFE7DC87C41900B3812514C02482CE4FFFE7DF07C41900B3812514C02482CE4FFFE7D0C7C42900B3812514C02482C7F007ED613
:404780007D837C49900B4212514C02482C7F007EC47D867C49900B4212514C02482C7F007EB27D897C49900B4212514C807E7F007EA07D8C7C49900B4212514C806E7F003F
:4047C0007E8E7D8F7C49900B4212514C805E7F007E7C7D927C49900B4212514C804E7F007E6A7D957C49900B4212514C803E7F007E587D987C49900B4212514C802E7F005B
:404800007E467D9B7C49900B4212514C801E7F007E347D9E7C49900B4212514C800E7F007E227DA17C49900B4212514C900B33E06003024A2BFFFE7D807C1B900A091251D5
:4048400040D31250C34009900B7E740CF002497EE4FFFE7D807C0F900A09125140D31250C34009900B7E740BF002497EE4FFFEFD7C0D900A09125140D31250C34009900B9B
:404880007E740AF002497EE4FFFEFD7C0B900A09125140D31250C34009900B7E7409F002497EE4FFFE7D807C09900A09125140D31250C34009900B7E7408F002497EE4FFED
:4048C000FEFD7C08900A09125140D31250C34009900B7E7407F002497EE4FFFEFD7C06900A09125140D31250C34009900B7E7406F002497EE4FFFE7D807C04900A091251CE
:4049000040D31250C34008900B7E7405F0806FE4FFFEFD7C03900A09125140D31250C34008900B7E7404F08055E4FFFE7D807C02900A09125140D31250C34008900B7E74DE
:4049400003F0803AE4FFFE7D807C01900A09125140D31250C34008900B7E7402F0801FE4FFFE7DC0FC900A09125140D31250C34008900B7E7401F08005E4900B7EF0E4FF18
:40498000FEFD7C0B900A09125140D31250C34007E4900A0DF0806FE4FFFEFD7C08900A09125140D31250C34008900A0D7401F08055E4FFFE7D807C04900A09125140D31234
:4049C00050C34007E4900A0DF0803BE4FFFE7D807C02900A09125140D31250C34008900A0D7401F08020E4FFFE7D807C01900A09125140D31250C34007E4900A0DF08006B8
:404A0000900A0D7401F0900BA07401F0900A0DE0600D12B4D0EF54EFFF12B4CA024AAA12B4D0EF4410FF12B4CA807F900B34E0900A14F0900B35E0900A15F0900B36E09045
:404A40000A16F0900B3C125134900A1712514CE4900A1BF0900B37E0900A1CF0900B46E0900A1DF0900B40E0900A1EF0900B41E0900A1FF0900B42125134900A2012514C6A
:404A8000900B47E0900A24F0900B48E0900A25F0900B49E0900A26F0900B38125134127DBF126FF9900BA07401F07F667E667D867C0C900A09125140D31250C3401C7F99C8
:404AC0007E997DF97C0D900A09125140C31250C35008900BB87401F08005E4900BB8F07F0022024EA3E86480F8E933E83360110460F0ED33EC337009E8FCE9FDEAFEEBFF0E
:404B0000220460DED3EB9FEA9EE99DE8C2E78CF0C2F795F0400CE8CCF8E9CDF9EACEFAEBCFFB124E6E85D0F05804700320D5B3E80470075002B2D5024EAD92D5EC0460F7DC
:404B4000E4CCC0E0C398F8603B94186008400DD0E0FB024E85E4FBFAC9FC8028E830E406E4C9FBE4CAFCE830E305E4C9CACBFCE854076010F8C3E913F9EA13FAEB13FBECFF
:404B800013FCD8F130F52FC3E49CFCEF9BFFEE9AFEED99FDD0E0FBEF4E4D4C701222DB03024EAAEC2CFCEF33FFEE33FEED33FDED30E7EB024E85EF2BFFEE3AFEED39FDD094
:404BC000E0FB50130BBB0003024EADED13FDEE13FEEF13FFEC13FC024E85EC4D6011E8497017ED33EC3304600DE4FCFFFEFD22E933E8330470F8024EA3124E6E58046009AD
:404C0000E4CC24815006285009024EAD284003024EAAC0E0EB4A7044B98006D0E0FB024E99EF4E701CBD8008EBFFEAFEE9FD80EBE98DF0A4FEE5F0024CC3E9CDF9EAFEEBE9
:404C4000FFEF89F0A4FCE5F0CE89F0A42EFFE435F0CD89F0A42DFEE435F08067EF4E7005BD80D780C3EF8BF0A4ACF0EE8BF0A42CFCE435F0F8EF8AF0A42CE5F038FCE433F0
:404C8000CB8DF0A42CFCE5F03BF8EE8AF0A42CFCE5F038F8E433CF89F0A42CFCE5F038CF3400CE89F0A42FFFE5F03EFEE433C98DF0A42EFEE5F039CD8AF0A42FFFE5F03ED3
:404CC000FEE43DFD33D0E0FB50070BBB000F024EADEC2CFCEF33FFEE33FEED33FD024E85024EADEC5D046005E859047003024EA3124E6E580460F6EC4860F2EC7004FDFE90
:404D0000FF22C860DB2481C85009C39860025006024EAA9850CAF582E9294B4A7005AB82024E9975F0007C1A7880C3EF9BEE9AED99400DC3EF9BFFEE9AFEED99FDE842F017
:404D4000DC23ACF0D0E0FFD0E0FED0E0FDAB8220E7101BEB60BAEC2CFCEF33FFEE33FEED33FD024E85E803F830E705C0F075F000EF2FFFEE33FEED33FD40B830E7C280AA7C
:404D800074F8CC6480CCC86480C8F58204604FC3EB9FF5F0EA9E42F0E99D42F0E89C45F0603C501DE5825FFFE582D313CB5BCBF42B5582FB50280ABA002409B90020088049
:404DC0001DE5825BFBE582D313CF5FCFF4C3132F5582FF50090EBE00050DBD00010CC3EB9FF5F0EA9E42F0E99D42F0E89C45F06007CC4820E701B3EC2275F020800E75F0A6
:404E000010800575F0087D007E007F003392D530D50312509FEC334010EF33FFEE33FEED33FDEC33FCD5F0ED22E5F0247EA2D513CC92E7CDCEFF22EDD2E7CD33EC3392D56A
:404E400024814006E4FFFEFDFC22FCE4CFCECDCC24E0501174FF80EDC3CC13CCCD13CDCE13CECF13CF0470F030D5DE02509FE9D2E7C933E833F892D5EDD2E7CD33EC33FC64
:404E80005002B2D522EC30E7100FBF000C0EBE00080DBD00040BEB6014A2D5EB13FCED92E7FD2274FFFCFDFEFF22E480F8A2D574FF13FC7D80E480EFBB010689828A83E01E
:404EC000225002E722BBFE02E32289828A83E49322BB010689828A83F0225002F722BBFE01F322EF8DF0A4A8F0CF8CF0A428CE8DF0A42EFE22C5F0F8A3E028F0C5F0F8E5C8
:404F000082158270021583E038F022A3F8E0C5F025F0F0E582158270021583E0C838F0E822BB010A89828A83F0E5F0A3F0225006F709A7F01922BBFE06F3E5F009F31922CF
:404F4000EF2BFFEE3AFEED39FDEC38FC22C3EF9BFFEE9AFEED99FDEC98FC22E88FF0A4CC8BF0A42CFCE98EF0A42CFC8AF0EDA42CFCEA8EF0A4CDA8F08BF0A42DCC3825F03C
:404F8000FDE98FF0A42CCD35F0FCEB8EF0A4FEA9F0EB8FF0A4CFC5F02ECD39FEE43CFCEAA42DCE35F0FDE43CFC2275F008758200EF2FFFEE33FECD33CDCC33CCC58233C5EA
:404FC000829BED9AEC99E58298400CF582EE9BFEED9AFDEC99FC0FD5F0D6E4CEFBE4CDFAE4CCF9A88222B800C1B90059BA002DEC8BF084CFCECDFCE5F0CBF97818EF2FFF3A
:40500000EE33FEED33FDEC33FCEB33FB10D703994004EB99FB0FD8E5E4F9FA227818EF2FFFEE33FEED33FDEC33FCC933C910D7059BE99A4007EC9BFCE99AF90FD8E0E4C968
:40504000FAE4CCFB2275F010EF2FFFEE33FEED33FDCC33CCC833C810D7079BEC9AE899400AED9BFDEC9AFCE899F80FD5F0DAE4CDFBE4CCFAE4C8F922EF5BFFEE5AFEED5913
:40508000FDEC58FC22EF4BFFEE4AFEED49FDEC48FC22CFF4CFCEF4CECDF4CDCCF4CC22C3E49FFFE49EFEE49DFDE49CFC22EB9FF5F0EA9E42F0E99D42F0EC6480C864809869
:4050C00045F022EB9FF5F0EA9E42F0E99D42F0E89C45F022E8600FECC313FCED13FDEE13FEEF13FFD8F122E8600FEFC333FFEE33FEED33FDEC33FCD8F122BB010789828ACB
:40510000830251345005E9F8025240BBFE05E9F802524C89828A83025258BB010789828A8302514C5005E9F8025268BBFE05E9F802527422E0FCA3E0FDA3E0FEA3E0FF2222
:40514000E0F8A3E0F9A3E0FAA3E0FB22ECF0A3EDF0A3EEF0A3EFF022A42582F582E5F03583F58322E0FBA3E0FAA3E0F922EBF0A3EAF0A3E9F022E493FB740193FA740293EB
:40518000F922D083D082F8E4937012740193700DA3A393F8740193F5828883E4737402936860EFA3A3A380DFD083D082E4937012740193700DA3A393F8740193F582888381
:4051C000E4737402936C70127403936D700C7404936E70067405936F60DDA3A3A3A3A3A380CAE5092582F582E5083583F583B508048582092210AF06858209F50822858294
:4052000009F508D2AF22E5092582F582E5083583F58322EC8EF0A4CCC5F0CCCDF8EFA4CEC5F02DFDE43CFCE8A42EC8C5F03DFDE43CFCEFA4FFE5F028FEE43DFDE43CFC2288
:40524000E6FC08E6FD08E6FE08E6FF22E2FC08E2FD08E2FE08E2FF22E493FC740193FD740293FE740393FF22ECF608EDF608EEF608EFF622ECF208EDF208EEF208EFF22284
:40528000900A1012514CE4900A16F012AC7B900A14EFF0E0FE5402A3F0EE5401900A14F0900A8BE024FE606D1470030253411470030253D724FE70030253F924056003026E
:4052C000544D900AA3E07027900A14E06008900A88E06401600D900A15E06013900A88E0B4030C900A10125134900A8E12514C900A10125140900A8E125134124F4DE4FB17
:40530000FAF9F8D31250AD500302544D900A8B7402F002544D900A10125140900A92125134124F4DE4FBFAF9F8D31250AD4006900A8B7403F0900A89E0C394045003025439
:405340004D900A10125140900A92125134124F4DE4FBFAF9F8D31250AD500302544D900A89E0FF24FC602914602E14602B24057036900A8DE0900A16F0900A8D7480F09083
:405380000AA3E0C39402401F900A8B7402F08017900A8DE0900A16F0900AA3E0C394034006900A8B7402F0EFC394075006900A89E004F0900AA1E0B40206900A8B7403F09A
:4053C000900A92125134900A9A125140124F40900A9212514C8076900A10125140900A92125134124F4DE4FBFAF9F8D31250AD405C900A8B7405F08054900A10125140905C
:405400000A8E125134124F4DE4FBFAF9F8D31250AD403A900A8B7403F0E4A3F0900A9A125134900A10125140124F40900A9212514CE4900A89F0900A8DE0FF30E00574FF4D
:40544000F0800AEFC313900A8DF04480F0900AA1E0FF64036008EF640260030254E5900A15E06055900A10125134900A1712514C900A8BE0C39404500F7404F0900A171277
:405480005134900A9212514C900A8BE0C39406501B900A17125134900A8E12514C900A17125134129B14900A167401F0900A887403F0E4900A8CF08038900A8BE064057069
:4054C00030A3E0B40108900A8B7403F08023900A8B7406F0900A10125134129B14900A167401F0800C900A8BE0D3940340037406F0900A8CE060030255BA900A8BE0D394D9
:4055000001405B900A14E0FF6038A3E06034900A8AE06011900AA1E0B4010A900A88E0900A8CF08015900A88E0B40108900A8C7403F08006900A8C7401F0900A8A7401F0B1
:405540008078EF6006900A8C7401F0900A15E06006900A8C7403F0E4900A8AF0805C900A8AE06008900AA1E06401604E900A14E06020900A88E064036007A3E0D39400405B
:4055800011900AA2E030E10A900A8C7401F0900A8AF0900A15E06022900A88E064016007A3E0D394004013900AA2E030E00C900A8C7403F0900A8A7401F0900A8BE064032E
:4055C0006003025744A3E0FF7003025744E4FCFDFE900A9A125140124F5B900A10125140124F40900A1712514CE4FFFEFD7C40900AA4125140124BDAE4FBFA798078BF1290
:405600004AE9C004C005C006C007900A9A125134EC124DF9D003D002D001D000124BDAC004C005C006C007900A17125134EC124DF9D003D002D001D000124AE9124E379041
:405640000A1712514C900AA9E0FFE4FCFDFE7BE87A03F9F8124F5B900A17125140124F40900A9212514C900A8E12514C900A92125134129B14900A167401F0E4FFFEFD7C36
:4056800040900AA4125140124BDAA804A905AA06AB07E4FFFEFD7C40124AE5C004C005C006C007900A9A125134EC124DF9D003D002D001D000124BDAC004C005C006C00743
:4056C000900A17125134EC124DF9D003D002D001D000124AE9124E37900A1712514C900AA3E0C394014018900A17125134900A8E12514C900A17125134900A9212514CE4A9
:40570000900A89F0900A8DE0FF30E012B40107900A8CE0B4031C900A8D74FFF08014900A8DE0FFC313F0900A8CE0B40305A3E04480F0900A8CE0900A88F0E4900A8CF09014
:405740000A8B04F0900AA1E0B403037F0022900A16E0FF22900ABBE01251825780005841015AB3085AB30A591A0C5A8A0D593F0E5A8A0F5A56105A8A115AAD1200005AB9D8
:40578000900ACEE06009128ABB900AD412514C900AD8125134900AC4125140C31250C37015900AD4125134900AE4125140C31250C37003025B7712B232900A09EFF0900AE6
:4057C000D4125134900AE412514C900AD8125134900AC412514C900A09E0FF12B140900AE4125134128D6FE4124DF9E4FBFAF9784A124CE3900ABC12514CE4FFFE7D807CE3
:4058000040900ABC125140124D80500DE4FFFE7D807C40900ABC12514CE4FFFE7D207C43900ABC125140124D80600F400DE4FFFE7D207C43900ABC12514C900ABB7401F087
:40584000227F007EC07D5A7C45900AC0125140124BDA7B007A2479747849124CE3900A1812514C900ABAE0FCE4124E03900ABC125140124BDAC004C005C006C007900AB904
:40588000E0FCE4124E03D003D002D001D000124BDA900A1412514C900AC0125140900A14125134124AE512B415900A1C12514C7F007E907D977C45900A14125140124D8096
:4058C000603F403D7F007E307DB17C45900A14125140124D80502A900A18125134900A1C125140124D805019900AB87401F0900A14125134900AC012514C900ABB740CF012
:4059000022E4900AB8F0FF7E307DB17C45900AC012514C900ABB7404F022900ADC7487F0A37420F07B017A0A79DC900A247402F0E4A3F07F551295BF900ABBE004F022900E
:405940000AC4125134128D6FE4124DF9E4FBFA7980784B124CE3A804A905AA06AB07900AC0125134124CE3900A1012514C900A10125134124E37900A0AEEF0A3EFF0FDACD6
:4059800006E4124DFEA804A905AA06AB07900A10125134124AE5E4FBFA7980784D124BDA124E37900A0C12514C74FFFFFEFD7C0F900A0C125140D31250C3400D74FFFFFEB2
:4059C000FD7C0F900A0C12514C900ADD7407F0900ABAE024FC900A09F0E0FFC43354E0F9900ADEF0900AB9E014900A09F0E0FD1313543F49900ADEF0EDC4333354C0F9A3AE
:405A0000F0900A0AE0FAA3E0FBEAC4F854F0C868EBC4540F4849900ADFF0900A0C125134900AE012514C900AE0E0FDEBC4F8540FC868FFEAC454F048ED4FF07B017A0A797F
:405A4000DD900A247407F0E4A3F07F551295BF900ABBE004F022900ADC7487F0900AB8E06007E4900ADDF08006900ADD7440F07B017A0A79DC900A247402F0E4A3F07F557A
:405A80001295BF900ABBE004F02212B004900A09EFF030E707900ABBE014F022900A09E020E103025B77900ABBE004F022E4900ABBF022900ABBE004F0900ABBE0FCE41233
:405AC0004E03900ABC125140124BDAA804A905AA06AB077F007E607DA47C45124CE3124E37900A09EFF0D394014006E030E00204F0900ABBE0FCE4124E03900ABC125140CB
:405B0000124BDAC004C005C006C007900A09E0FCE4124E03D003D002D001D000124BDA900A1412514C900ABBE004F0900A09E0D3948050437F007E907D977C45900A141230
:405B40005140124D806030402E900AC0125134900A14125140124D80501D900A14125134900AC012514C900A09E0900AB9F0900ABBE014900ABAF022E49009F7F0FBFAF914
:405B80009009FA12516DE4900916F0A3F0906000E0548064806003025DB2A3E07003025CF324F87003025D6B24FE7003025D8924046003025F65906003E0B4012D12B0F794
:405BC0009009FDEEF0A3EFF0F5828E83A312517690091812516D900916E4F0A37412F012A98D9009F7EFF0025F65906003E064027064906002E0FF12A50F9009FDEEF0A356
:405C0000EFF09009FDE0FEA3E0FF4E7003025F658F828E83A312517690091812516D900918125164E92403F9E43AFA124EB8FE900918125164E92402F9E43AFA124EB8FD8D
:405C4000EEEDFF900916EEF0A3EFF012A98D9009F7EFF0025F65906003E064036003025CE8FF7BFF7AC0798D9009FA12516D906002E0D39F401F9009FA125164124EB8604A
:405C800014124EB8FE7C0029F9EC3AFA9009FA12516D0F80D9906002E0602290BFD4E493FF906002E0B507157B017A0B790D12908F7B017A0B790D9009FA12516D9009FA6C
:405CC000125164124EB87003025F65124EB8FF900916E4F0A3EFF090091812516D12A98D9009F7EFF0025F6512A4729009F7EFF0025F65906000E05403604224FE600302C5
:405D00005F65900916E4F0A37402F0906004E0547F75F00BA42437F582E43409F583E0900BC2F0E4A3F07B017A0B79C290091812516D12A98D9009F7EFF0025F6590091660
:405D4000E4F0A37402F090092FE0900BC2F0E4A3F07B017A0B79C290091812516D12A98D9009F7EFF0025F65025F65900916E4F0A304F0FB7A09793090091812516D12A95D
:405D80008D9009F7EFF0025F65900916E4F0A304F0906004E02412F9E43409FA7B0190091812516D12A98D9009F7EFF0025F65025F65906001E0147003025E8924FE7003D3
:405DC000025F0024FA601E24FE607824066003025F65906002E0900927F012B1289009F7EFF0025F65906002E09009F9F0E0FFD39400400EEF14FF12A50F9009FDEEF0A3F0
:405E0000EFF09009F9E0FFD39400400A9009FDE07002A3E07006EF6003025F65900930E0FF9009F9E0FE6F600F900930EEF09009227401F0FF125F6B12B1289009F7EFF076
:405E4000025F65129D50EF7003025F65906004E09009F8F0E090091EF09009227401F0126BDB9009F8E0FF2412F582E43409F583E0FE74232FF582E43409F583EEF012B1D6
:405E8000289009F7EFF0025F65906000E05403601D146037146003025F65906002E06003025F651287DC9009F7EFF0025F65906002E064016003025F6590092FE054FDF00B
:405EC00012B1289009F7EFF0025F65906004E0C394044003025F65E02428F582E43409F583C083C082E0FF906002E0F4FEEF5ED082D083F012B1289009F7EFF080678065DE
:405F0000906000E05403601614602C147057906002E070511294809009F7EFF08047906002E06401703F90092FE04402F012B1289009F7EFF0802E906004E0C394045025EA
:405F4000E02428F582E43409F583C083C082E0FF906002E0F4FEEF5ED082D083F012B1289009F7EFF09009F7E0FF22E49009FFF09009FFE0FEC39409507BEE75F00BA424BD
:405F800035F582E43409F583E4F0EE75F00BA42437F582E43409F583E4F0EE75F00BA42436F582E43409F583E4F0EE75F00BA42438F582E43409F583E4F0EE75F00BA424DF
:405FC0003AF582E43409F583E4F0EE75F00BA4243DF582E43409F583E4F0A3F0EE75F00BA4243FF582E43409F583E4F09009FFE004F0025F70EF602FE4900A00F0900A009D
:40600000E0FFC39404502074122FF582E43409F583E4F074232FF582E43409F583E4F0900A00E004F080D6900930E0D39400500302629EE014FF12A50F900A01EEF0A3EF86
:40604000F0900A01E0FCA3E0FDF5828C83A3125176E92407F9E43AFA124EB85440600990092FE04401F0800790092FE054FEF0ED2404FFE43CFE900A01F0A3EFF0F5828E6B
:4060800083E4939009FFF0A37401F0900A00E0C39409400302622FA3E0FEA3E0F5828E83A3125176AF01900A03EAF0A3EFF0E4FF9009FFE0FEEFC39E4003026226900A03E2
:4060C000E0FCA3E0F5828C83740293547FFD900A00E0FE6D7001E46003026214900A03E0A3E0F5828C83740493FC740593FDEE75F00BA4243DF582E43409F583E0FAA3E067
:40610000C39DEA9C5029900A03E0FCA3E0F5828C83740493FC740593FD900A00E075F00BA4243DF582E43409F583ECF0A3EDF0900A03E0FCA3E0FDF5828C83E4932412F5F2
:4061400082E43409F583E0FE8D828C83740193FDEE6D6003026214900A03E0A3E0F5828C837403935403FE900A03E0A3E0F5828C8374029354806030900A00E0FD75F00B0E
:40618000A42436F582E43409F5837401F0B506047C0780027C0DED75F00BA4243AF582E43409F583ECF0802E900A00E0FD75F00BA42436F582E43409F583E4F0EEB40104B6
:4061C0007E0580027E09ED75F00BA4243AF582E43409F583EEF0900A03E0FCA3E0FDF5828C83740293FE900A00E0FB75F00BA42439F582E43409F583EEF08D828C837403D7
:4062000093FEEB75F00BA42435F582E43409F583EEF08012900A04E02407F0900A03E03400F00F0260B0900A00E004F002608B900A01E0FEA3E0F5828E83A3125176AF018F
:40624000900A03EAF0A3EFF0E4900A00F09009FFE0FFA3E0C39F5038900A03E0FEA3E0F5828E83E493FD740293547F75F00BA4243FF582E43409F583EDF0900A04E02407F0
:40628000F0900A03E03400F0900A00E004F080BD12A024900920EEF0A3EFF0128F2222C0E0C0F0C083C082C085C084C086758600C093759300C0D075D000C000C001C002BC
:4062C000C003C004C005C006C0079049D7E0900A43F0900BC1E05440700302651F900A43E0FF540170030264EF900BC1E024BA70030263E724FD600D14700302648E2405BB
:4063000060030264EAEF54DF900A43F0540AFD7C0064087075900BC1E06445705F900B70E0D394004022900B69125164124EB89049D8F09049D77404F0900B6D7401F09092
:406340000BC17446F00264EF900B6EE054026016900B71E0440AF0900BC17460F09044C97480F00264EF9049D6E04410F09049D97410F09049D77404F00264EF9049D7E483
:40638000F0900BC1744AF00264EFED640A4C704F900B71E044A0F0900B6EE05402602A900B71E0FF900BC1E0540860047E0180027E02EE44084F900B71F0900BC17460F092
:4063C0009044C97480F00264EF9049D6E04410F09049D97410F09049D77404F00264EF7F0012B2470264EF900A43E054027066900B70E0FF900B6DE0C39F5025900B6912DA
:406400005164900B6DE029F9E43AFA124EB89049D8F09049D77404F0900B6DE004F00264EF900B6EE054026016900B71E0440AF0900BC17460F09044C97480F00264EF901E
:4064400049D6E04410F09049D97410F09049D77404F00264EF900B6EE054026015900B71E0449AF0900BC17460F09044C97480F0807D9049D6E04410F09049D97410F090B1
:4064800049D77404F0900B71E04490F080619049D8E0FF900B72125164900B6CE029F9E43AFAEF124ED1900B6CE004F0900B6FE0FF900B6CE0C39F50089049D77410F08015
:4064C0002E900B6EE054026015900B71E04409F0900BC17460F09044C97480F080119049D6E04410F0A3E4F080057F0012B247900A43E054206036900B71E0FF900BC1E018
:40650000540860047E0180027E02EF4E900B71F09049D6E054EFF0900BC17410F0800E900BC1E054107006900BC17410F0D007D006D005D004D003D002D001D000D0D0D0CF
:4065400093D086D084D085D082D083D0F0D0E032E4900A09F0900A09E0FFC3940340030265FDEF64027041E02407F582E43409F583E0FF900907E0FBE4900A18F07D01FCCD
:40658000129930900A09E02407F582E43409F583E0FF7B017A097903E9EAE4AD01AC027B477A64129A25804C900A09E0FE2407F582E43409F583E0FF74082EF582E43409BB
:4065C000F583E0FB900A187404F07D017C00129930900A09E02407F582E43409F583E0FF7B017A09790BE9EAE4AD01AC027B477A64129A25900A09E004F0026555900BC81F
:40660000E0FF12AE6C900BC8E0FF900907E0FD12B0C5E4900A09F0900A09E0FFC394034003026734EF04A3F0C39403402FE4F0900A09E0240FF582E43409F583E0FF900A74
:406640000AE0240FF582E43409F583E0FB900A187405F07D807C01129930802A900A09E0240FF582E43409F583E0FF900A0AE0240FF582E43409F583E0FB900A187401F09A
:406680007D80FC129930900A09E0FB75F080900483125158EB2583F583FEE582EEE4AD82AC06C005740F2BF582E43409F583E0FF7B017A09790BE9EAE4AB01D005129A25C0
:4066C000900A09E02400F582E43400F583E0FF900A0AE02400F582E43400F583E0FB900A187402F07D807C01129930900A09E0F975F080900483125158E92583F583FEE5F7
:4067000082EEE4AB82AA06C002C003740029F582E43400F583E0FF7B017A097903E9EAE4AD01AC02D003D002129A25900A09E004F0026617900BC7E0FF12AE6C900BC7E077
:40674000FF90090FE0FD12B0C5900BC9E0FF12AE6C900BC9E0FF900000E0FD12B0C5900BC9E0FF7D0112AA4C900BC7E0FF7D0112AF69900BC7E0FF7D0112AA4C900BC8E0AC
:40678000FF7D0112AA4C22E4900A00F0906000E0900A01F0906004E0547F900A02F0900A01E0FF548064806003026908EF540364027044906001E0247F60030269B49060E8
:4067C00003E0640160030269B4900916F0A37403F0900A02E075F003A424E9F9740A35F0FA7B0190091812516D12A98D900A00EFF00269B40269B4900A01E0540364016068
:40680000030269B4906001E0247E606914700302689F1470030268C9248570030268F3247E60030269B4906003E0B4011E900916E4F0A304F0FB7A0A79E890091812516DF2
:4068400012A98D900A00EFF00269B4906003E0640260030269B4900916F0A37402F07B017A0B790A90091812516D12A98D900A00EFF00269B4906003E0640260030269B435
:40688000900916F0A37402F07B017A0B790690091812516D12A98D900A00EFF00269B4906003E0640260030269B4900916F0A37402F07B017A0B790890091812516D12A92E
:4068C0008D900A00EFF00269B4906003E0640260030269B4900916F0A37402F07B017A0B790490091812516D12A98D900A00EFF00269B4E4900916F0A3F012AB74900A0050
:40690000EFF00269B40269B4900A01E0540364027049906001E01460030269B4906003E0640160030269B4900916F0A37403F0900A02E075F003A424E9F9740A35F0FA7BD9
:406940000190091812516D12AB74900A00EFF0900A02E0900B0CF0805B8059900A01E054036401704F906001E0147048906003E0B4011D900916E4F0A304F0FB7A0A79E8F2
:4069800090091812516D12AB74900A00EFF08024906003E0B4021D900916E4F0A37402F07B017A0B790A90091812516D12AB74900A00EFF0900A00E0FF22E49009F7F09098
:4069C0006000E09009F8F0906001E09009F9F09009F8E0548064806003026B65A3E01251826A00006A2A026B2B206A613A6A813C6AB23D6AD23F6AF1506B055100006B65CB
:406A0000900BB2741EF0A3740FF07B017A0B79B290091812516D900916E4F0A37402F012A98D9009F7EFF0026B6512AC15900BB2EFF0125134EFEEEDEC4408FC900BB212BC
:406A4000514C7B017A0B79B290091812516D900916E4F0A304F012A98D9009F7EFF0026B657B017A0A79D490091812516D900916E4F0A37404F012A98D9009F7EFF0026BA9
:406A8000657F707E3D7D0A7C07128D6F900BB212514C7B017A0B79B290091812516D900916E4F0A37404F012A98D9009F7EFF0026B657B017A0A79D890091812516D900984
:406AC00016E4F0A37404F012A98D9009F7EFF0026B657B017A0A79DE90091812516D900916E4F0A37406F012A98D9009F7EFF08074906002E030E008900BB97401F08005DD
:406B0000E4900BB9F012AC15900BB2EFF07B017A0B79B290091812516D900916E4F0A304F012A98D9009F7EFF0803A906003E0B487337B027A60790412B37FEF64014E708B
:406B40002412AEBBE4900BB2F07B017A0B79B290091812516D900916E4F0A304F012A98D9009F7EFF09009F8E054807068A3E024CE60261460422403705B7B017A0A79CED0
:406B800090091812516D900916E4F0A37406F012AB749009F7EFF0803C7B017A0A79D490091812516D900916E4F0A37404F012AB749009F7EFF0801D7B017A0A79D89009E5
:406BC0001812516D900916E4F0A37404F012AB749009F7EFF09009F7E0FF22900930E0D394005003026DEBE014FF12A50FEF2404FFE43EFE8F82F583E4939009FFF08F82A9
:406C00008E83A3125176AB01E4F99009FFE0FFE9C39F4003026DEB8B828A83E493FE2423F582E43409F583E0FF74122EF582E43409F583E06F7003026DE08B828A83E493B4
:406C40002412F582E43409F583E0FF8B828A83740193FEEF6E6003026DE093FF906004E0FEEF6E6003026DE08B828A83740293547FFD24FFFFE434FFFEEFC4F8540FC868E5
:406C8000FFEEC454F048900A00EFF08B828A837403935403FC7402935480602CED75F00BA42436F582E43409F5837401F0B504047F0780027F0DED75F00BA4243AF582E463
:406CC0003409F583EFF0802AED75F00BA42436F582E43409F583E4F0ECB401047F0580027F09ED75F00BA4243AF582E43409F583EFF0900A00E0FC240EFFE434608F82F571
:406D0000837401F08B828A83740493FE740593FFED75F00BA4243DF582E43409F583EEF0A3EFF08B828A83740293FFED75F00BA42439F582E43409F583EFF08B828A83746E
:406D40000393FFED75F00BA42435F582E43409F583EFF0ED75F00BA42438F582E43409F583E4F0EC2480FFE434608F82F583E054FEF0ED24FFFFE434FFFEEF25E0FFEE330A
:406D8000906014EFF0E04401F0906014E0541060F88B828A837402935480701F90608FC083C082E0FFED14FE7401A806088002C333D8FC4FD082D083F0801E90608FC08318
:406DC000C082E0FFED14FE7401A806088002C333D8FCF45FD082D083F0906014E054FEF0EB2407FBE43AFA09026C0A22E4900A0EF0900A11F0A3F0900A0EE0FFC394064054
:406E000003026ED8EF14605C146037146056147003026E94147003026EB2240570D9900ADC7487F0A37401F0FB7A0A79DC900A2404F0E4A3F07F551295BF900A0EE004F011
:406E400080B5900ADC7407F07B017A0A79DC900A247401F0A304F07F551295BF900A0EE004F0809312B004900A0DEFF030E706A3E014F0800B900A0DE030E104A3E004F096
:406E8000900A1174FFF5F0124EF545F06003026DF77F01227B017A0A79DE900A1B7406F0A37401F07F551293DF900A0EE004F0026DF712B004900A0DEFF030E707A374029F
:406EC000F0026DF7900A0DE020E003026DF7A3E004F0026DF7026DF7900AD8125134EC4D4E4F6003026FC3900ADEE0FDC41354072404900A0BF0ED541FFF25E025E0FF9057
:406F00000ADFE0FEC4131354034F04900A0CF0EE543FC4F8540FC868FFE4C454F048FE900AE0E0FDC4540FFDEEEF4DFF900A0FEEF0A3EFF0900AE0125134EFEEEDEC540F88
:406F4000FCE4124DF9E4FBFA7980784D124CE3C004C005C006C007900A0FE0FCA3E0FDE4124DFED003D002D001D000124AE9900A1312514C900A0BE0FCE4124E037BAE7A53
:406F80004779617842124BDAC004C005C006C007900A0CE0FCE4124E03D003D002D001D000124BDA900A13125140124CE3E4FBFA7980784B124BDA124E37128D6F900AD8EF
:406FC00012514CE4900A0DF0900A0DE0C394065021E0FF24DEF582E4340AF583E0FE74C82FF582E4340AF583EEF0900A0DE004F080D6E4900ACEF0FF22900A0E7480F0A38B
:407000007410F0900A0EE0FEA3E0F5828E83E0900AB7F0E0645A6041E4900A14F0A3F0A304F0E4FFFEFD7C3FA312514CE4900A1BF0A37403F0E4A3F0A3F0A3F0FFFEFDFC2E
:40704000A312514CE4900A24F0A3747FF0E4A3F0FFFE7D907C41127DBF900A0EE0FEA3E0FFF5828E83A3E0900A9EF08F828E83A3A3E0900AADF0900A0EE0FEA3E0FFF582E1
:407080008E83A3A3A3E0900A99F0EF2404F582E43EF583E0900AAEF0900A0EE0FEA3E0FF2405F582E43EF583E0900AACF0EF2407F582E43EF583E0900B9FF0900A0EE0FE80
:4070C000A3E0FF2408F582E43EF583E0900B9DF0EF2409F582E43EF583E0900B9EF0900A0EE0FEA3E0FF240AF582E43EF583E0900A9FF0EF240BF582E43EF583E0900AA0FA
:40710000F0900A0EE0FEA3E0FF240CF582E43EF583E0900A96F0EF240DF582E43EF583E0900AAAF0900A0EE0FEA3E0FF240EF582E43EF583E0900A97F0EF240FF582E43ECA
:40714000F583E0900AABF0900AA0E0FCE4124E037B007A2079F67844124BDAC004C005C006C007900A96E0FCE4124E03A804A905AA06AB07D007D006D005D004124CE312E0
:407180004E3712B39B900A96E0FCE4124E0312A907900A9EE0900AA8F0900AADE0900AA1F0900A99E0900AA3F0900AAAE0FCE4124E03E4FBFA79C87842124CE3900AA4122D
:4071C000514C900AAEE0900AA9F0900AACE0900AA2F022906564E0FD7C0020E0030273A3906566E0FEE42DFDEC3EFCFEAF05ED2410FFEE34AA900A09F0A3EFF0900B82E039
:40720000FEA3E0FF900A09E0FCA3E0FDC39FFFEC9EA3F0A3EFF0EC124DFE7B177AB779D17839124BDA124E37900A0DEEF0A3EFF0900A0BE0FCA3E0FDEC124DFEE4FBFAF9D7
