:1000000002240E008F828E83E0540100000070F8FD
:100010002278FFE4F6D8FD022473900001EFF0E4AB
:10002000F541F54275430AF544C200F545F546121F
:100030003DAFD2AF9044F474FDF0E4F53D754C0053
:10004000754D00754E39900001E0FF70067EFF7F10
:10005000FF80008F4F7B017A0079027D2C7C01129A
:1000600026C98F40900001E060021543E54360041B
:10007000E54070C9E5406003020655C3E53A9407C0
:10008000E53994004008900002E064016006753D87
:100090000402011A900005E0FE900004E0FDEEF578
:1000A00041EDF542E5422407FFE43541FED3EF95EB
:1000B0003AEE95395008EF942CEE94014005753DC9
:1000C00003805774072542F58274003541F583E0BB
:1000D000FE74062542F58274003541F583E0FDEE9D
:1000E000F53EEDF53F74082542F58274003541F583
:1000F00083E064176005753D04801F7B017A0079F9
:1001000002E5422404FDE43541FC122B91EF653FEA
:100110007003EE653E6003753D08E4F53BF53CE594
:100120003D6003020644900006E0F538753D0490FA
:100130000003E01209320155310182320208340312
:10014000E83503F63704423802083904843A062BAE
:100150003B00000641200003020644E542454160A1
:1001600003020644FF121A02EF70047F0180027F2F
:1001700000900006EFF0753B00753C01E4F53D0290
:100180000644200003020644E54264014541600341
:10019000020644E538C39401400302064490062950
:1001A000E0FEA3E0F5828E831208C0E4FBFA790139
:1001B000F81207968F24E538B5241E900629E0FE34
:1001C000A3E0F5828E831208C0E4FB7A01F9F812ED
:1001D00007967522008F238014E538D395244007B5
:1001E000E4F522F5238006752201752300E52390AE
:1001F0000006F0E522A3F0A374FFF0E4A3F0F53BC2
:10020000753C04F53D020644900003E06434703C04
:10021000200003020644E5426403454160030206F0
:1002200044E538C39440400FE538D3947F500875B7
:1002300045007546108006754501754620AE45AFF0
:10024000467D007B017A01792E1209A92000030264
:100250000644C3E5429403E541940050030206447A
:10026000E54224FDFFE54134FFFE742E2546F97476
:10027000013545A801FC7D017B017A007909120A4C
:1002800091E54224FDFFE54134FFFEEF2546F546AA
:10029000EE3545F545E538C39440401BE538D39429
:1002A0007F5014123A8075410075421090025AE452
:1002B000F0A37480F0800F75410175422090025ABE
:1002C0007401F0A3E4F0E54665427004E54565413C
:1002D00060030203DD900008E0FE900007E0FDEE01
:1002E000F545EDF546D390025BE0954690025AE065
:1002F000954540047F0080027F0A8F3DE53D600305
:10030000020644E538D3943F40030203B7E5387F43
:1003100000FEEF2546FFE5453E90025CF0A3EFF0BE
:10032000900629E0FEA3E0F5828E831208C0E4FB6C
:100330007A01F9F812079690025EEEF0A3EFF090C2
:100340000629E0FEA3E0F5828E831208C0EFE4EFF9
:10035000600A90025EE475F00112069090025EE081
:10036000FEA3E0FFC390025DE09F90025CE09E5020
:100370000B753D0AE4F545F546020644E544703741
:100380007E017F20FD7B017A0279601209A9E49049
:100390000380F0E0FFE4C374FF9FFDE49400FC7B66
:1003A000017A02796090049A7401F0A37420F0E459
:1003B000FF121BBC7544017B017A01792E90049ACF
:1003C000E541F0A3E542F0AD46AC45AF38121BBCA9
:1003D000EF60047F0A80027F008F3D8003753D033C
:1003E000E4F545F546020644200003020644E4F520
:1003F00045F546020655200003020644E54625421F
:10040000FFE5453541FED3EF942CEE9401502DE4E9
:10041000F53DAE41AF42742E2546F974013545A82D
:1004200001FC7D017B017A007906120A91E54225E3
:1004300046F546E5413545F545020644753D03025E
:100440000644E5424541703678257C00FD7BFF7A05
:10045000417970FE7F08120A91D200753B00753C0D
:1004600008E4F545F546AE3BAF3C78067C007D01DF
:10047000FB7A007925120A91E4F53D020644753DA8
:1004800004020644200003020644E5426403454199
:100490006003020644900008E0FE900007E0FDEED5
:1004A000F52FEDF530E538C394404056E538D39448
:1004B0007F504FAE2FAF307C007D1012097C8F36FD
:1004C0008E358D348C33C3E5309480E52F94005005
:1004D000047F0080027F0A8F3DE53D6003020644F1
:1004E00085364E85354D85344C85334BE475521039
:1004F000F551F550F54FFF7E80FDFC122F428F37EE
:10050000806AAE2FAF307C017D0012097CC004C030
:1005100005C006C007AF38E4FCFDFEFBFA7901F820
:1005200012070BD003D002D001D0001206F08F3694
:100530008E358D348C33C3E52F940150047F0080B9
:10054000027F0A8F3DE53D600302064485364E85F5
:10055000354D85344C85334BE4F552755101F550DA
:10056000F54FFFFE7D10FC122F428F37E538D394F4
:100570003F5072AF387E007C207D0012097CE42F52
:10058000FFE43EFEED3408FDE43CFCC004A905AAEE
:1005900006AB07AE2FAF307C007D2012097CD00067
:1005A0001206F08F368E358D348C33E4F52DF52E12
:1005B000C3E52E9420E52D9400502AE4E52E25363F
:1005C000FFE52D3535FEE43534FDE43533A907AAC2
:1005D00006AB05123EC3EF2537F537052EE52E7025
:1005E00002052D80CB852F31853032E538702AAE5B
:1005F00031AF32FCFD7BFFFAF9F8C31208437019E2
:10060000FD7F05120EE2C3E5379FF537E4FD7F0657
:10061000120EE2C3E5379FF537E537F40490000684
:10062000F0E4F53DF53B753C018019E4FF121A0238
:10063000EF70069046FA7480F0123F2F123EFB8056
:1006400003753D057B017A007902853B4B853C4C67
:10065000AF3D122A1B900001E0700302003A300007
:100660000302003A22BB010689828A83E0225002FB
:10067000E722BBFE02E32289828A83E49322BB0144
:100680000689828A83F0225002F722BBFE01F32200
:10069000C5F0F8A3E028F0C5F0F8E58215827002F5
:1006A0001583E038F022BB010A89828A83E0F5F0E5
:1006B000A3E022500687F009E71922BBFE07E3F505
:1006C000F009E3192289828A83E493F5F074019397
:1006D00022BB010A89828A83F0E5F0A3F02250064A
:1006E000F709A7F01922BBFE06F3E5F009F319227A
:1006F000EF2BFFEE3AFEED39FDEC38FC22C3EF9B09
:10070000FFEE9AFEED99FDEC98FC22E88FF0A4CC68
:100710008BF0A42CFCE98EF0A42CFC8AF0EDA42C28
:10072000FCEA8EF0A4CDA8F08BF0A42DCC3825F0F7
:10073000FDE98FF0A42CCD35F0FCEB8EF0A4FEA9E2
:10074000F0EB8FF0A4CFC5F02ECD39FEE43CFCEAEF
:10075000A42DCE35F0FDE43CFC2275F00875820036
:10076000EF2FFFEE33FECD33CDCC33CCC58233C576
:10077000829BED9AEC99E58298400CF582EE9BFE07
:10078000ED9AFDEC99FC0FD5F0D6E4CEFBE4CDFA62
:10079000E4CCF9A88222B800C1B90059BA002DEC06
:1007A0008BF084CFCECDFCE5F0CBF97818EF2FFF9E
:1007B000EE33FEED33FDEC33FCEB33FB10D7039946
:1007C0004004EB99FB0FD8E5E4F9FA227818EF2FF3
:1007D000FFEE33FEED33FDEC33FCC933C910D70512
:1007E0009BE99A4007EC9BFCE99AF90FD8E0E4C931
:1007F000FAE4CCFB2275F010EF2FFFEE33FEED3361
:10080000FDCC33CCC833C810D7079BEC9AE899408D
:100810000AED9BFDEC9AFCE899F80FD5F0DAE4CDEF
:10082000FBE4CCFAE4C8F922EF4BFFEE4AFEED49B7
:10083000FDEC48FC22C3E49FFFE49EFEE49DFDE442
:100840009CFC22EB9FF5F0EA9E42F0E99D42F0E825
:100850009C45F022E8600FECC313FCED13FDEE1392
:10086000FEEF13FFD8F122E8600FEFC333FFEE3342
:10087000FEED33FDEC33FCD8F122BB010789828AFF
:10088000830208B45005E9F8020AB7BBFE05E9F88F
:10089000020AC389828A830208C0BB010789828A4F
:1008A000830208DC5005E9F8020ACFBBFE05E9F82F
:1008B000020ADB22E0FCA3E0FDA3E0FEA3E0FF22AE
:1008C000E493FC740193FD740293FE740393FF227E
:1008D000E0F8A3E0F9A3E0FAA3E0FB22ECF0A3ED3B
:1008E000F0A3EEF0A3EFF022A42582F582E5F03527
:1008F00083F58322E0FBA3E0FAA3E0F922EBF0A367
:10090000EAF0A3E9F022E493FB740193FA740293F2
:10091000F922BB010789828A830208F45005E9F8AD
:10092000020AE7BBFE05E9F8020AF089828A83021F
:100930000906D083D082F8E4937012740193700D8D
:10094000A3A393F8740193F5828883E473740293EC
:100950006860EFA3A3A380DFE5092582F582E5089F
:100960003583F583B508048582092210AF06858298
:1009700009F50822858209F508D2AF22EC8EF0A491
:10098000CCC5F0CCCDF8EFA4CEC5F02DFDE43CFCF9
:10099000E8A42EC8C5F03DFDE43CFCEFA4FFE5F063
:1009A00028FEE43DFDE43CFC22EF4E6012EF6001C6
:1009B0000EEDBB010B89828A83F0A3DFFCDEFA22F5
:1009C00089F05007F709DFFCA9F022BBFEFCF30910
:1009D000DFFCA9F022E709F608DFFA8046E709F212
:1009E00008DFFA803E88828C83E709F0A3DFFA8073
:1009F00032E309F608DFFA806EE309F208DFFA80D5
:100A00006688828C83E309F0A3DFFA805A89828AA0
:100A100083E0A3F608DFFA804E89828A83E0A3F29E
:100A200008DFFA804280D280FA80C680D480558068
:100A3000F28029801080A680EA809A80A880DA80DF
:100A4000E280CA802988848C8589828A83E493A382
:100A50000586F0A30586DFF5DEF3800B89828A83A5
:100A6000E493A3F608DFF9ECFAA9F0EDFB22888401
:100A70008C8589828A83E0A30586F0A30586DFF64C
:100A8000DEF480E389828A83E493A3F208DFF980AD
:100A9000D688F0EF60010E4E60CD88F0ED2402B4F0
:100AA000040050C3F582EB2402B4040050B92323A0
:100AB000458223900A2573E6FC08E6FD08E6FE0859
:100AC000E6FF22E2FC08E2FD08E2FE08E2FF22EC7B
:100AD000F608EDF608EEF608EFF622ECF208EDF275
:100AE00008EEF208EFF222E6FB08E6FA08E6F92241
:100AF000E2FB08E2FA08E2F922E49004AFF0906029
:100B000000E09004B1F07B007A007900A31208FDA8
:100B1000E490054CF0A3F09004B1E0548064806050
:100B200003020D2F906001E07003020C7024F87036
:100B300003020CE824FE7003020D06240460030285
:100B40000EDC906003E0B4012D123D389004B5EE48
:100B5000F0A3EFF0F5828E83A312090690054E12E2
:100B600008FD90054CE4F0A37412F01238009004D4
:100B7000AFEFF0020EDC906003E0640270639060FF
:100B800002E0FF12372A9004B5EEF0A3EFF04E70AA
:100B900003020EDC9004B5E0FEA3E0F5828E83A391
:100BA00012090690054E1208FD90054E1208F4E950
:100BB0002403F9E43AFA120665FE90054E1208F491
:100BC000E92402F9E43AFA120665FDEEEDFF90051C
:100BD0004CEEF0A3EFF01238009004AFEFF0020EED
:100BE000DC906003E06403707CFF7BFF7A3F7974E4
:100BF0009004B21208FD906002E0D39F401F900461
:100C0000B21208F41206656014120665FE7C002913
:100C1000F9EC3AFA9004B21208FD0F80D990600204
:100C2000E0FF6016903F49E493FEEFB5060C7BFFB2
:100C30007A3F79D39004B21208FD9004B21208F4FE
:100C40001206657003020EDC120665FF90054CE487
:100C5000F0A3EFF090054E1208FD1238009004AF9B
:100C6000EFF0020EDC12325F9004AFEFF0020EDC08
:100C70009004B1E05403604224FE6003020EDC9055
:100C8000054CE4F0A37402F0906004E0547F75F02A
:100C90000BA42467F582E43405F583E0900630F078
:100CA000E4A3F07B017A06793090054E1208FD121C
:100CB00038009004AFEFF0020EDC90054CE4F0A396
:100CC0007402F090055FE0900630F0E4A3F07B0141
:100CD0007A06793090054E1208FD1238009004AF64
:100CE000EFF0020EDC020EDC90054CE4F0A304F001
:100CF000FB7A05796090054E1208FD1238009004C9
:100D0000AFEFF0020EDC90054CE4F0A304F090602D
:100D100004E0244BF9E43405FA7B0190054E1208F7
:100D2000FD1238009004AFEFF0020EDC020EDC90F2
:100D30006001E0147003020DFE24FE7003020E76C3
:100D400024FA601E24FE607624066003020EDC9006
:100D50006002E090055AF0123D819004AFEFF0027E
:100D60000EDC906002E09004B0F0D39400400EE0FE
:100D700014FF12372A9004B5EEF0A3EFF09004B000
:100D8000E0FFD39400400A9004B5E07002A3E07045
:100D900006EF6003020EDC900560E0FF9004B0E017
:100DA000FE6F600F900560EEF09005587401F0FF43
:100DB00012128B123D819004AFEFF0020EDC123064
:100DC000C1EF7003020EDC906004E0FE900554F069
:100DD000744B2EF582E43405F583E0FF74592EF54B
:100DE00082E43405F583E06F60099005587401F0E2
:100DF00012161B123D819004AFEFF0020EDC90043E
:100E0000B1E05403601D146037146003020EDC90DF
:100E10006002E06003020EDC1227A59004AFEFF041
:100E2000020EDC906002E064016003020EDC9005BB
:100E30005FE054FDF0123D819004AFEFF0020EDC54
:100E4000906004E0FFC394014003020EDC745B2F4A
:100E5000F582E43405F583C083C082E0FF90600230
:100E6000E0F4FEEF5ED082D083F0123D819004AFBB
:100E7000EFF0806880669004B1E05403601614605F
:100E80002C147058906002E07052122EBB9004AF88
:100E9000EFF08048906002E06401704090055FE0F0
:100EA0004402F0123D819004AFEFF0802F90600477
:100EB000E0FFC394015025745B2FF582E43405F5FF
:100EC00083C083C082E0FF906002E0F4FEEF5ED05A
:100ED00082D083F0123D819004AFEFF09004AFE038
:100EE000FF22900381EDF0AB079003867402F0E4DB
:100EF000FFFEFDFCA31208DCEB1209320F24010FE8
:100F000051020F76030F9B040FC0050FEB06103B39
:100F10000710160810600910850A10AF0B10D90CC5
:100F200000001103900381E0FF7E007C017D001230
:100F3000097C120835EF24C0FFEE34FFFEED3410BB
:100F4000FDE43CFCA31208DC9003867401F002115E
:100F500013900381E0FF7E007C017D0012097CC3B9
:100F600074C39FFF74FF9EFE74109DFDE49CFCA360
:100F70001208DC021113900381E0FF7E007C017DEA
:100F80000012097CC374C79FFF74FF9EFE74109DFE
:100F9000FDE49CFCA31208DC021113900381E0FF26
:100FA0007E007C017D0012097CC374CB9FFF74FF1F
:100FB0009EFE74109DFDE49CFCA31208DC0211133C
:100FC000900381E0FF7E007C017D0012097CC374E8
:100FD000D09FFF74FF9EFE74109DFDE49CFCA31245
:100FE00008DC9003867401F0021113900381E0FF86
:100FF0007E007C017D0012097CC374D19FFF74FFC9
:101000009EFE74109DFDE49CFCA31208DC900386F8
:101010007401F0021113900381E0FF7E007C017DDA
:101020000012097CC374D69FFF74FF9EFE74109D4E
:10103000FDE49CFCA31208DC021113900381E0FF85
:101040007E007C017D0012097CC374D29FFF74FF77
:101050009EFE74109DFDE49CFCA31208DC0211139B
:10106000900381E0FF7E007C017D0012097CC37447
:10107000D49FFF74FF9EFE74109DFDE49CFCA312A0
:1010800008DC021113900381E0FF7E007C017D00EB
:1010900012097CC374D89FFF74FF9EFE74109DFDDF
:1010A000E49CFCA31208DC9003867404F080649036
:1010B0000381E0FF7E007C017D0012097CC374DCAB
:1010C0009FFF74FF9EFE74109DFDE49CFCA312081C
:1010D000DC9003867401F0803A900381E0FF7E008B
:1010E0007C017D0012097CC374E09FFF74FF9EFEAB
:1010F00074109DFDE49CFCA31208DC90038674042C
:10110000F080107F00123DC5E4FFFEFDFC900382DD
:101110001208DC900386E0B401199003821208B42F
:10112000A907AA06AB05123EC3E4FCFDFE900387A7
:101130001208DC900386E06402705C90038212085F
:10114000B4EF2401FFE43EFEE43DFDE43CA907AA20
:1011500006AB05123EC3E4FCFDFE9003871208DCDB
:101160009003871208D0C000C001C002C0039003E2
:10117000821208B4A907AA06AB05123EC3E4FCFD1F
:10118000FE7808120867D003D002D001D000120800
:10119000289003871208DC900386E0640460030251
:1011A00012849003821208B4EF2403FFE43EFEE4AD
:1011B0003DFDE43CA907AA06AB05123EC3E4FCFDD5
:1011C000FE9003871208DC9003871208D0C000C08D
:1011D00001C002C0039003821208B4EF2402FFE4AE
:1011E0003EFEE43DFDE43CA907AA06AB05123EC362
:1011F000E4FCFDFE7808120867D003D002D001D0CD
:10120000001208289003871208DC9003871208D088
:10121000C000C001C002C0039003821208B4EF24D2
:1012200001FFE43EFEE43DFDE43CA907AA06AB0550
:10123000123EC3E4FCFDFE7810120867D003D00212
:10124000D001D0001208289003871208DC90038791
:101250001208D0C000C001C002C00390038212086F
:10126000B4A907AA06AB05123EC3E4FCFDFE78183C
:10127000120867D003D002D001D0001208289003D2
:10128000871208DC9003871208B422E49004B9F0B6
:10129000A3F09004B7F09004B7E0FEC39409507B2C
:1012A000EE75F00BA42465F582E43405F583E4F0D3
:1012B000EE75F00BA42467F582E43405F583E4F0C1
:1012C000EE75F00BA42468F582E43405F583E4F0B0
:1012D000EE75F00BA4246DF582E43405F583E4F09B
:1012E000A3F0EE75F00BA4246FF582E43405F583CA
:1012F000E4F0EE75F00BA42466F582E43405F58382
:10130000E4F0EE75F00BA4246AF582E43405F5836D
:10131000E4F09004B7E004F0021296EF602FE4903E
:1013200004B8F09004B8E0FFC394015020744B2F30
:10133000F582E43405F583E4F074592FF582E43442
:1013400005F583E4F09004B8E004F080D6900560E1
:10135000E0D39400500302161AE014FF12372A90CB
:1013600004BBEEF0A3EFF09004BBE0FCA3E0FDF5BE
:10137000828C83A3120906E92407F9E43AFA1206DB
:10138000655440600990055FE04401F080079005D6
:101390005FE054FEF0ED2404FFE43CFE9004BBF05B
:1013A000A3EFF0F5828E83E4939004B7F0A3740169
:1013B000F09004B8E0C3940940030215569004BBB2
:1013C000E0FEA3E0F5828E83A3120906AF0190042C
:1013D000BDEAF0A3EFF0E4FF9004B7E0FEEFC39E98
:1013E000400302154D9004BDE0FCA3E0F5828C8320
:1013F000740293547FFD9004B8E0FE6D7001E460C8
:101400000302153B9004BDE0A3E0F5828C837404D5
:1014100093FC740593FDEE75F00BA4246DF582E446
:101420003405F583E0FAA3E0C39DEA9C50299004BB
:10143000BDE0FCA3E0F5828C83740493FC740593F7
:10144000FD9004B8E075F00BA4246DF582E434053A
:10145000F583ECF0A3EDF09004BDE0FCA3E0FDF516
:10146000828C83E493244BF582E43405F583E0FE1B
:101470008D828C83740193FDEE6D600302153B90A9
:1014800004BDE0A3E0FDF5828C83740293FE90041A
:10149000B8E0FB75F00BA42469F582E43405F5830C
:1014A000EEF08D828C83740393FEEB75F00BA42415
:1014B00065F582E43405F583EEF09004BDE0FCA30D
:1014C000E0F5828C837403935403FE9004BDE0A383
:1014D000E0F5828C8374029354806031EEB4010491
:1014E0007D0780027D0D9004B8E0FC75F00BA4240C
:1014F0006AF582E43405F583EDF0EC75F00BA42475
:1015000066F582E43405F5837401F0802EEEB401B3
:10151000047E0580027E099004B8E0FD75F00BA4FE
:10152000246AF582E43405F583EEF0ED75F00BA442
:101530002466F582E43405F583E4F09004BEE024EB
:1015400007F09004BDE03400F00F0213D89004B807
:10155000E004F00213B19004BBE0FEA3E0F5828E3C
:1015600083A3120906AF019004BDEAF0A3EFF0E4F3
:101570009004B8F09004B7E0FFA3E0C39F50389008
:1015800004BDE0FEA3E0F5828E83E493FD74029334
:10159000547F75F00BA4246FF582E43405F583EDD8
:1015A000F09004BEE02407F09004BDE03400F09019
:1015B00004B8E004F080BD1233E4900556EEF0A3C9
:1015C000EFF0E49004B9F0A3F09004B704F09004B5
:1015D000B7E0FFC39409503F9004B9E0FCA3E0FDDD
:1015E000EF75F00BA4246BF582E43405F583ECF081
:1015F000A3EDF0EF75F00BA4246DF582E43405F54E
:1016000083E0FEA3E0FF9004B9EE8FF01206909005
:1016100004B7E004F080B712250222900560E0D301
:1016200094005003021822E014FF12372AEF24041A
:10163000FFE43EFE8F82F583E4939004B7F08F823F
:101640008E83A3120906AD01AC02900554E090040C
:10165000B8F0E4FB9004B7E0FFEBC39F400302182F
:10166000228D828C83E493FF9004B8E0FE6F6003C8
:101670000218178D828C830493FF744B2EF582E43D
:101680003405F583E06F60030218178D828C837434
:101690000293547FFA7403935403F9EA75F00BA490
:1016A0002468F582E43405F583E4F08D828C83743C
:1016B0000293FFEA75F00BA42469F582E43405F582
:1016C00083EFF08D828C83740393FFEA75F00BA493
:1016D0002465F582E43405F583EFF08D828C837404
:1016E0000493FE740593FFEA75F00BA4246DF58254
:1016F000E43405F583EEF0A3EFF08D828C83740261
:10170000935480602DE9B401047F0780027F0DEAC5
:1017100075F00BA4246AF582E43405F583EFF0EA52
:1017200075F00BA42466F582E43405F5837401F0AA
:10173000802AE9B401047F0580027F09EA75F00B75
:10174000A4246AF582E43405F583EFF0EA75F00B22
:10175000A42466F582E43405F583E4F075F010EA1C
:10176000905FFE1208E87401F0EA75F00BA4246D96
:10177000F582E43405F583E0FF75F010EA905FFC34
:101780001208E8EFF0EA75F00BA4246DF582E4345A
:1017900005F583E0A3E0FF75F010EA905FFD120805
:1017A000E8EFF0EA75F00BA4246BF582E43405F55C
:1017B00083E0A3E0FF75F010EA9060761208E8EF8E
:1017C000F0EA75F00BA4246BF582E43405F583E0B0
:1017D000FF75F010EA9060771208E8EFF0EA75F014
:1017E0000BA4246BF582E43405F583E0A3E0FF75D8
:1017F000F010EA9060741208E8EFF0EA75F00BA4BC
:10180000246BF582E43405F583E0FF75F010EA906F
:1018100060751208E8EFF0ED2407FDE43CFC0B02D4
:10182000165422E49004B9F0906004E09004BAF0F9
:10183000906000E05480700302191EA3E014605809
:101840001460701470030218EB24FD60030219FC8D
:10185000906003E0B4211B122CF190054CE0700263
:10186000A3E070030219FC1238009004B9EFF002F3
:1018700019FC906003E0642260030219FC122881C5
:1018800090054CE07002A3E070030219FC123800CE
:101890009004B9EFF00219FC121D4190054CE07064
:1018A00002A3E070030219FC1238009004B9EFF0B3
:1018B0000219FC9004BAE0FFC3940140030219FC32
:1018C000906002E060030219FC90054CF0A304F064
:1018D000742C2FF9E43406FA7B0190054E1208FDB2
:1018E0001238009004B9EFF00219FC9004BAE0FF3E
:1018F000C3940140030219FC90054CE4F0A304F0EA
:10190000742D2FF9E43406FA7B0190054E1208FD80
:101910001238009004B9EFF00219FC0219FC906033
:1019200001E024F660281470030219D52402600334
:101930000219FC121D4190054CE07002A3E07003F7
:101940000219FC1239E19004B9EFF00219FC90047D
:10195000BAE0FFC3940140030219FC906002E0600A
:10196000030219FCA3E0FE742C2FF582E43406F583
:1019700083EEF0742B2FF582E43406F583E0FE74D9
:101980002C2FF582E43406F583E0C39E50119004B9
:10199000BAE0242BF582E43406F583E4F0802C9041
:1019A00004BAE0FF242BF582E43406F583E0D394F7
:1019B000014018742C2FF582E43406F583E0FE74A0
:1019C0002B2FF582E43406F583EEF0123D8190046E
:1019D000B9EFF080279004BAE0FFC39401501D9046
:1019E0006002E0FE94015014742D2FF582E4340659
:1019F000F583EEF0123D819004B9EFF09004B9E068
:101A0000FF228F47AD477F03120EE2EF2401FFE470
:101A10003EFEE43DFDE43CFCE4FB7A01F9F81207EC
:101A20000BC004C005C006C007AD477F04120EE21C
:101A3000D003D002D001D0001206F08F4F8E4E8D11
:101A40004D8C4CC201E4F550AD477F06120EE2EF1B
:101A500064014E7002FF22AD477F03120EE2EF24B5
:101A600001FFE43EFEE43DFDE43CFCE4FB7A01F9C9
:101A7000F812070B8F4B8E4A8D498C48AF4FAE4EF4
:101A8000AD4DAC4CAB4BAA4AA949A848C312084378
:101A90005032854B82854A83E493F5516005F460AA
:101AA00002D201E5512550F550AF4BAE4AAD49ACDD
:101AB00048E47B01FAF9F81206F08F4B8E4A8D4903
:101AC0008C4880B8AD477F03120EE2EF2401FFE49B
:101AD0003EFEE43DFDE43CFCE4FB7A01F9F812072C
:101AE0000B78031208548F4B8E4A8D498C48E47F43
:101AF000C07EFFFDFCAB4FAA4EA94DA84CC31208F7
:101B0000437007FF7E20FDFC800DAF4FAE4EAD4D04
:101B1000AC4C78031208548F4F8E4E8D4D8C4CAFC9
:101B20004FAE4EAD4DAC4CAB4BAA4AA949A848C3E9
:101B30001208435039E4254BFFE4354AFEE54934A9
:101B400008FDE43548A907AA06AB05123EC3EF25F8
:101B500050F550AF4BAE4AAD49AC48E47B01FAF9C1
:101B6000F81206F08F4B8E4A8D498C4880B1E550B3
:101B7000F404F550AD477F01120EE2A804A905AAAE
:101B800006AB07AF50E4FCFDFEC312084370032010
:101B900001037F0622AF477E007C017D0012097C95
:101BA000C374D19FFF74FF9EFE74109DFDE49CFCE6
:101BB0009003857401F01229557F0022900495EC62
:101BC000F0A3EDF0A31208FD900494EFF0E490046C
:101BD0009CF0EFD3943F500E900494E094014006A3
:101BE00090049C7401F0900494E0FFD3947F40062D
:101BF00090049C7401F0EFC39440400CEFD39441E7
:101C0000400690049C7401F0EFD3943F501E900462
:101C100095E0FEA3E0FFE4FCFDFB7A01F9F8C312B6
:101C20000843502F90049C7401F08027D3900496B1
:101C3000E09480900495E09400400690049C740128
:101C4000F090049AE07004A3E06410600690049C95
:101C50007401F09004971208F4E94A4B700590045F
:101C60009C04F090049CE06003021D3B123C6FEF6B
:101C70006003021D35900495E0FCA3E0FDA312086B
:101C8000F490049AE0FFA3E09004A3CFF0A3EFF058
:101C9000900494E0FF1220DE90049CEFF064076053
:101CA00003021D30904722E0540270087F01FE12AB
:101CB0003B7080F0904722E054026009E0FF13136C
:101CC000543FFF80027FFFEF700690049CF0800677
:101CD00090049C74FFF090049CE07054900494E095
:101CE000FFA3E0FCA3E0FD900625E0FBA3E0900449
:101CF000A1F012354290049CEFF0640770329047D7
:101D000022E0540270087F01FE123B7080F0904781
:101D100022E054026009E0FF1313543FFF80027F6A
:101D2000FFEF700690049CF0800690049C74FFF016
:101D3000123EDB800690049C7404F090049CE0FF4B
:101D400022E490054CF0A3F0900560E014FF1237F8
:101D50002A9004BBEEF0A3EFF0906003E09004C083
:101D6000F0906004E09004C1F02402FFE433FEEF41
:101D70007802C333CE33CED8F9FF9004BCE02FFFF6
:101D80009004BBE03EFEF0A3EFF0F5828E83A31239
:101D90000906AF019004BBEAF0A3EFF09004C1E0A4
:101DA000FFC394014003021E93744B2FF582E43469
:101DB00005F583E075F004A4FFAEF09004BCE02FBD
:101DC000F09004BBE03EF0E0FEA3E0F5828E83A33A
:101DD000120906AF019004BBEAF0A3EFF09004C033
:101DE000E0FFC394015003021E93EFD3940340031A
:101DF000021E93EF24FFFFE434FFFEEF7802C333AB
:101E0000CE33CED8F9FF9004BCE02FFF9004BBE0A6
:101E10003EFEF0A3EFF0906002E0FD9004C0F08F72
:101E2000828E83E493C39D406A9004BBE0FEA3E0EE
:101E3000F5828E83A31209069004BD1208FD90045A
:101E4000C0E075F008A4FF9004BD1208F4E92FF972
:101E5000EA35F0FA9004BD1208FD9004BD1208F4B2
:101E6000E92402F9E43AFA12091290054E1208FD2B
:101E70009004BD1208F41206A6FF90054CE5F0F0A0
:101E8000A3EFF0E92405F9E43AFA1209129005519A
:101E90001208FD229003821208FD900381EFF0D317
:101EA00094005003021FBBE0FF94094003021FBBD4
:101EB000EF75F00BA4246BF582E43405F583E0FEA6
:101EC000A3E0FFC3E49FFF74029EFED3900386E06D
:101ED0009F900385E09E4024900381E075F00BA461
:101EE000246BF582E43405F583E0FEA3E0FFC3E450
:101EF0009F900386F074029E900385F0900385E026
:101F0000FCA3E0FDECFF900381E0FE75F00BA42440
:101F100068F582E43405F583E04FFF75F010EE902C
:101F20005FFC1208E8EFF0ED900381E075F010908F
:101F30005FFD1208E8EDF09003821208F4E94A4BC5
:101F40006046E4900387F0A3F0900385E0FEA3E0F1
:101F5000FFA3E0FCA3E0FDC39FEC9E502B90038207
:101F60001208F4E92DF9EA3CFA120665FF900381A4
:101F7000E075F0109060781208E8EFF0900387E4C5
:101F800075F00112069080C1900381E0FF75F00B9F
:101F9000A42466F582E43405F583E4F0EF75F00BD4
:101FA000A4246AF582E43405F583E0FF900381E020
:101FB00075F010905FFE1208E8EFF022C0E0C0F06C
:101FC000C083C082C085C084C086758600C09375FA
:101FD0009300C0D075D000C000C001C002C003C0D3
:101FE00004C005C006C00790061BE014604B1460D7
:101FF0007914700302209B240360030220BB900627
:102000001F1208F490061AE0FF04F0E92FF9E43AF1
:10201000FA12066590061CF0E0FE5407A3F0EE707D
:102020001890061AF090061E7402F090061DE4F057
:1020300090061B7403F00220BB90061CE0FF30E703
:102040000890061E7403F0800690061E7401F0EFDF
:1020500025E090061CF0A3E014F0123F17EF54FEA9
:10206000FF123F1190061B7402F090061EE07023D1
:1020700090061B7403F090061DE07006A37402F036
:10208000800590061EE4F0123F17EF4401FF123F57
:1020900011800890061EE014F0802090061EE0706B
:1020A0001490061DE0700690061BF0800E90061B33
:1020B0007401F0800690061EE014F0D007D006D020
:1020C00005D004D003D002D001D000D0D0D093D01E
:1020D00086D084D085D082D083D0F0D0E0329004F6
:1020E0009DEFF0A3ECF0A3EDF0A31208FD9004A582
:1020F0007407F0904722E0540270030221EE9047EB
:102100002074B6F074D5F07402F0904722E05402C7
:1021100060030221E690049DE0904720F0E49004E3
:10212000A6F0A3F09004A3E0FEA3E0FF9004A6E0D5
:10213000FCA3E0FDC39FEC9E501F9004A01208F486
:10214000E92DF9EA3CFA120665904720F09004A6C2
:10215000E475F00112069080CB9004A3E064017056
:1021600002A3E060030221F490049DE0FFD3943FBA
:1021700040030221F47E007C207D0012097CE42FC4
:10218000FFE43EFEED3408FDE43CFCC004A905AAD2
:1021900006AB07A3E0FEA3E0FF7C007D2012097CD4
:1021A000D0001206F09004A81208DCE49004A6F017
:1021B000A3F09004A6E0FEA3E0FFC39420EE9400F9
:1021C0005032E4FCFDA31208D01206F0A907AA06BB
:1021D000AB05123EC3904720EFF09004A6E475F0E3
:1021E0000112069080CC9004A57409F0800690043A
:1021F000A57404F09004A5E0FF227B007A4679E8FC
:10220000123EC3EF4405FD7B007A4679E8123ECFCB
:10221000E4F523E523C39409502CE52375F005A4C8
:10222000243EF582E43441AF82F5218F22F58312FA
:1022300009068F82852183740393FC740493FD1235
:102240003D1F052380CD7E407F9E123B117B017A8E
:10225000507903123EC3EF4402FD7B017A507903AB
:10226000123ECF7B017A507913123EC3EF4402FD38
:102270007B017A507913123ECF9043A0E04440F0A6
:102280009043C2E04410F07C407D847B007A517919
:10229000F07F0A7E00123B9D7C407D8E7B007A5150
:1022A00079127F087E00123B9D7C407D967B007AF0
:1022B0005179227F087E00123B9D9044F47401F016
:1022C000904322E04408F09046ECE0C394055006A9
:1022D000904689743AF090480074F1F0122AD69032
:1022E000480074B1F0123CCB7B007A4379A0C00166
:1022F00079B09000051208FDD0017F0E7E00123AE1
:102300004C9043B0E054FDF022C0E0C0F0C083C068
:1023100082C085C084C086758600C093759300C056
:10232000D075D000C000C001C002C003C004C00509
:10233000C006C007906028E09004ACF0E0FF5410A5
:1023400070030223EBA37401F0EF5480602190042A
:10235000ACE0540F64016005A3E4F080311231FA5F
:10236000900561E0548060269004ADE4F0801F90F9
:1023700004ACE054406005123CE880129004ACE0EC
:1023800054206005123BC380059004ADE4F0900436
:10239000ADE06057906028E09004ACF0E0548070AD
:1023A0004A900564E0FF90055CE04F9004ACF0E0DB
:1023B000FF906029F0E0FEEF6E7030900561E090D4
:1023C00004ADF0906028E054809004ACF0E0700F11
:1023D000900561E0906028F0E0540F9004ADF0901B
:1023E0000561E0FF9004ADE0B507D0D007D006D07E
:1023F00005D004D003D002D001D000D0D0D093D0EB
:1024000086D084D085D082D083D0F0D0E03275934E
:102410000078007583467582E8E04401F00090463C
:10242000ECE0F99046FAE0FA900615F0B903225470
:1024300020B40012B8001AEA901FFFF07401901F38
:10244000FEF09046F6F0901FFEE06005901FFFE062
:10245000FA90480074C0F075815A123BE790000072
:1024600078007920E4F0A3D8FCD9FAEA900615F0B8
:1024700002001175081F7509FD123AB11221FA0206
:1024800024BD023325E493A3F8E493A34003F6802C
:1024900001F208DFF48029E493A3F85407240CC860
:1024A000C333C4540F4420C8834004F4568001460B
:1024B000F6DFE4800B01020408102040809037BE54
:1024C000E47E019360BCA3FF543F30E509541FFE36
:1024D000E493A360010ECF54C025E060A840B8E4A7
:1024E00093A3FAE493A3F8E493A3C8C582C8CAC52A
:1024F00083CAF0A3C8C582C8CAC583CADFE9DEE7BC
:1025000080BE7D01EDC3940940030225E175F01002
:10251000ED9060701208E8740CF0ED75F00BA424D7
:102520006AF582E43405F583E06031ED75F00BA4C3
:102530002469F582E43405F583E05480600F75F07A
:1025400010ED905FFE1208E8740CF0801C75F0101E
:10255000ED905FFE1208E87408F0800D75F010ED44
:10256000905FFE1208E87480F0ED75F00BA4246B08
:10257000F582E43405F583E0A3E0FF75F010ED90FB
:1025800060761208E8EFF0ED75F00BA4246BF5828D
:10259000E43405F583E0FF75F010ED9060771208E4
:1025A000E8EFF0ED75F00BA4246BF582E43405F54B
:1025B00083E0A3E0FF75F010ED9060741208E8EF7F
:1025C000F0ED75F00BA4246BF582E43405F583E09F
:1025D000FF75F010ED9060751208E8EFF00D022520
:1025E0000490600A74FFF022123DDA900383EFF04A
:1025F0009043A5E04401F09043B5E04401F09060C1
:102600009D7401F090600904F0906010E0547FF038
:10261000E4FFFE123B70904394E054F9F090601296
:10262000E054DFF0904394E04401F07F017E00121B
:102630003B707F287E00123B709051F8E0547FF091
:10264000E054BFF0904394E04402F07F027E001219
:102650003B70904394E04404F0906084E4F0A3F075
:10266000900383E0FF123D517D077F171237777C7F
:10267000367D387F1712312E7D077F181237777C11
:10268000237D097F1812312E7D077F151237777C45
:102690003F7D387F1512312E7D07E4FF1237777C9E
:1026A000357D96E4FF12312E7D077F011237777C4E
:1026B000357DE77F0112312E7D077F0C1237777C45
:1026C000367D897F0C12312E228B478A4889498CAE
:1026D0004A8D4BE54F75F00AA485F051F552D3E5CC
:1026E0004B9440E54A94004006754A00754B409073
:1026F0000633E06032123F29EF7019E55245516010
:1027000013E47F01FEFDFC123195E5521552700273
:10271000155180E1123F29EF601C123EB6123F2393
:10272000E4900633F0800F123EB6EF6009123F29A5
:10273000EF6003123F23E54F75F00AA485F051F5D1
:10274000527F011238EFEF64016019E55245516084
:1027500013E47F01FEFDFC123195E5521552700223
:10276000155180DD7F011238EFEFB40126AB47AA87
:1027700048A949900385E54AF0A3E54BF07F011293
:102780002C43AB4CAA4DA94EEE8FF01206D1E4F5C6
:1027900050800FAB4CAA4DA94EE4F5F01206D1754E
:1027A0005010AF5022E49004B7F0906004E0547FE2
:1027B000FFD39400500302287BEF940940030228C2
:1027C0007BEF75F00BA42467F582E43405F583E014
:1027D00054FEF0EF75F00BA42468F582E43405F59F
:1027E00083E4F075F010EF905FFC1208E8747FF05E
:1027F000EF75F00BA42466F582E43405F583E0540C
:10280000FDF0EF75F00BA42469F582E43405F5833F
:10281000E054806030EF75F00BA42466F582E43458
:1028200005F583E0B4010F75F010EF905FFE12081C
:10283000E8740CF0803D75F010EF905FFE1208E830
:10284000740DF0802EEF75F00BA42466F582E4344D
:1028500005F583E0B4010F75F010EF905FFE1208EC
:10286000E87408F0800D75F010EF905FFE1208E834
:102870007409F0123D819004B7EFF09004B7E0FFC7
:1028800022900560E014FF12372A9004BBEEF0A3FB
:10289000EFF0906004E09004C0F02402FFE433FE07
:1028A000EF7802C333CE33CED8F9FF9004BCE02FCB
:1028B000FF9004BBE03EFEF0A3EFF0F5828E83A311
:1028C000120906AF019004BBEAF0A3EFF09004C038
:1028D000E0244BF582E43405F583E075F004A4FFB1
:1028E000AEF09004BCE02FF09004BBE03EF0E0FEC0
:1028F000A3E0F5828E83A3120906AE02AF01900415
:10290000BBEEF0A3EFF0240CFFE43EFE9004BBF01E
:10291000A3EFF0F5828E83A31209069004BD12087E
:10292000FD9004BD1208F4E92401F9E43AFA120614
:1029300065FE9004BD1208F4120665FDEEEDFF90F1
:10294000054CEEF0A3EFF0E92402F9E43AFA900521
:102950004E1208FD229003811208DC9003811208B8
:10296000B4E42FFFE43EFEED34F0FDEC34FFFC90C8
:1029700003861208DCE4FBFA7901F890038612085A
:10298000B412079690048AEFF09003861208B4EF11
:10299000EEE4FDFCFB7A01F9F812079690048BEE49
:1029A000F0A3EFF09003811208B4EFFBE4FAF9F81A
:1029B0009003811208B41206FD90048D1208DCE425
:1029C000FBC3EA9401502590048D1208B4EF2BFF4D
:1029D000EE3A8F82F583E493FF748A2BF5827403B9
:1029E0003AF583EFF00BEB70010A80D5900385E098
:1029F000FB9003811208B4EFE4FE748A2FF582EE97
:102A00003403F583EBF090048AE0FFA3E0FCA3E03D
:102A1000FD7B017A03798A123A18228B488A498908
:102A20004A740112067EAB48254AF9E43549FAEFAB
:102A300012067EE54CAB48E54A2402F9E43549FA32
:102A4000E54C12067EE54BFFAB48E54A2403F9E46A
:102A50003549FAEF12067EAB48AA49A94AE54C244B
:102A600004FDE4354BFC122B918E4D8F4EEFAB489D
:102A7000E54C2404FDE4354BFCE54A2DF9E5493CE1
:102A8000FAEF12067EE54DFFAB48E54C2405FDE468
:102A9000354BFCE54A2DF9E5493CFAEF12067EABD1
:102AA00048E54C2406FFE4354BFEE54A2FF9E5499D
:102AB0003EFA741712067EE54C2407FDE4354BFC04
:102AC00075540075550075564B755796AB48AA4915
:102AD000A94A123385227B007A4079807DBF7C5DD4
:102AE000123E8B9040827419F09043007406F07B84
:102AF000007A4279127D177C33123E8B904210741B
:102B000005F0E0FFE47FC87E32FDFC900000120873
:102B1000DC9000001208B4D3EF9400EE940040293A
:102B2000904210E054806021E47FE07E01FDFC12C1
:102B300039009000001208B474FFFBFAF9F812068D
:102B4000F09000001208DC80C89042007452F07BC4
:102B50000C7A01790F123EC39046A1EFF07B007A08
:102B6000407904E4FDFC123E8B9040047407F09021
:102B70004006E4F09040087448F0904004E4F0907F
:102B80004009F09040017402F09043A2E04401F04B
:102B9000228B4F8A5089518C528D5374FFF554F516
:102BA00055855258855359E553455270096355FF71
:102BB0006354FF022C3EC3E5599553FFE5589552E7
:102BC000FEAB4FE5512FF9E5503EFA1206657556FA
:102BD00000F557E4FDEDC39408503DE5575401FF5F
:102BE000E5555401FBE4EB6F6015E554C313FEE5B6
:102BF0005513FFEE6484F554EF6408F555800BE53A
:102C000054C313F554E55513F555E556C313F5565E
:102C1000E55713F5570D80BDE55315537002155256
:102C2000E553455270906355FF6354FF85545685B4
:102C30005557E555FCE556FFECF554EFF555AE5408
:102C4000AF5522900381EFF0A31208FD900382128A
:102C500008F4E94A4B7003022CE1900381E0FFD3B2
:102C60009400407DEF940950781238B7D3900386D2
:102C7000E09F900385E09E400A900381E0FF1238B8
:102C8000B78008900385E0FEA3E0FF900385EEF097
:102C9000A3EFF0E4A3F0A3F0900385E0FEA3E0FF30
:102CA000A3E0FCA3E0FDC39FEC9E502B900381E0CA
:102CB00075F0109060781208E8E0FF900382120827
:102CC000F4E92DF9EA3CFAEF12067E900387E475E9
:102CD000F00112069080C1900381E0FF12393B8021
:102CE00007E4900385F0A3F0900385E0FEA3E0FFE6
:102CF00022900560E014FF12372A9004BBEEF0A387
:102D0000EFF0906004E09004BDF02402FFE433FE95
:102D1000EF7802C333CE33CED8F9FF9004BCE02F56
:102D2000FF9004BBE03EFEF0A3EFF0F5828E83A39C
:102D3000120906AF019004BBEAF0A3EFF0A3E02470
:102D40004BF582E43405F583E075F004A4FFAEF0A2
:102D50009004BCE02FF09004BBE03EF0E0FEA3E066
:102D6000F5828E83A3120906AE02AF019004BBEE7A
:102D7000F0A3EFF02410FFE43EFE9004BBF0A3EFBD
:102D8000F0F5828E83A3120906120665FF90054CAA
:102D9000E4F0A3EFF090054E1208FD22E4FD90054B
:102DA00055E0FF900562E48FF0120690D390054D38
:102DB000E0940090054CE09400403AED94085035C2
:102DC00090054E1208F4120665FFE42DF582E434F6
:102DD00060F583EFF090054E1208F4E92401F9E460
:102DE0003AFA90054E1208FD0D90054C74FFF5F06F
:102DF00012069080B7900555E064086006EDD39404
:102E000000401590055CE06480F0900561740FF05F
:102E100090055D7402F0800A9005617402F09005DF
:102E20005DF0900564EDF0900555F02275210612D5
:102E30003D69EF60057F00123DC5E4FF121A02EF05
:102E40007002F521E4F54EF54DF54CF54B90062951
:102E5000E0FEA3E0F5828E831208C08F528E518D62
:102E6000508C4FE4FFFE7D10FC122F42900627E0AD
:102E7000FCA3E0F5828C83E493FEC3EF9EFFF40491
:102E8000FFB50612900629E0FEA3E0F5828E8312BC
:102E900008C0EF4E70057F00123DC59046FAE05421
:102EA000C064406004E52160099046FAE4F0FF1236
:102EB000001AE4FF12001A123EE722E49004B7F071
:102EC000906004E0547FFFD394004070EF94095069
:102ED0006BEF75F00BA42467F582E43405F583E00D
:102EE0004401F0EF75F00BA42468F582E43405F595
:102EF00083E4F0EF75F00BA42466F582E43405F565
:102F000083E04402F0EF75F00BA42469F582E43409
:102F100005F583E05480600F75F010EF905FFE12AE
:102F200008E8748DF0800D75F010EF905FFE1208C8
:102F3000E87489F0123D819004B7EFF09004B7E097
:102F4000FF228F4A8E498D488C47E4F553EF70037A
:102F5000EE64806019E4FFFE7D10FCAB4AAA49A92B
:102F600048A847C312084360057F00123DC5D3E55A
:102F7000529400E5519400404BAF52AE51AD50AC6D
:102F80004F74FFFBFAF9F81206F08F528E518D50F4
:102F90008C4FE54A254EFFE549354DFEE548354C59
:102FA000FDE547354BFCEF2552FFEE3551FEED3583
:102FB00050FDEC354FA907AA06AB0512066525534F
:102FC000F55380AAAF5322E4FE7E0190062D7401D2
:102FD000F0A3DEFC7E0190055EEFF0E490055DF06D
:102FE000900558F0900560F0900554F090055AF067
:102FF00090055FF0900555F09044C27480F0A37482
:1030000001F09044C27420F09044C07401F004F0C8
:10301000ED14600C047012906009E054FEF0801012
:10302000906009E04401F08007906009E04401F0FD
:103030009060287403F09060087480F0E47F01FED3
:10304000FDFC1239009060127404F022E4FF9060DD
:1030500029E0540F24FEFEFD900562E48DF0120677
:1030600090D390054DE0940090054CE09400403CD6
:10307000EED394004036E42FF582E43460F583E02B
:10308000FD90054E1208F4ED12067E90054E1208D2
:10309000F4E92401F9E43AFA90054E1208FD0F1EF6
:1030A00090054C74FFF5F012069080B5AF069005C0
:1030B00064EEF090055CE06480F0900561740BF0C4
:1030C00022E49004B7F0906004E09004B8F090051A
:1030D00060E014FF12372A8F828E83A3120906E95B
:1030E0002404F9E43AFA120665FF9004B8E0FED32E
:1030F0009F4006EED39401502F744B2EF582E4349A
:1031000005F583E0FF74592EF582E43405F583EF6D
:10311000F0906002E0FF744B2EF582E43405F583F5
:10312000EFF09004B77401F09004B7E0FF22900331
:1031300085ECF0A3EDF0900384EFF0D3941F5002E0
:103140008001C340057F00123DC5900384E0541FF9
:1031500025E0FFE433FEE42FFFEE3444FAA9077BB9
:1031600001123E7E900387EEF0A3EFF0900384E01F
:1031700075F002A42400FFE5F03444FAA9077B01AE
:10318000A3E0FEA3E0FFFDAC06123E8D900387E0B6
:10319000FEA3E0FF2290FFFC1209581208DC85080C
:1031A000838509821208B4D3EF9400EE9480402EF8
:1031B0009006161208B4123900850883850982C06A
:1031C00083C0821208B4E42FFFEE3480FEED34FF9A
:1031D000FDEC34FFFCD082D0831208DC80C0900666
:1031E0000C1208B48508838509821208D012070BD7
:1031F00012390090000412095822906028E09004CF
:10320000AEF0E0906028F0E09004AEF0E0FF548073
:103210006006900561EFF0227F0212384290600054
:10322000E0546024E0601224E060182440701E1214
:103230000AF99004AEEFF0801912325F9004AEEFFD
:10324000F0800F123E4E9004AEEFF08005E4900443
:10325000AEF09004AEE070069005617403F0229029
:103260006000E0540324FE600D047024906004E0CC
:103270009004B8F0801F906004E0547F75F00BA4B8
:10328000246FF582E43405F583E09004B8F08005FE
:10329000E49004B8F09004B8E0FF900556E0FCA379
:1032A000E02FF582E43CF583E49324FD700A1218C4
:1032B000239004B7EFF08005E49004B7F09004B7D2
:1032C000E0FF228F21E521B402079046FAE4F08066
:1032D00050AF21121A02EF7043F522E522C3940188
:1032E0005032AF227E007C017D0012097CC374D075
:1032F0009FFF74FF9EFE74109DFDE49CFCE522B5CB
:1033000021047B0180027B00900385EBF01229559C
:10331000052280C79046FA7480F080059046FAE452
:10332000F0123EFB22E4900000F07FE87E03FDFCFB
:10333000123195123E5E900000EFF0600E7BFF7A36
:1033400041797D90061F1208FD800C7BFF7A417940
:103350007890061F1208FD123E04EF701D7E1F7F3D
:10336000BC123C50123E17D2AF9044F474FDF09062
:103370000000E0700D122E2C8008E4FF1232C31200
:103380003EFB80FE228C528D53E55775F00AA485D2
:10339000F059F55A900385E4F0A37440F07F0212CF
:1033A0001E947F021238EFEF7019E55A45596013E9
:1033B000E47F01FEFDFC123195E55A155A700215A5
:1033C0005980DF7F021238EFEF70057558108011B9
:1033D000AB54AA55A956E5528553F01206D1E4F52F
:1033E00058AF5822900560E014FF12372AAD07ACA1
:1033F00006ED4C603D8D828C83A3120906E92404FE
:10340000F9E43AFA1206652402FFE433FEEF78028B
:10341000C333CE33CED8F92DFDEE3CFCAF058D8203
:10342000F583A3120906AF019004BFEAF0A3EFF001
:103430008007E49004BFF0A3F09004BFE0FEA3E097
:10344000FF22123DEF90000274FFF0123C6FEF700C
:103450003B7F01123B3FEF6407702C7B017A0679BA
:10346000257D02123498EFB40215E4900002F0902A
:103470004722E0540270107F01FE123B7080F090F2
:103480004722E0540260D4123EDB800690000274B2
:1034900004F0900002E0FF229000031208FD90006B
:1034A00006EDF0E4A3F0900006E0FFA3E0C39F5018
:1034B00037904722E054016003D38001C340097F65
:1034C000017E00123B7080E9904720E0FF900003EE
:1034D0001208F4900007E029F9E43AFAEF12067EA8
:1034E000900007E004F080BE900007E0FF22123D4C
:1034F000DA906008E0547FF0906012E054FBF090A6
:1035000043A5E054FEF09043B5E054FEF0123D5167
:103510009044CA7480F0A37401F09044CA7420F0FF
:103520009044C87401F004F0E4900558F0900560F0
:10353000F0900554F090055AF090055FF090063435
:10354000F02290049EECF0A3EDF0AC077D079047CD
:1035500022E05402603B90472074B6F074D8F074B7
:1035600005F0904722E054027023904720ECF09041
:10357000049EE0904720F090049EE0A3E090472056
:10358000F0EBF09004A1E0904720F080067D0980E8
:10359000027D04AF0522C0E0C083C082C085C08424
:1035A000C086758600C093759300C0D075D000C0EA
:1035B0000790600BE054FEF090600EE0FF90057005
:1035C000E0540364016007900573E06480F09005A7
:1035D000717401F0D007D0D0D093D086D084D0853C
:1035E000D082D083D0E032C0E0C083C082C085C02A
:1035F00084C086758600C093759300C0D075D000D6
:10360000C00790600BE054FDF090601EE0FF900555
:103610007BE054036401600790057EE06480F090D5
:10362000057C7401F0D007D0D0D093D086D084D060
:1036300085D082D083D0E032C0E0C0F0C083C082A9
:10364000C085C084C086758600C093759300C0D0C5
:1036500075D000C000C001C002C003C004C005C0D6
:1036600006C0071239AAD007D006D005D004D0036F
:10367000D002D001D000D0D0D093D086D084D085D5
:10368000D082D083D0F0D0E032C0E0C0F0C083C0A0
:1036900082C085C084C086758600C093759300C0C3
:1036A000D075D000C000C001C002C003C004C00576
:1036B000C006C007123E2AD007D006D005D004D0DD
:1036C00003D002D001D000D0D0D093D086D084D007
:1036D00085D082D083D0F0D0E032123DEF123C6F23
:1036E000EF703B123D04900002EFF06407702A90E7
:1036F0004722E0540270087F01FE123B7080F09078
:103700004722E054026009E0FF1313543FFF800298
:103710007FFFEF7004900002F0123EDB8006900005
:10372000027404F0900002E0FF229004C2EFF090D7
:10373000055EE025E025E02481F582E43440F58350
:10374000120906AE02AF01EF2408FFE43EFE8F82AD
:10375000F583E493FD9004C2E0FCC39D4005E4FEC4
:10376000FF80138F828E8375F004EC1208E8A31299
:103770000906AE02AF0122900384EFF0A3EDF0D36F
:10378000940750028001C340057F00123DC590039D
:1037900084E0D3941F50028001C340057F00123D96
:1037A000C5900385E0540775F020A4FF900384E0E2
:1037B000541F2480F582E43444F583EFF02241065F
:1037C0001A0041061B00420627416B420629416C44
:1037D00041063200440611016E360044060C00001A
:1037E0005DC0410610184406162EE0000041063365
:1037F0000043062200000041063400410635000067
:1038000090054CE07002A3E07005123CAD80309052
:10381000055D7402F0E490055CF0123AE1906007F7
:10382000E0FE906006E0FDEEEDFFD390054DE09FD9
:1038300090054CE09E4005EEF0A3EFF0122D9C7F2A
:1038400001229005511208F4E94A4B60319005516C
:103850001208F4EF12067E900562E0FEA3E0FF90EE
:1038600005511208F4E92401F9E43AFAEE8FF01256
:1038700006D17B007A0079009005511208FD229054
:103880004F00E05401F0904F02E054FCF0904F01E3
:10389000E04401F0904F0BE054CFF0E04430F0E012
:1038A00054F0F0E0440FF07FF0123EA87FF01239A0
:1038B00073E4FF123F1D22E4FDFCEFD39400402A85
:1038C000EF9409502575F010EF905FFC1208E8E0C6
:1038D000540FFD75F010EF905FFD1208E8E0FBED6E
:1038E000FCEBFD24FEFD74FF3CFCAE04AF0522EFB3
:1038F00075F00BA42466F582E43405F583E0FF221D
:10390000EC4D4E700D78FCEF24E950032840FD2269
:1039100000007BF178DA0000EF28FF78FFEE38FE38
:10392000ED38FDEC38FC50E7EF2BFFEE38FEED38BC
:10393000FDEC38FC40F22205020304EFD394004072
:1039400031EF9409502CEF75F00BA42466F582E456
:103950003405F583E4F0EF75F00BA4246AF582E4F6
:103960003405F583E0FE75F010EF905FFE1208E875
:10397000EEF022900001EFF09043A3E054017003B9
:10398000D38001C340057F00123DC59043A3E044AE
:1039900001F07B027A4F7906900001E0FD7C001275
:1039A0003E8D9043A3E054FEF022E4FF7F01900699
:1039B0002D7401F0A3DFFCE490055DF0900558F054
:1039C000900560F0900554F090055AF090055FF076
:1039D000900555F09060287403F09060087480F0B2
:1039E0002290055D7404F090055C7480F0123AE159
:1039F000906007E0FE906006E0FDEEEDFFD39005DD
:103A00004DE09F90054CE09E4005EEF0A3EFF09056
:103A10000561740BF07F0122900491EFF0D3943F85
:103A200040067E007F1080047E017F00900492EEAD
:103A3000F0A3EFF0900492E0FFA3E090049ACFF09F
:103A4000A3EFF0900491E0FF121BBC22758600EFFB
:103A50004E6027EF60010E759300900005E0F5952C
:103A6000A3E0F585A3E0F5848B938A838982E0A3A4
:103A70000586F0A31586DFF6DEF4E4F593F59522CE
:103A8000123DDA9043A0E04408F09043B0E04408CF
:103A9000F090470174C8F09043ACE04410F09043BC
:103AA000BCE04410F0904700E0542060F8123D5113
:103AB00022E4900000F0900000E0FFD3941F50201B
:103AC000EF75F002A42400FFE5F03444FAA9077B67
:103AD000017C3B7D6D123E8D900000E004F080D6AD
:103AE00022E4900562F0A3F09005511208F4E94A2F
:103AF0004B601D9005511208F4E412067E900551AA
:103B00001208F4E92401F9E43AFAE4F5F01206D1D6
:103B100022ACEAADA08E838F82E493F9601CA3E40B
:103B200093F5EAA3E493F5A0A3E49360F1FAA3E488
:103B300093F8A3E493F2DAF6D9E48DA08CEA227E1E
:103B400007904722E05402601F90472074B6F0743B
:103B5000E1F0740EF0904722E05402700790472085
:103B6000EFF080067E0980027E04AF062280FE32DE
:103B7000EEFA900610E0F88FF0A4FFAEF0E88AF0BD
:103B8000A42EFEE5F03400FDEF24C9FF78FFEE38E7
:103B9000FEED38FDE438FC50030239002275860042
:103BA000EF4E601BEF60010E8C838D828B958A85B2
:103BB0008984E493A30586F0A31586DFF5DEF3E49C
:103BC000F5952290055DE024FC600C24FE600C2439
:103BD000047013123C8E2212304C227F03123842A2
:103BE0009005617403F0229046FAE054C06480703E
:103BF00018F521F0AD217F02120EE2EF4E600AAD02
:103C0000217F02120EE2123E6D22900381EFF0A39B
:103C1000EDF0900634E070091225E8900634740146
:103C2000F0900381E0FFA3E0FD122FC72290055A18
:103C3000E0600CE04480906008F0E490055AF0E405
:103C400090055DF07F011238429005617403F02207
:103C5000900001EEF0A3EFF0123F0A900001E0FEA9
:103C6000A3E0FF123E9A7F07123EF1123F0322901B
:103C7000049D7404F0123DDA900635E0700704F0FC
:103C8000E490049DF0123D5190049DE0FF229005C8
:103C900055E0FF900562E48FF0120690E490055D18
:103CA000F07F011238429005617403F02290055DA7
:103CB0007402F090055C7480F0900561740FF0E47C
:103CC000900555F0900564F07F01227B0C7A017914
:103CD000CF123EC3EF540790586EF0EFC4540FA3B9
:103CE000F09058767444F02290055DE024FC600C5E
:103CF00024FE600C2404700B123F3322123E3D223E
:103D0000123C2D227F07904722E05402600E90471C
:103D10002074B6F074E0F0740DF080027F0422ECA1
:103D20004D6011ED60010C8B938A838982E4F0A3CE
:103D3000DDFCDCFA7593002290055EE025E025E0CD
:103D40002481F582E43440F583120906AE02AF0106
:103D500022EF54016004D2AF8002C2AFEF5402FFE1
:103D60009044F4E054FD4FF0221236DA900001EF57
:103D7000F07008123442900001EFF0900001E0FF73
:103D80002290055D7406F0900561F090055C7480EA
:103D9000F0E4900564F07F01229043A3E04401F039
:103DA0009043B3E04401F0904F00E04401F022D290
:103DB000AF9044F474FDF07D02E4FF123C0A9006DB
:103DC000337401F02290FFFF120958EFF09046EA99
:103DD0007401F0900001120958229044F4E0F84474
:103DE00002F0E85402FF10AF012274014FFF2212CB
:103DF0003DDA9043A0E04408F09043B0E04408F07E
:103E0000123D5122905111E054207E007805CEC31E
:103E100013CE13D8F9FF22900632E0700912387FD2
:103E20009006327401F0123D992290458FE0544083
:103E30007E007806CEC313CE13D8F9FF22E4900596
:103E40005DF07F011238429005617403F022E4FFB7
:103E5000906000E054806005A3E0FE800022904264
:103E600010E0548060047F0180027F0022900615DC
:103E7000E0FA8E838F827400758101738B938A833D
:103E80008982E0FFA3E0FE759300228B938A8389E9
:103E900082EDF0A3ECF0759300227B027A44790462
:103EA000AD07AC06123E8D227B027A4F7904EFFDFE
:103EB0007C00123E8D22E4FF900558E06004E0FF94
:103EC000E4F0228B938A838982E0759300FF228B32
:103ED000938A838982EDF075930022123DDAE49093
:103EE0000635F0123D51229046FA7480F0123EFBE6
:103EF00022EFC43354E0904482F0229046F6E0442E
:103F000001F0229044C07404F0229044C87404F07C
:103F10002290647DEFF02290647DE0FF22904F03B9
:103F2000EFF0227F0112393B22900560E0FF221260
:103F300034EE22122D9C22323212010002000000C7
:103F400008B4041DB70130020380010902290001F1
:103F50000100C0020904000002030000030921114E
:103F6000010001222400070501034000010705822A
:103F700003400001040309040C034100450039001B
:103F8000520042002C03430079007000720065006B
:103F9000730073002000530065006D00690063002A
:103FA0006F006E0064007500630074006F007200A3
:103FB0002203500053006F004300330020004200F2
:103FC0006F006F0074006C006F006100640065009A
:103FD0007200000A03300030003000310024000578
:103FE000010900A1000900A1000900150025FF75C5
:103FF00008954091020900150025FF75089540813C
:1040000002C0C00000240005010900A1000900A1B0
:10401000000900150025FF7508954091020900155B
:104020000025FF750895408102C0C00000004101D5
:1040300004C3010507004101050A01050400FF4012
:104040002D00FF40350000000001FF400501FF3F4B
:104050005D01FF403D0000010300400300008203BA
:104060000040030301FF3F4B02FF405501FF405159
:1040700000FF406301FF3F390000000001FF406482
:1040800001FF40744000000000000000C000002458
:10409000000000000000000060006000000013004D
:1040A00045017E02004F010A4B0052040C201060B3
:1040B00011607C400064017D01010501EE01010BEE
:1040C00001AA40010C04BE01D804DB04DF01010D8C
:1040D000031A8068018801011701EE0A011901EE37
:1040E0000A014004320433803640CC70014103960B
:1040F00008A640A78001420A12805B0296089B0234
:10410000A640A780AB02C410D640EE80014303A6B0
:1041100040A780AE8401450464088808D801E00106
:1041200001470308080F40C20C014803AE40AF80AE
:10413000EE50014C02AC08AF40015101003A004F73
:1041400000000C005100001000513000400051C030
:104150000010010000100001140008000140000AD6
:1041600000014C000200015000002000FFFFFFFF93
:104170006930091E0332010144E342830094814205
:024180004400F9
:00000001FF
