:10000000023637008F828E83E0540100000070F8C2
:100010002278FFE4F6D8FD02369C900001EFF075DF
:10002000400075410075420075430075440AC200E6
:10003000124E06EF60057F00124F2A124EE9D2AF32
:100040009044F474FDF0753C007B017A007902C0A5
:1000500003C002C0017B007A0079388B4A8A4B8941
:100060004C900001E0FFEF70047FFF8005900001DD
:10007000E0FF8F4DD001D002D0037D2C7C011237E0
:10008000288F3F900001E0FFEF60021544E54460D7
:1000900004E53F70B4E53F60030206E8C3E5399428
:1000A00007E5389400400A900002E0FFEF64016029
:1000B00006753C04020153900005E0FF7E00EF7FCF
:1000C00000FE900004E0FD7C00EE4CF540EF4DF5A5
:1000D00041AE40AF4174072FF58274003EF583E0D6
:1000E000FF7E00EF7F00FEAC40AD4174062DF5822F
:1000F00074003CF583E0FD7C00EE4CF53DEF4DF5E2
:100100003EE5412407FFE5403400FED3EF9539EE8C
:1001100095384005753C03803AAE40AF4174082FD6
:10012000F58274003EF583E0FFEF64176005753CCF
:100130000480207B017A007902E5412404FDE5403A
:100140003400FC1239B0EF653E7003EE653D60038C
:10015000753C08753A00753B00E53C60030206D724
:10016000900006E0FF8F37753C04900003E0FFEF3E
:1001700012130701923101C032025E34040F3504BC
:100180001E37047C38025E3904DD3A06C13B0000AC
:1001900006D42000030206D7E5414540600302066D
:1001A000D77F00122645EF70047F0180027F009008
:1001B0000006EFF0753A00753B01753C000206D76A
:1001C0002000030206D7E5416401454060030206B2
:1001D000D7E537C3940140030206D79003FFE0FE42
:1001E000A3E0FF8F828E831212957B007A00790143
:1001F00078001211A58F25E537B525219003FFE082
:10020000FEA3E0FF8F828E831212957B007A017924
:100210000078001211A57523008F248015E537D3CF
:100220009525400875230075240080067523017507
:100230002400AF24EF54FFFF900006EFF0E523FF0A
:100240007E00900007EFF090000874FFF090000926
:10025000E4F0753A00753B04753C000206D7900047
:1002600003E0FFEF6434703C2000030206D7E54151
:100270006403454060030206D7E537C39440400F4E
:10028000E537D3947F50087542007543108006759A
:100290004201754320AE42AF437D007B017A017974
:1002A0002E12137E2000030206D7C3E5419403E516
:1002B00040940050030206D7AE40AF41EF24FDFF4B
:1002C000EE34FFFE7B017A007909C003C002C00151
:1002D000AC42AD43742E2DF974013CFA7B01A801A8
:1002E000AC02AD03D001D002D003121466E5412464
:1002F000FDFFE54034FFFEEF2543F543EE3542F5C3
:1003000042E537C394404012E537D3947F500B1237
:1003100048C6754000754110800675400175412042
:10032000E54365417004E5426540600302040390C3
:100330000008E0FF7E00EF7F00FE900007E0FD7CFC
:1003400000EE4CF542EF4DF543E537D3943F4003C3
:100350000203DDAF377E00EF7F00FEEF2543FFEEA7
:100360003542FE90025AEEF0A3EFF09003FFE0FE5C
:10037000A3E0FF8F828E831212957B007A017900B1
:1003800078001211A590025CEEF0A3EFF09003FF4D
:10039000E0FEA3E0FF8F828E83121295EF54FFFFE1
:1003A000EE5400FEED5400FDEC5400FCEF4E600AEC
:1003B00090025CE475F00112109F90025CE0FEA3D5
:1003C000E0FF90025AE0FCA3E0FDC3ED9FEC9E50DD
:1003D0000C753C0A7542007543000206D77B017A12
:1003E00001792E900264E540F0A3E541F0AD43AC05
:1003F00042AF37121EC0EF60047F0A80027F008F79
:100400003C8003753C037542007543000206D7200B
:1004100000030206D77542007543000206E820007B
:10042000030206D7E5432541FFE5423540FED3EF01
:10043000942CEE9401503F753C00AE40AF417B01DF
:100440007A007906C003C002C001AC42AD43742EED
:100450002DF974013CFA7B01A801AC02AD03D00177
:10046000D002D003121466E5412543F543E540353B
:1004700042F5420206D7753C030206D7E5414540E6
:1004800060030206D77BFF7A52794EC003C002C0D8
:10049000017B007A007926A801AC02AD03D001D01F
:1004A00002D0037E007F08121466D200753A0075F0
:1004B0003B08AE3AAF3B7B007A007926C003C0020E
:1004C000C0017B017A007906A801AC02AD03D0011E
:1004D000D002D003121466753C000206D720000338
:1004E0000206D7E5416403454060030206D7900049
:1004F00008E0FF7E00EF7F00FE900007E0FD7C003B
:10050000EE4CF530EF4DF531E537C394404059E5F9
:1005100037D3947F5052AE30AF317C007D10121330
:10052000518F358E348D338C327F007E807D007C00
:1005300000C004C005C006C007AF35AE34AD33AC53
:10054000328F4C8E4B8D4A8C497F107E007D007C13
:10055000008F508E4F8D4E8C4DD007D006D005D0D9
:1005600004123FD98F36807CAE30AF317C017D00E4
:10057000121351C004C005C006C007AF37E4FCFD2C
:10058000FE7B007A007901780012111AA804A905EF
:10059000AA06AB07D007D006D005D0041210FF8FF3
:1005A000358E348D338C327F007E007D107C00C010
:1005B00004C005C006C007AF35AE34AD33AC328FD2
:1005C0004C8E4B8D4A8C497F007E017D007C008FD4
:1005D000508E4F8D4E8C4DD007D006D005D00412D2
:1005E0003FD98F36E537D3943F4003020677AF37C4
:1005F0007E007C207D00121351EF2400FFEE3400BA
:10060000FEED3408FDEC3400FCC004C005C006C09B
:1006100007AE30AF317C007D20121351A804A9052C
:10062000AA06AB07D007D006D005D0041210FF8F62
:10063000358E348D338C32752E00752F00C3E52F27
:100640009420E52E9400502FAE2EAF2FE4FCFDEF4A
:100650002535FFEE3534FEED3533FDEC3532FCA9A2
:1006600007AA06AB05124FBEEF2536F536052FE576
:100670002F7002052E80C6E537702FAE30AF31E403
:10068000FCFD7BFF7A0079007800C3121252701AC9
:100690007D007F0512149EC3E5369FF5367D007FF1
:1006A0000612149EC3E5369FF536E536F4FFEF04D7
:1006B000FF900006EFF0753C00753A00753B018035
:1006C000167F00122645EF70069046FA7480F012ED
:1006D0004FB28003753C057B017A007902853A4967
:1006E000853B4AAF3C123542900001E0FFEF7003BA
:1006F00002004630000302004622900279E4F07BBB
:10070000007A00790090027C1212D2900323E4F068
:10071000A3E4F0906000E0FFEF5480FF7E00EF6400
:10072000804E60030209AD906001E0FFEF121307F5
:1007300008D50007400609610809810A00000BC8B6
:10074000906003E0FFEFB40135124E3F900281EE5E
:10075000F0A3EFF0900281E0FEA3E0FF8F828E8392
:10076000A31212DB9003251212D2900323E4F0A30C
:100770007412F01242F0900279EFF0020BC8906010
:1007800003E0FFEF6402707A906002E0FF123F3EE8
:10079000900281EEF0A3EFF0900281E0FEA3E0FF73
:1007A000EF4E7003020BC8900281E0FEA3E0FF8FC2
:1007B000828E83A31212DB9003251212D29003259E
:1007C0001212C9E92403F9EA3400FA121074FF7E08
:1007D00000EF7F00FE9003251212C9E92402F9EA16
:1007E0003400FA121074FD7C00EE4CFEEF4DFF90C9
:1007F0000323EEF0A3EFF01242F0900279EFF00243
:100800000BC8906003E0FFEF640360030208CA9026
:10081000027FE4F07BFF7A50793E90027C1212D284
:1008200090027FE0FF906002E0FEEED39F403D909B
:10083000027C1212C9121074FFEF603090027C1219
:1008400012C9121074FF900280EFF090027C121215
:10085000C9900280E0FF7E00E92FF9EA3EFA90029B
:100860007C1212D290027FE004F080B4906002E02B
:10087000FFEF601B905013E493FF906002E0FEEEE8
:10088000B5070C7BFF7A50799D90027C1212D290B2
:10089000027C1212C9121074FFEF7003020BC89091
:1008A000027C1212C9121074FF7E00900323EEF036
:1008B000A3EFF090027C1212C99003251212D212FB
:1008C00042F0900279EFF0020BC81240F6900279E4
:1008D000EFF0020BC8906000E0FFEF5403FFEF124F
:1008E0001307092F0008EC0200000BC8900323E453
:1008F000F0A37402F0906004E0FFEF547FFFEF7507
:10090000F00BA4243EF582E43403F583E0FF900469
:1009100004EFF0900405E4F07B017A04790490037D
:10092000251212D21242F0900279EFF0020BC89019
:100930000323E4F0A37402F0900336E0FF90040474
:10094000EFF0900405E4F07B017A0479049003252C
:100950001212D21242F0900279EFF0020BC8020B91
:10096000C8900323E4F0A37401F07B017A03793784
:100970009003251212D21242F0900279EFF0020B8E
:10098000C8900323E4F0A37401F0906004E0FF74C6
:10099000222FF9E43403FA7B019003251212D212BC
:1009A00042F0900279EFF0020BC8020BC890600190
:1009B000E0FFEF1213070AA9010B410309C905095A
:1009C000DE090A560B00000BC8906002E0FF90039E
:1009D00031EFF0124E5A900279EFF0020BC890609E
:1009E00002E0FF90027BEFF090027BE0FFEFD394F8
:1009F00000401390027BE0FFEF14FF123F3E900295
:100A000081EEF0A3EFF090027BE0FFEFD394004083
:100A10000C900281E0FEA3E0FFEF4E700B90027B92
:100A2000E0FFEF6003020BC8900337E0FF90027B0A
:100A3000E0FEEE6F601590027BE0FF900337EFF071
:100A400090032F7401F07F01120BCE124E5A9002C8
:100A500079EFF0020BC8123D5EEF7003020BC890F5
:100A60006004E0FF90027AEFF090027AE0FF9003DA
:100A70002BEFF090032F7401F012188E90027AE0A1
:100A8000FF74222FF582E43403F583E0FF90027AAD
:100A9000E0FE74302EF582E43403F583EFF0124E5D
:100AA0005A900279EFF0020BC8906000E0FFEF541B
:100AB00003FFEF1213070AD9000AFF010AC302005D
:100AC000000BC8906002E0FFEF6003020BC8122722
:100AD000FD900279EFF0020BC8906002E0FFEF6436
:100AE000016003020BC8900336E0FFEF54FDFF9056
:100AF0000336EFF0124E5A900279EFF0020BC890D5
:100B00006004E0FFEFC394014003020BC89060044F
:100B1000E0FF74322FF582E43403F583C083C08292
:100B2000E0FF906002E0FEEEF4FEEF5EFFD082D0C8
:100B300083EFF0124E5A900279EFF0020BC8020BCD
:100B4000C8906000E0FFEF5403FFEF1213070B6D36
:100B5000000B8F010B5B0200000BC8906002E0FFEE
:100B6000EF706512344B900279EFF0805B90600279
:100B7000E0FFEF64017051900336E0FFEF4402FFA5
:100B8000900336EFF0124E5A900279EFF0803990D0
:100B90006004E0FFEFC39401502E906004E0FF7406
:100BA000322FF582E43403F583C083C082E0FF90E6
:100BB0006002E0FEEEF4FEEF5EFFD082D083EFF045
:100BC000124E5A900279EFF0900279E0FF229002E3
:100BD00083EFF090028BE4F0A3E4F0900284E4F061
:100BE000900284E0FFEFC394094003020C8D900251
:100BF00084E0FFEF75F00BA4243CF582E43403F5A8
:100C000083E4F0900284E0FFEF75F00BA4243EF53E
:100C100082E43403F583E4F0900284E0FFEF75F0A2
:100C20000BA4243DF582E43403F583E4F0900284C0
:100C3000E0FFEF75F00BA4243FF582E43403F58365
:100C4000E4F0900284E0FFEF75F00BA42441F582FC
:100C5000E43403F583E4F0900284E0FFEF75F00BD9
:100C6000A42444F582E43403F583E4F0A3E4F09093
:100C70000284E0FFEF75F00BA42446F582E4340310
:100C8000F583E4F0900284E004F0020BE09002832C
:100C9000E0FFEF603A900286E4F0900286E0FFEF1A
:100CA000C39401502A900286E0FF74222FF582E45B
:100CB0003403F583E4F0900286E0FF74302FF58270
:100CC000E43403F583E4F0900286E004F080CB90F6
:100CD0000337E0FFEFD39400500302107390033703
:100CE000E0FFEF14FF123F3E90028DEEF0A3EFF015
:100CF00090028DE0FEA3E0FF8F828E83A31212DBB1
:100D00009002881212D29002881212C9E92407F9BF
:100D1000EA3400FA121074FFEF5440FF7E00EF4EE9
:100D20006010900336E0FFEF4401FF900336EFF0D0
:100D3000800E900336E0FFEF54FEFF900336EFF095
:100D400090028DE0FEA3E0FFEF2404FFEE3400FEEE
:100D500090028DEEF0A3EFF090028DE0FEA3E0FF95
:100D60008F828E83E493FF900284EFF0900286746A
:100D700001F0900286E0FFEFC394094003020F8860
:100D800090028DE0FEA3E0FF8F828E83A31212DB20
:100D9000AE02AF0190028FEEF0A3EFF0900285E477
:100DA000F0900284E0FF900285E0FEEEC39F4003D6
:100DB000020F7F90028FE0FEA3E0FF8F828E83748C
:100DC0000293FFEF547FFF7E00900286E0FD7C00DF
:100DD000ED6F7002EC6E6003020F5E90028FE0FE1A
:100DE000A3E0FF8F828E83740493FE740593FF90BB
:100DF0000286E0FDED75F00BA42444F582E4340393
:100E0000F583E0FCA3E0FDC3ED9FEC9E502C900227
:100E10008FE0FEA3E0FF8F828E83740493FE74053F
:100E200093FF900286E0FDED75F00BA42444F5825B
:100E3000E43403F583EEF0A3EFF090028FE0FEA31D
:100E4000E0FF8F828E83E493FF74222FF582E434D7
:100E500003F583E0FF90028FE0FCA3E0FD8D828C20
:100E600083740193FEEF6E6003020F5E90028FE0C9
:100E7000FEA3E0FF8F828E83740393FFEF5403FF82
:100E8000900287EFF090028FE0FEA3E0FF8F828E4A
:100E900083740293FFEF5480FF7E00EF4E603C901E
:100EA0000286E0FFEF75F00BA4243DF582E43403E5
:100EB000F5837401F0900287E0FFEFB401047F072F
:100EC00080027F0D900286E0FEEE75F00BA42441B7
:100ED000F582E43403F583EFF08039900286E0FF79
:100EE000EF75F00BA4243DF582E43403F583E4F0C0
:100EF000900287E0FFEFB401047F0580027F099034
:100F00000286E0FEEE75F00BA42441F582E4340382
:100F1000F583EFF090028FE0FEA3E0FF8F828E83D7
:100F2000740293FF900286E0FEEE75F00BA424405D
:100F3000F582E43403F583EFF090028FE0FEA3E046
:100F4000FF8F828E83740393FF900286E0FEEE751E
:100F5000F00BA4243CF582E43403F583EFF0900217
:100F60008FE0FEA3E0FFEF2407FFEE3400FE9002C7
:100F70008FEEF0A3EFF0900285E004F0020DA19057
:100F80000286E004F0020D7290028DE0FEA3E0FF05
:100F90008F828E83A31212DBAE02AF0190028FEE1E
:100FA000F0A3EFF0900286E4F0900284E0FF90025C
:100FB00086E0FEEEC39F505390028FE0FEA3E0FF59
:100FC0008F828E83E493FF90028FE0FCA3E0FD8D7F
:100FD000828C83740293FEEE547FFEEE75F00BA4B8
:100FE0002446F582E43403F583EFF090028FE0FEAF
:100FF000A3E0FFEF2407FFEE3400FE90028FEEF037
:10100000A3EFF0900286E004F0809E123E01900370
:101010002DEEF0A3EFF09002847401F0900284E0D2
:10102000FFEFC39409504990028BE0FEA3E0FF90CC
:101030000284E0FDED75F00BA42442F582E4340354
:10104000F583EEF0A3EFF0900284E0FFEF75F00B74
:10105000A42444F582E43403F583E0FEA3E0FF908A
:10106000028BEE8FF012109F900284E004F080ACAF
:101070001220C622BB010689828A83E0225002E741
:1010800022BBFE02E32289828A83E49322BB01060B
:1010900089828A83F0225002F722BBFE01F322C527
:1010A000F0F8A3E028F0C5F0F8E58215827002158B
:1010B00083E038F022BB010A89828A83E0F5F0A33D
:1010C000E022500687F009E71922BBFE07E3F5F09E
:1010D00009E3192289828A83E493F5F0740193224B
:1010E000BB010A89828A83F0E5F0A3F0225006F75B
:1010F00009A7F01922BBFE06F3E5F009F31922EF68
:101100002BFFEE3AFEED39FDEC38FC22C3EF9BFFDE
:10111000EE9AFEED99FDEC98FC22E88FF0A4CC8BC2
:10112000F0A42CFCE98EF0A42CFC8AF0EDA42CFC9D
:10113000EA8EF0A4CDA8F08BF0A42DCC3825F0FDDC
:10114000E98FF0A42CCD35F0FCEB8EF0A4FEA9F0D5
:10115000EB8FF0A4CFC5F02ECD39FEE43CFCEAA421
:101160002DCE35F0FDE43CFC2275F008758200EFD1
:101170002FFFEE33FECD33CDCC33CCC58233C582C9
:101180009BED9AEC99E58298400CF582EE9BFEED82
:101190009AFDEC99FC0FD5F0D6E4CEFBE4CDFAE451
:1011A000CCF9A88222B800C1B90059BA002DEC8B45
:1011B000F084CFCECDFCE5F0CBF97818EF2FFFEE21
:1011C00033FEED33FDEC33FCEB33FB10D7039940DA
:1011D00004EB99FB0FD8E5E4F9FA227818EF2FFF1A
:1011E000EE33FEED33FDEC33FCC933C910D7059B5C
:1011F000E99A4007EC9BFCE99AF90FD8E0E4C9FAB8
:10120000E4CCFB2275F010EF2FFFEE33FEED33FD43
:10121000CC33CCC833C810D7079BEC9AE899400A66
:10122000ED9BFDEC9AFCE899F80FD5F0DAE4CDFBE4
:10123000E4CCFAE4C8F922EF4BFFEE4AFEED49FD9B
:10124000EC48FC22C3E49FFFE49EFEE49DFDE49C89
:10125000FC22EB9FF5F0EA9E42F0E99D42F0E89C0B
:1012600045F022E8600FECC313FCED13FDEE13FE16
:10127000EF13FFD8F122E8600FEFC333FFEE33FE28
:10128000ED33FDEC33FCD8F122E0FCA3E0FDA3E05C
:10129000FEA3E0FF22E493FC740193FD740293FE2D
:1012A000740393FF22E0F8A3E0F9A3E0FAA3E0FBC4
:1012B00022ECF0A3EDF0A3EEF0A3EFF022A4258240
:1012C000F582E5F03583F58322E0FBA3E0FAA3E0A5
:1012D000F922EBF0A3EAF0A3E9F022E493FB740116
:1012E00093FA740293F922BB010789828A8302125E
:1012F000C95005E9F802148CBBFE05E9F802149503
:1013000089828A830212DBD083D082F8E493701240
:10131000740193700DA3A393F8740193F5828883ED
:10132000E4737402936860EFA3A3A380DFE509254B
:1013300082F582E5083583F583B5080485820922A4
:1013400010AF06858209F50822858209F508D2AF1B
:1013500022EC8EF0A4CCC5F0CCCDF8EFA4CEC5F035
:101360002DFDE43CFCE8A42EC8C5F03DFDE43CFCAA
:10137000EFA4FFE5F028FEE43DFDE43CFC22EF4E47
:101380006012EF60010EEDBB010B89828A83F0A32E
:10139000DFFCDEFA2289F05007F709DFFCA9F02212
:1013A000BBFEFCF309DFFCA9F022E709F608DFFA2F
:1013B0008046E709F208DFFA803E88828C83E709DD
:1013C000F0A3DFFA8032E309F608DFFA806EE30962
:1013D000F208DFFA806688828C83E309F0A3DFFAE3
:1013E000805A89828A83E0A3F608DFFA804E8982D8
:1013F0008A83E0A3F208DFFA804280D280FA80C6B6
:1014000080D4805580F28029801080A680EA809A5E
:1014100080A880DA80E280CA802988848C858982CD
:101420008A83E493A30586F0A30586DFF5DEF380C7
:101430000B89828A83E493A3F608DFF9ECFAA9F01A
:10144000EDFB2288848C8589828A83E0A30586F05F
:10145000A30586DFF6DEF480E389828A83E493A322
:10146000F208DFF980D688F0EF60010E4E60CD887B
:10147000F0ED2402B4040050C3F582EB2402B4045E
:101480000050B923234582239013FA73E6FB08E644
:10149000FA08E6F922E2FB08E2FA08E2F9229002F1
:1014A0005EEFF090025FEDF09002647402F07F0056
:1014B0007E007D007C009002651212B190025EE019
:1014C000FFEF12130714E7011517021546031575F0
:1014D0000415A40515D906163D07160E08166B0946
:1014E00016990A000016CD90025FE0FF7E007C0195
:1014F0007D00121351121244EF24C0FFEE34FFFEA0
:10150000ED3410FDEC3400FC9002601212B1900238
:10151000647401F00216E090025FE0FF7E007C013F
:101520007D00121351A804A905AA06AB07C374C312
:101530009BFF74FF9AFE741099FDE498FC90026082
:101540001212B10216E090025FE0FF7E007C017D86
:1015500000121351A804A905AA06AB07C374C79BC0
:10156000FF74FF9AFE741099FDE498FC90026012DB
:1015700012B10216E090025FE0FF7E007C017D0068
:10158000121351A804A905AA06AB07C374CB9BFF8D
:1015900074FF9AFE741099FDE498FC900260121298
:1015A000B10216E090025FE0FF7E007C017D001238
:1015B0001351A804A905AA06AB07C374D09BFF74F6
:1015C000FF9AFE741099FDE498FC9002601212B12B
:1015D0009002647401F00216E090025FE0FF7E006A
:1015E0007C017D00121351A804A905AA06AB07C30C
:1015F00074D19BFF74FF9AFE741099FDE498FC90DF
:1016000002601212B19002647401F00216E09002BE
:101610005FE0FF7E007C017D00121351A804A90544
:10162000AA06AB07C374D69BFF74FF9AFE74109989
:10163000FDE498FC9002601212B10216E090025F85
:10164000E0FF7E007C017D00121351A804A905AAC9
:1016500006AB07C374D29BFF74FF9AFE741099FD0A
:10166000E498FC9002601212B1807590025FE0FF76
:101670007E007C017D00121351A804A905AA06ABC7
:1016800007C374D49BFF74FF9AFE741099FDE4980D
:10169000FC9002601212B1804790025FE0FF7E0072
:1016A0007C017D00121351A804A905AA06AB07C34B
:1016B00074D89BFF74FF9AFE741099FDE498FC9017
:1016C00002601212B19002647404F080137F001261
:1016D0004F2A7F007E007D007C009002601212B1D4
:1016E000900264E0FFEFB40119900260121289A920
:1016F00007AA06AB05124FBEE4FCFDFE9002651280
:1017000012B1900264E0FFEF640270689002601210
:101710001289EF2401FFEE3400FEED3400FDEC34BD
:1017200000FCA907AA06AB05124FBEE4FCFDFE9023
:1017300002651212B1900265121289C004C005C080
:1017400006C007900260121289A907AA06AB05120B
:101750004FBEE4FCFDFE7808121276A804A905AA83
:1017600006AB07D007D006D005D00412123790027E
:10177000651212B1900264E0FFEF64046003021886
:1017800087900260121289EF2403FFEE3400FEED11
:101790003400FDEC3400FCA907AA06AB05124FBECD
:1017A000E4FCFDFE9002651212B1900265121289EE
:1017B000C004C005C006C007900260121289EF2461
:1017C00002FFEE3400FEED3400FDEC3400FCA9070E
:1017D000AA06AB05124FBEE4FCFDFE780812127695
:1017E000A804A905AA06AB07D007D006D005D004E7
:1017F0001212379002651212B1900265121289C05E
:1018000004C005C006C007900260121289EF2401CF
:10181000FFEE3400FEED3400FDEC3400FCA907AA15
:1018200006AB05124FBEE4FCFDFE7810121276A83E
:1018300004A905AA06AB07D007D006D005D004122C
:1018400012379002651212B1900265121289C0041B
:10185000C005C006C007900260121289A907AA0637
:10186000AB05124FBEE4FCFDFE7818121276A804F8
:10187000A905AA06AB07D007D006D005D0041212DE
:10188000379002651212B1900265121289229003FC
:1018900037E0FFEFD394005003021C6F900337E052
:1018A000FFEF14FF123F3E900288EEF0A3EFF0909E
:1018B0000288E0FEA3E0FFEF2404FFEE3400FE9078
:1018C0000288EEF0A3EFF0900288E0FEA3E0FF8F25
:1018D000828E83E493FF900283EFF0900288E0FE13
:1018E000A3E0FF8F828E83A31212DBAE02AF0190C2
:1018F000028AEEF0A3EFF0900285E4F0900283E01C
:10190000FF900285E0FEEEC39F4003021C6F900231
:101910008AE0FEA3E0FF8F828E83E493FF74302F72
:10192000F582E43403F583E0FF90028AE0FCA3E053
:10193000FD8D828C83E493FE74222EF582E43403C1
:10194000F583E0FEEE6F7003021C4E90028AE0FE0B
:10195000A3E0FF8F828E83E493FF74222FF582E44D
:101960003403F583E0FF90028AE0FCA3E0FD8D8262
:101970008C83740193FEEF6E6003021C4E90028A0A
:10198000E0FEA3E0FF8F828E83E493FF906004E08B
:10199000FEEF6E6003021C4E90028AE0FEA3E0FFA1
:1019A0008F828E83740293FFEF547FFF900284EF47
:1019B000F0900284E0FF7E00EF24FFFFEE34FFFE94
:1019C000EFC4F8540FC868FFEEC454F048FE90020C
:1019D00087EFF090028AE0FEA3E0FF8F828E83748F
:1019E0000393FFEF5403FF900286EFF090028AE02A
:1019F000FEA3E0FF8F828E83740293FFEF5480FF7B
:101A00007E00EF4E603C900284E0FFEF75F00BA487
:101A1000243DF582E43403F5837401F0900286E0FE
:101A2000FFEFB401047F0780027F0D900284E0FE87
:101A3000EE75F00BA42441F582E43403F583EFF056
:101A40008039900284E0FFEF75F00BA4243DF5820D
:101A5000E43403F583E4F0900286E0FFEFB4010480
:101A60007F0580027F09900284E0FEEE75F00BA4F2
:101A70002441F582E43403F583EFF0900287E0FF20
:101A80007E00EF240EFFEE3460FE8F828E837401A1
:101A9000F090028AE0FEA3E0FF8F828E83740493AD
:101AA000FE740593FF900284E0FDED75F00BA42415
:101AB00044F582E43403F583EEF0A3EFF090028A5C
:101AC000E0FEA3E0FF8F828E83740293FF90028476
:101AD000E0FEEE75F00BA42440F582E43403F583B8
:101AE000EFF090028AE0FEA3E0FF8F828E83740302
:101AF00093FF900284E0FEEE75F00BA4243CF58287
:101B0000E43403F583EFF0900284E0FFEF75F00B0F
:101B1000A4243FF582E43403F583E4F0900284E0EA
:101B2000FFEF75F00BA42444F582E43403F583E061
:101B3000FEA3E0FFEEFF7E00900287E0FEEEFD7C5C
:101B400000ED240CFDEC3460FC8D828C83EFF09072
:101B50000284E0FFEF75F00BA42444F582E4340323
:101B6000F583E0FEA3E0FFEF54FFFF900287E0FE65
:101B7000EEFD7C00ED240DFDEC3460FC8D828C8349
:101B8000EFF0900284E0FFEF75F00BA42442F582A1
:101B9000E43403F583E0FEA3E0FFEF54FFFF90027F
:101BA00087E0FEEEFD7C00ED2486FDEC3460FC8DCC
:101BB000828C83EFF0900284E0FFEF75F00BA42499
:101BC00042F582E43403F583E0FEA3E0FFEEFF7EFE
:101BD00000900287E0FEEEFD7C00ED2487FDEC34F2
:101BE00060FC8D828C83EFF0900284E0FFEF75F053
:101BF0000BA42442F582E43403F583E0FEA3E0FF66
:101C0000EF54FFFF900287E0FEEEFD7C00ED2484A0
:101C1000FDEC3460FC8D828C83EFF0900284E0FF59
:101C2000EF75F00BA42442F582E43403F583E0FE63
:101C3000A3E0FFEEFF7E00900287E0FEEEFD7C0059
:101C4000ED2485FDEC3460FC8D828C83EFF09002F6
:101C50008AE0FEA3E0FFEF2407FFEE3400FE9002CF
:101C60008AEEF0A3EFF0900285E004F00218FC2267
:101C7000900285E4F0906004E0FF900286EFF0901F
:101C80006000E0FFEF5480FF7E00EF64804E600351
:101C9000021D95906001E0FFEF1213071CFC011D6F
:101CA00019021D5B031CAC0600001EBA906003E025
:101CB000FFEFB4211D123246900323E0FEA3E0FFA4
:101CC000EF4E7003021EBA1242F0900285EFF0024E
:101CD0001EBA906003E0FFEF64226003021EBA1296
:101CE0003007900323E0FEA3E0FFEF4E7003021ED7
:101CF000BA1242F0900285EFF0021EBA12248890C8
:101D00000323E0FEA3E0FFEF4E7003021EBA12426F
:101D1000F0900285EFF0021EBA900286E0FFEFC35A
:101D200094014003021EBA906002E0FFEF600302DC
:101D30001EBA900323E4F0A37401F0900286E0FF42
:101D400074022FF9E43404FA7B019003251212D2B5
:101D50001242F0900285EFF0021EBA900286E0FF78
:101D6000EFC394014003021EBA900323E4F0A3746E
:101D700001F0900286E0FF74032FF9E43404FA7B4B
:101D8000019003251212D21242F0900285EFF00268
:101D90001EBA021EBA906000E0FFEF5480FF7E0082
:101DA000EF4E6003021EBA906001E0FFEF121307CE
:101DB0001DBD091DDA0A1E860B00001EBA122488FA
:101DC000900323E0FEA3E0FFEF4E7003021EBA1261
:101DD0004755900285EFF0021EBA900286E0FFEFB1
:101DE000C394014003021EBA906002E0FFEF60035B
:101DF000021EBA906003E0FF900286E0FE74022E9D
:101E0000F582E43404F583EFF0900286E0FF74017C
:101E10002FF582E43404F583E0FF900286E0FE743F
:101E2000022EF582E43404F583E0FEEEC39F5013E6
:101E3000900286E0FF74012FF582E43404F583E418
:101E4000F08039900286E0FF74012FF582E43404BB
:101E5000F583E0FFEFD394014022900286E0FF7407
:101E6000022FF582E43404F583E0FF900286E0FE61
:101E700074012EF582E43404F583EFF0124E5A908B
:101E80000285EFF08034900286E0FFEFC3940150AA
:101E900029906002E0FFEFD39401501E906002E0B1
:101EA000FF900286E0FE74032EF582E43404F5838D
:101EB000EFF0124E5A900285EFF0900285E0FF227B
:101EC00090025EEFF090025FECF0A3EDF090026103
:101ED0001212D2900266E4F090025EE0FFEFD3941B
:101EE0003F501190025EE0FFEFD394014006900254
:101EF000667401F090025EE0FFEFD3947F4006909D
:101F000002667401F090025EE0FFEFC3944040115E
:101F100090025EE0FFEFD3944140069002667401A8
:101F2000F090025EE0FFEFD3943F502190025FE01B
:101F3000FEA3E0FFE4FCFD7B007A0179007800C39A
:101F400012125250339002667401F0802B90025F9F
:101F5000E0FEA3E0FFD3EF9480EE940040069002F1
:101F6000667401F0900264E0FEA3E0FFEF64104E9F
:101F700060069002667401F07B007A007900C0036D
:101F8000C002C0019002611212C9D082D083D0E099
:101F90006B7008E965827003EA65837006900266DB
:101FA0007401F0900266E0FFEF60030220C0124B64
:101FB0006FEF60030220BA90025EE0FFC00790025C
:101FC0005FE0FCA3E0FD9002611212C9900264E0A0
:101FD000FEA3E0FF90026DEEF0A3EFF0D007122A0F
:101FE000E2900266EFF0900266E0FFEF64076003A4
:101FF0000220B5904722E0FFEF5402FF7E00EF4E33
:1020000070097F017E00124BCC80E8904722E0FFF0
:10201000EF5402FF7E00EF4E600D904722E0FFEF8D
:102020001313543FFF80027FFFEF7007900266E4B6
:10203000F0800690026674FFF0900266E0FFEF7099
:102040007490025EE0FF90025FE0FCA3E0FD90036D
:10205000FBE0FB9003FCE0FE90026BEEF0123EA072
:10206000900266EFF0900266E0FFEF640770469022
:102070004722E0FFEF5402FF7E00EF4E70097F0120
:102080007E00124BCC80E8904722E0FFEF5402FF25
:102090007E00EF4E600D904722E0FFEF1313543F98
:1020A000FF80027FFFEF7007900266E4F0800690E9
:1020B000026674FFF0124EFF80069002667404F010
:1020C000900266E0FF229002917401F0900292E487
:1020D000F0900292E0FFEFC3948040030222B4909C
:1020E0000292E0FF7E00EF2480FFEE3460FE8F82DC
:1020F0008E83740CF0900291E0FFEF75F00BA42436
:1021000041F582E43403F583E0FFEF604F900291E4
:10211000E0FFEF75F00BA42440F582E43403F5836F
:10212000E0FFEF5480FF7E00EF4E6018900292E0D7
:10213000FF7E00EF240EFFEE3460FE8F828E8374EC
:102140000CF0802E900292E0FF7E00EF240EFFEE56
:102150003460FE8F828E837408F08016900292E0C5
:10216000FF7E00EF240EFFEE3460FE8F828E8374BC
:1021700080F0900291E0FFEF75F00BA42444F5820B
:10218000E43403F583E0FEA3E0FFEEFF7E0090025F
:1021900092E0FEEEFD7C00ED240CFDEC3460FC8D45
:1021A000828C83EFF0900291E0FFEF75F00BA42496
:1021B00044F582E43403F583E0FEA3E0FFEF54FF2F
:1021C000FF900292E0FEEEFD7C00ED240DFDEC346C
:1021D00060FC8D828C83EFF0900291E0FFEF75F050
:1021E0000BA42442F582E43403F583E0FEA3E0FF70
:1021F000EF54FFFF900292E0FEEEFD7C00ED24869E
:10220000FDEC3460FC8D828C83EFF0900291E0FF56
:10221000EF75F00BA42442F582E43403F583E0FE6D
:10222000A3E0FFEEFF7E00900292E0FEEEFD7C0058
:10223000ED2487FDEC3460FC8D828C83EFF09002FE
:1022400091E0FFEF75F00BA42442F582E43403F52E
:1022500083E0FEA3E0FFEF54FFFF900292E0FEEE6A
:10226000FD7C00ED2484FDEC3460FC8D828C83EFDA
:10227000F0900291E0FFEF75F00BA42442F582E4A8
:102280003403F583E0FEA3E0FFEEFF7E00900292B0
:10229000E0FEEEFD7C00ED2485FDEC3460FC8D82DB
:1022A0008C83EFF0900291E004F0900292E0241011
:1022B000F00220D190600A74FFF02290025EEFF0ED
:1022C00090025F1212D290025EE0FFEFD3940050B2
:1022D0000302248790025EE0FFEFC39409400302EB
:1022E000248790025EE0FF7E00EF24FFFFEE34FFC4
:1022F000FEEFC4F8540FC868FFEEC454F048FE90D7
:102300000264EFF0900264E0FF7E00EF2488FFEEAD
:102310003460FE900265EEF0A3EFF090025EE0FF05
:10232000EF75F00BA42442F582E43403F583E0FE5C
:10233000A3E0FFC3E49FFF74029EFE900262E0FCF4
:10234000A3E0FDD3ED9FEC9E402890025EE0FFEFFE
:1023500075F00BA42442F582E43403F583E0FEA378
:10236000E0FFC3E49FFF74029EFE900262EEF0A3C2
:10237000EFF0900262E0FEA3E0FFEEFF7E0090022D
:102380005EE0FEEE75F00BA4243FF582E43403F525
:1023900083E0FEEF4EFF900264E0FEEEFD7C00ED78
:1023A000240CFDEC3460FC8D828C83EFF090026293
:1023B000E0FEA3E0FFEF54FFFF900264E0FEEEFDBD
:1023C0007C00ED240DFDEC3460FC8D828C83EFF0FD
:1023D0007B007A007900C003C002C00190025F1246
:1023E00012C9D082D083D0E06B7008E96582700397
:1023F000EA65836051900267E4F0A3E4F090026222
:10240000E0FEA3E0FF900267E0FCA3E0FDC3ED9FC8
:10241000EC9E503290025F1212C9900267E0FEA358
:10242000E0FFE92FF9EA3EFA121074FF900265E02E
:10243000FCA3E0FD8D828C83EFF0900267E475F0E1
:102440000112109F80B790025EE0FFEF75F00BA4C1
:10245000243DF582E43403F583E4F090025EE0FF6E
:10246000EF75F00BA42441F582E43403F583E0FF1B
:10247000900264E0FEEEFD7C00ED240EFDEC346085
:10248000FC8D828C83EFF022900323E4F0A3E4F030
:10249000900337E0FFEF14FF123F3E900287EEF00B
:1024A000A3EFF0906003E0FF90028DEFF0906004E6
:1024B000E0FF90028CEFF090028CE0FF7E00EF24B2
:1024C00002FFEE3400FEEF7802C333CE33CED8F9EC
:1024D000FF900287E0FCA3E0FDEF2DFFEE3CFE90B5
:1024E0000287EEF0A3EFF0900287E0FEA3E0FF8FFB
:1024F000828E83A31212DBAE02AF01900287EEF050
:10250000A3EFF090028CE0FFEFC39401400302269A
:102510004490028CE0FF74222FF582E43403F583AB
:10252000E0FF7E04EF8EF0A4FFAEF0900287E0FCA7
:10253000A3E0FDEF2DFFEE3CFE900287EEF0A3EF4F
:10254000F0900287E0FEA3E0FF8F828E83A3121239
:10255000DBAE02AF01900287EEF0A3EFF090028DA8
:10256000E0FFEFC39401500302264490028DE0FF88
:10257000EFD39403400302264490028DE0FF7E00D7
:10258000EF24FFFFEE34FFFEEF7802C333CE33CEED
:10259000D8F9FF900287E0FCA3E0FDEF2DFFEE3CB1
:1025A000FE900287EEF0A3EFF0906002E0FF900251
:1025B0008DEFF0900287E0FEA3E0FF8F828E83E430
:1025C00093FF90028DE0FEEFC39E4078900287E07B
:1025D000FEA3E0FF8F828E83A31212DB900289128A
:1025E00012D290028DE0FF7E08EF8EF0A4FFAEF0D5
:1025F0009002891212C9E92FF9EA3EFA9002891273
:1026000012D29002891212C9E92402F9EA3400FABE
:102610001212E79003251212D29002891212C912E7
:1026200010B5FFAEF0900323EEF0A3EFF090028917
:102630001212C9E92405F9EA3400FA1212E79003EC
:10264000281212D2228F45AD457F0312149EEF242B
:1026500001FFEE3400FEED3400FDEC3400FC7B00A5
:102660007A017900780012111AC004C005C006C0B2
:1026700007AD457F0412149EA804A905AA06AB075E
:10268000D007D006D005D0041210FF8F4D8E4C8D90
:102690004B8C4AC201754E00AD457F0312149EEF6C
:1026A0002401FFEE3400FEED3400FDEC3400FC7B31
:1026B000007A017900780012111A8F498E488D47EF
:1026C0008C46AF4DAE4CAD4BAC4AAB49AA48A9477E
:1026D000A846C31212525040AF49AE48AD47AC466F
:1026E0008F828E83E493FF8F4FE54F6008E54F6440
:1026F000FF6002D201E54F254EF54EAF49AE48AD21
:1027000047AC467B017A00790078001210FF8F49B0
:102710008E488D478C4680AAAD457F0312149EEFEC
:102720002401FFEE3400FEED3400FDEC3400FC7BB0
:10273000007A017900780012111A78031212638F5F
:10274000498E488D478C467FC07EFF7D007C00AB64
:102750004DAA4CA94BA84AC3121252700A7F007EA0
:10276000207D007C00800DAF4DAE4CAD4BAC4A7867
:10277000031212638F4D8E4C8D4B8C4AAF4DAE4C75
:10278000AD4BAC4AAB49AA48A947A846C31212525E
:10279000503FE5492400FFE5483400FEE547340892
:1027A000FDE5463400FCA907AA06AB05124FBEEFB3
:1027B000254EF54EAF49AE48AD47AC467B017A0099
:1027C000790078001210FF8F498E488D478C468023
:1027D000ABE54EF4FFEF04F54EAD457F0112149EBC
:1027E000A804A905AA06AB07AF4EE4FCFDFEC31280
:1027F000125270032001037F06227F00229002857F
:10280000E4F0906004E0FFEF547FFF900283EFF06C
:10281000900283E0FF7E00EF24FFFFEE34FFFEEF27
:10282000C4F8540FC868FFEEC454F048FE90028408
:10283000EFF0900283E0FFEFD39400500302296B86
:10284000900283E0FFEFC39409400302296B9002DA
:1028500083E0FFEF75F00BA4243EF582E43403F52A
:1028600083E0FFEF54FEFFEFF0900283E0FFEF758F
:10287000F00BA4243FF582E43403F583E4F09002E6
:1028800084E0FF7E00EF240CFFEE3460FE8F828E2A
:1028900083E0FFEF547FFFEFF0900283E0FFEF75DE
:1028A000F00BA4243DF582E43403F583E0FFEF54FC
:1028B000FDFFEFF0900283E0FFEF75F00BA42440E2
:1028C000F582E43403F583E0FFEF5480FF7E00EFF0
:1028D0004E6049900283E0FFEF75F00BA4243DF5B4
:1028E00082E43403F583E0FFEFB40118900284E042
:1028F000FF7E00EF240EFFEE3460FE8F828E837425
:102900000CF0805F900284E0FF7E00EF240EFFEE6B
:102910003460FE8F828E83740DF08047900283E0D6
:10292000FFEF75F00BA4243DF582E43403F583E05A
:10293000FFEFB40118900284E0FF7E00EF240EFF49
:10294000EE3460FE8F828E837408F08016900284CD
:10295000E0FF7E00EF240EFFEE3460FE8F828E8358
:102960007409F0124E5A900285EFF0900285E0FF54
:1029700022C0E0C0F0C083C082C085C084C086751C
:102980008600C093759300C0D075D000C000C00110
:10299000C002C003C004C005C006C007906028E0A4
:1029A000FF900276EFF0900276E0FFEF5410FF7E8A
:1029B00000EF4E7003022ABF9002777401F090027C
:1029C00076E0FFEF5480FF7E00EF4E60319002769C
:1029D000E0FFEF540FFF7E00EF64014E60079002AE
:1029E00077E4F0804612406D900338E0FFEF5480AA
:1029F000FF7E00EF4E6034900277E4F0802D90026D
:102A000076E0FFEF5440FF7E00EF4E6005124D2050
:102A10008019900276E0FFEF5420FF7E00EF4E60B9
:102A200005124BF98005900277E4F0900277E0FF01
:102A3000EF7003022ABF906028E0FF900276EFF06B
:102A4000900276E0FFEF5480FF7E00EF4E707090B2
:102A5000033BE0FF900333E0FEEE4FFF900276EF82
:102A6000F0900276E0FF906029EFF0906029E0FF9F
:102A7000900276E0FEEE6F7046900338E0FF900221
:102A800077EFF0906028E0FFEF5480FF900276EF40
:102A9000F0900276E0FFEF7018900338E0FF90604E
:102AA00028EFF0906028E0FFEF540FFF900277EFDF
:102AB000F0900338E0FF900277E0FEEEB507BAD061
:102AC00007D006D005D004D003D002D001D000D06A
:102AD000D0D093D086D084D085D082D083D0F0D08F
:102AE000E032900267EFF0900268ECF0A3EDF09016
:102AF000026A1212D290026F7407F0904722E0FF30
:102B0000EF5402FF7E00EF4E7003022C43904720EB
:102B100074B6F090472074D5F09047207402F0907E
:102B20004722E0FFEF5402FF7E00EF4E6003022CCD
:102B30003B900267E0FF904720EFF0900270E4F0D6
:102B4000A3E4F090026DE0FEA3E0FF900270E0FCD1
:102B5000A3E0FDC3ED9FEC9E502990026A1212C9BA
:102B6000900270E0FEA3E0FFE92FF9EA3EFA1210AE
:102B700074FF904720EFF0900270E475F00112109E
:102B80009F80C090026DE0FEA3E0FFEF6400700341
:102B9000EE64016003022C49900267E0FFEFD394DA
:102BA0003F4003022C49900267E0FF7E007C207DBD
:102BB00000121351EF2400FFEE3400FEED3408FD47
:102BC000EC3400FCC004C005C006C007900268E0F9
:102BD000FEA3E0FF7C007D20121351A804A905AAE2
:102BE00006AB07D007D006D005D0041210FF900224
:102BF000721212B1900270E4F0A3E4F0900270E05F
:102C0000FEA3E0FFC3EF9420EE9400503C900270CE
:102C1000E0FEA3E0FFE4FCFD9002721212A5121088
:102C2000FFA907AA06AB05124FBE904720EFF09010
:102C30000270E475F00112109F80C190026F740958
:102C4000F0800690026F7404F090026FE0FF22C0E3
:102C5000E0C0F0C083C082C085C084C08675860095
:102C6000C093759300C0D075D000C000C001C002F1
:102C7000C003C004C005C006C0079003F1E0FFEF29
:102C80001213072C93002CDE012D19022D50030086
:102C9000002D759003F51212C99003F0E0FF04F0C7
:102CA000E92FF9E43AFA121074FF9003F2EFF09072
:102CB00003F2E0FFEF5407FF9003F3EFF09003F20D
:102CC000E0FFEF70199003F0E4F09003F47402F069
:102CD0009003F3E4F09003F17403F0022D75900378
:102CE000F2E0FFEF30E7089003F47403F080069001
:102CF00003F47401F09003F2E0FFEF25E0FF90038E
:102D0000F2EFF09003F3E014F0124FE7EF54FEFF00
:102D1000124F659003F17402F09003F4E0FFEF703E
:102D2000279003F17403F09003F3E0FFEF70089035
:102D300003F47402F080059003F4E4F0124FE7EF1F
:102D40004401FF124F6580089003F4E014F08025E1
:102D50009003F4E0FFEF70179003F3E0FFEF7007CC
:102D60009003F1E4F0800E9003F17401F08006907E
:102D700003F4E014F0D007D006D005D004D003D07F
:102D800002D001D000D0D0D093D086D084D085D0CE
:102D900082D083D0F0D0E0327B007A4679E8124FBF
:102DA000BEEF4405FD7B007A4679E8124FCA7523D1
:102DB00000E523C39409503AAF23EF75F005A4242E
:102DC0001CF582E43452F583AF82AE838E218F22CC
:102DD000AE21AF228F828E831212DBAE21AF228F03
:102DE000828E83740393FC740493FD124E74052346
:102DF00080BF7E517F64124B9E7B017A5079031213
:102E00004FBEEF4402FD7B017A507903124FCA7B1B
:102E1000017A507913124FBEEF4402FD7B017A50C4
:102E20007913124FCA9043A0E0FFEF4440FF904354
:102E3000A0EFF09043C2E0FFEF4410FF9043C2EFD9
:102E4000F07C517D4A7B007A5179F07F0A7E001236
:102E50004CFA7C517D547B007A5179127F087E00B8
:102E6000124CFA7C517D5C7B007A5179227F087E7E
:102E700000124CFA9044F47401F0904322E0FFEF0A
:102E80004408FF904322EFF09046ECE0FFEFC3943C
:102E9000055006904689743AF090480074F1F0129B
:102EA000381390480074B1F0124A8C7B007A437951
:102EB000A0C003C002C0017B007A4379B090000635
:102EC0001212D2D001D002D0037F0E7E00124B3BF3
:102ED0009043B0E0FFEF54FDFFEFF02290025EEF71
:102EE000F090025F1212D290025EE0FFEFD39400E6
:102EF0005003022FF690025EE0FFEFC394094003F7
:102F0000022FF67B007A007900C003C002C0019056
:102F1000025F1212C9D082D083D0E06B7008E965DD
:102F2000827003EA65837003022FF690025EE0FF71
:102F30007E00EF24FFFFEE34FFFEEFC4F8540FC80D
:102F400068FFEEC454F048FE900264EFF090026413
:102F5000E0FF7E00EF2488FFEE3460FE900265EE15
:102F6000F0A3EFF090025EE0FF123BFB900269EEEF
:102F7000F0A3EFF0900269E0FEA3E0FF900262E0B0
:102F8000FCA3E0FDD3ED9FEC9E4010900269E0FEB3
:102F9000A3E0FF900262EEF0A3EFF0900267E4F08E
:102FA000A3E4F0900262E0FEA3E0FF900267E0FC81
:102FB000A3E0FDC3ED9FEC9E5032900265E0FEA3BE
:102FC000E0FF8F828E83E0FF90025F1212C99002B1
:102FD00067E0FCA3E0FDE92DF9EA3CFAEF12108D61
:102FE000900267E475F00112109F80B790025EE0D6
:102FF000FF1242008008900262E4F0A3E4F0900225
:1030000062E0FEA3E0FF22900337E0FFEF14FF121F
:103010003F3E900287EEF0A3EFF0906004E0FF9057
:10302000028CEFF090028CE0FF7E00EF2402FFEEB6
:103030003400FEEF7802C333CE33CED8F9FF9002CE
:1030400087E0FCA3E0FDEF2DFFEE3CFE900287EE53
:10305000F0A3EFF0900287E0FEA3E0FF8F828E8363
:10306000A31212DBAE02AF01900287EEF0A3EFF0E5
:1030700090028CE0FF74222FF582E43403F583E0A4
:10308000FF7E04EF8EF0A4FFAEF0900287E0FCA379
:10309000E0FDEF2DFFEE3CFE900287EEF0A3EFF097
:1030A000900287E0FEA3E0FF8F828E83A31212DBE3
:1030B000AE02AF01900287EEF0A3EFF0900287E03E
:1030C000FEA3E0FFEF240CFFEE3400FE900287EE3B
:1030D000F0A3EFF0900287E0FEA3E0FF8F828E83E3
:1030E000A31212DB9002891212D29002891212C925
:1030F000E92401F9EA3400FA121074FF7E00EF7F30
:1031000000FE9002891212C9121074FD7C00EE4C70
:10311000FEEF4DFF900323EEF0A3EFF09002891233
:1031200012C9E92402F9EA3400FA9003251212D2F6
:10313000229000011212B1900001121289EF2400B6
:10314000FFEE3400FEED34F0FDEC34FFFC900006A1
:103150001212B17B007A00790178009000061212F9
:10316000891211A590010AEFF0900006121289EF62
:1031700054FFFFEE54FFFEED5400FDEC5400FC7BC9
:10318000007A01790078001211A590010BEEF0A3EE
:10319000EFF0900001121289EF54FFFBEE5400FA99
:1031A000ED5400F9EC5400F890000112128912114C
:1031B0000C90010D1212B1900111E4F0A3E4F09013
:1031C0000111E0FEA3E0FFC3EE9401503B90010D1E
:1031D000121289900111E0FCA3E0FDEF2DFFEE3CFF
:1031E000FE8F828E83E493FF900111E0FCA3E0FD4B
:1031F000740A2DF58274003CF583EFF0900111E420
:1032000075F00112109F80B7900005E0FB9000015F
:10321000121289EF54FFFFEE5400FEED5400FDEC56
:103220005400FC740A2FF58274003EF583EBF09095
:10323000010AE0FF90010BE0FCA3E0FD7B017A00B6
:10324000790A1245CA22900337E0FFEF14FF123FBC
:103250003E900287EEF0A3EFF0906004E0FF900252
:103260008CEFF090028CE0FF7E00EF2402FFEE3442
:1032700000FEEF7802C333CE33CED8F9FF90028739
:10328000E0FCA3E0FDEF2DFFEE3CFE900287EEF0A8
:10329000A3EFF0900287E0FEA3E0FF8F828E83A36E
:1032A0001212DBAE02AF01900287EEF0A3EFF090B6
:1032B000028CE0FF74222FF582E43403F583E0FFF3
:1032C0007E04EF8EF0A4FFAEF0900287E0FCA3E056
:1032D000FDEF2DFFEE3CFE900287EEF0A3EFF090A5
:1032E0000287E0FEA3E0FF8F828E83A31212DBAE83
:1032F00002AF01900287EEF0A3EFF0900287E0FEAC
:10330000A3E0FFEF2410FFEE3400FE900287EEF002
:10331000A3EFF0900287E0FEA3E0FF8F828E83A3ED
:103320001212DB9002891212D29002891212C91273
:103330001074FF7E00900323EEF0A3EFF09002895B
:103340001212C99003251212D222124F3F9002602E
:10335000EFF09043A5E0FFEF4401FFEFF09043B59D
:10336000E0FFEF4401FFEFF090609D7401F090608A
:10337000097402F0906010E0FFEF547FFFEFF07FE0
:10338000007E00124BCC904394E0FFEF54F9FFEF26
:10339000F0906012E0FFEF54DFFFEFF0904394E015
:1033A000FFEF4401FFEFF07F017E00124BCC7F283E
:1033B0007E00124BCC9051F8E0FFEF547FFFEFF00E
:1033C0009051F8E0FFEF54BFFFEFF0904394E0FF1F
:1033D000EF4402FFEFF07F027E00124BCC9043944B
:1033E000E0FFEF4404FFEFF0906084E4F09060852C
:1033F000E4F0900260E0FF124EA57C497D187F1733
:1034000012417E7D077F171246F67C4A7DFF7F15AD
:1034100012417E7D077F151246F67C297D717F184B
:1034200012417E7D077F181246F67C447D317F0075
:1034300012417E7D077F001246F67C447D987F0115
:1034400012417E7D077F011246F622900285E4F04C
:10345000906004E0FFEF547FFF900283EFF0900252
:1034600083E0FF7E00EF24FFFFEE34FFFEEFC4F8A1
:10347000540FC868FFEEC454F048FE900284EFF089
:10348000900283E0FFEFD39400500302353C90029A
:1034900083E0FFEFC39409400302353C900283E0D0
:1034A000FFEF75F00BA4243EF582E43403F583E0CE
:1034B000FFEF4401FFEFF0900283E0FFEF75F00BA8
:1034C000A4243FF582E43403F583E4F0900283E022
:1034D000FFEF75F00BA4243DF582E43403F583E09F
:1034E000FFEF4402FFEFF0900283E0FFEF75F00B77
:1034F000A42440F582E43403F583E0FFEF5480FF19
:103500007E00EF4E6018900284E0FF7E00EF240EF4
:10351000FFEE3460FE8F828E83748DF080169002F1
:1035200084E0FF7E00EF240EFFEE3460FE8F828E7B
:10353000837489F0124E5A900285EFF0900285E074
:10354000FF228F458B468A478948AB46AA47A94840
:10355000740112108DAB46AA47A948E92401F9EA83
:103560003400FAE54512108DAF4AEF54FFFFAB4629
:10357000AA47A948E92402F9EA3400FAEF12108DAB
:10358000E549FF7E00AB46AA47A948E92403F9EACA
:103590003400FAEF12108DAB46AA47A948E54A2439
:1035A00004FDE5493400FC1239B08E4B8F4CAF4C12
:1035B000EF54FFFFAB46AA47A948E54A2404FDE5BE
:1035C000493400FCE92DF9EA3CFAEF12108DE54B85
:1035D000FF7E00AB46AA47A948E54A2405FDE54918
:1035E0003400FCE92DF9EA3CFAEF12108DAB46AA43
:1035F00047A948E54A2406FFE5493400FEE92FF9CA
:10360000EA3EFA741712108DAB46AA47A948C003C8
:10361000C002C001E54A2407FDE5493400FC7B00F7
:103620007A0079498B528A538954755596D001D0C6
:1036300002D00312427F227593007800758346758D
:1036400082E8E04401F0009046ECE0F99046FAE0B0
:10365000FA9003EBF0B903225420B40012B8001A18
:10366000EA901FFFF07401901FFEF09046F6F09074
:103670001FFEE06005901FFFE0FA90480074C0F064
:10368000758158124C2690000078007920E4F0A350
:10369000D8FCD9FAEA9003EBF002001175081F7507
:1036A00009FD122D980236E30249B6E493A3F8E42B
:1036B00093A34003F68001F208DFF48029E493A38A
:1036C000F85407240CC8C333C4540F4420C88340A3
:1036D00004F456800146F6DFE4800B010204081072
:1036E000204080904A4AE47E019360BCA3FF543F8F
:1036F00030E509541FFEE493A360010ECF54C025AA
:10370000E060A840B8E493A3FAE493A3F8E493A399
:10371000C8C582C8CAC583CAF0A3C8C582C8CAC5FD
:1037200083CADFE9DEE780BE8B458A4689478C483D
:103730008D49AF4D7E0AEF8EF0A4FFAEF08E4F8F15
:1037400050D3E5499440E54894004006754800751B
:103750004940900407E0FFEF6034124FF9EF701B0F
:10376000E550454F60157F017E007D007C001244CE
:10377000FFE55015507002154F80DF124FF9EF60D2
:103780001C124D67124FF3900407E4F0800F124DA6
:1037900067EF6009124FF9EF6003124FF3AF4D7EF0
:1037A0000AEF8EF0A4FFAEF08E4F8F507F01124EC5
:1037B00024EF6401601BE550454F60157F017E00DA
:1037C0007D007C001244FFE55015507002154F80BB
:1037D000DB7F01124E24EFB40126AB45AA46A94770
:1037E000900262E548F0A3E549F07F01122EDCABC0
:1037F0004AAA4BA94CEE8FF01210E0754E008010D3
:10380000AB4AAA4BA94CE475F0001210E0754E10BB
:10381000AF4E227B007A4079807DBF7C5D124FA342
:103820009040827419F09043007406F07B007A4255
:1038300079127D177C33124FA39042107405F090DB
:103840004210E0FF7FC87E327D007C0090000112B4
:1038500012B1900001121289D3EF9400EE9400404F
:1038600033904210E0FFEF5480FF7E00EF4E602463
:103870007FE07E017D007C00124B0090000112125F
:10388000897BFF7AFF79FF78FF1210FF9000011209
:1038900012B180BE9042007452F07B0C7A01790F15
:1038A000124FBE9046A1EFF07B007A4079047D0074
:1038B0007C00124FA39040047407F0904006E4F09F
:1038C0009040087448F0904004E4F0904009E4F01F
:1038D0009040017402F09043A2E0FFEF4401FF909A
:1038E00043A2EFF022900289E4F090032CE0FF7EE7
:1038F00000900339EE8FF012109F900323E0FEA397
:10390000E0FFD3EF9400EE94004053900289E0FF73
:10391000EFC3940850489003251212C9121074FF87
:10392000900289E0FEEEFD7C00ED2400FDEC3460A9
:10393000FC8D828C83EFF09003251212C9E92401DB
:10394000F9EA3400FA9003251212D2900289E004B9
:10395000F090032374FF75F0FF12109F809C90037A
:103960002CE0FFEF6408600B900289E0FFEFD39436
:1039700000401C900333E0FFEF6480FF900333EFBF
:10398000F0900338740FF09003347402F0800C90C0
:1039900003387402F09003347402F0900289E0FF5F
:1039A00090032CEFF0900289E0FF90033BEFF022B0
:1039B0008B4D8A4E894F8C508D517552FF7553FF38
:1039C000855057855158E551455070096353FF6341
:1039D00052FF023A73C3E5589551FFE5579550FEE3
:1039E000AB4DAA4EA94FE92FF9EA3EFA121074FF27
:1039F0007E008E548F55755600E556C39408504787
:103A00007E00E5555401FF7C00E5535401FDEC6E4A
:103A1000FEED6FFFEF4E6015E552C313FEE5531345
:103A2000FFEE6484F552EF6408F553800BE552C352
:103A300013F552E55313F553E554C313F554E55507
:103A400013F555055680B2E551155170021550E534
:103A500051455070806353FF6352FF855254855324
:103A600055E5537D00FCE554FF7E00EE4CF552EF2A
:103A70004DF553AE52AF53227522067F00122645F4
:103A8000EF70037522007F007E007D107C00C00473
:103A9000C005C006C0077F007E007D007C008F4C03
:103AA0008E4B8D4A8C499003FFE0FEA3E0FF8F828E
:103AB0008E831212958F508E4F8D4E8C4DD007D025
:103AC00006D005D004123FD98F219003FDE0FEA35C
:103AD000E0FF8F828E83E493FFC3E5219FF521E50C
:103AE00021F4FFEF04F5219003FDE0FEA3E0FF8F3A
:103AF000828E83E493FFE521B507139003FFE0FE78
:103B0000A3E0FF8F828E83121295EF4E70057F0027
:103B1000124F2A9046FAE0FFEF54C0FF7E00EF6498
:103B2000404E6004E522600A9046FAE4F07F0012FD
:103B3000001A7F0012001A124FD622900260EFF096
:103B4000900261EDF0900262E4F0900262E0FFEF1B
:103B5000C39401501A900262E0FF74032FF582E4CF
:103B60003404F5837401F0900262E004F080DB908D
:103B700044C27480F09044C37401F09044C0740156
:103B8000F09044C07402F0900334E4F0900261E0DD
:103B9000FFEF1213073B9F003BA70100003BAF90D4
:103BA00060097402F0800E9060097403F080069042
:103BB00060097403F0900260E0FF900335EFF0902D
:103BC0000337E4F090032BE4F090032FE4F090032C
:103BD00031E4F0900336E4F090032CE4F090602898
:103BE0007403F09060087480F07F017E007D007C9B
:103BF00000124B009060127404F02290026BEFF000
:103C000090026DE4F0A3E4F090026BE0FFEFD39438
:103C1000005003023CA790026BE0FFEFC394094001
:103C200003023CA790026BE0FF7E00EF24FFFFEE53
:103C300034FFFEEFC4F8540FC868FFEEC454F048D8
:103C4000FE90026CEFF090026CE0FF7E00EF240C1F
:103C5000FFEE3460FE8F828E83E0FFEF540FFF7E15
:103C60000090026DEEF0A3EFF090026CE0FF7E009A
:103C7000EF240DFFEE3460FE8F828E83E0FFEFFDB8
:103C80007C0090026DE0FEA3E0FFEF7F00FEEE4CB3
:103C9000FEEF4DFF90026DEEF0A3EFF090026D7419
:103CA000FF75F0FE12109F90026DE0FEA3E0FF2270
:103CB000900279E4F0906029E0FFEF540FFFEF24C9
:103CC000FEFF900278EFF0900278E0FF7E00900314
:103CD00039EE8FF012109F900323E0FEA3E0FFD394
:103CE000EF9400EE94004057900278E0FFEFD394F9
:103CF00000404C900279E0FF7E00EF2400FFEE349C
:103D000060FE8F828E83E0FF9003251212C9EF12AE
:103D1000108D9003251212C9E92401F9EA3400FA42
:103D20009003251212D2900279E004F0900278E01C
:103D300014F090032374FF75F0FF12109F80989089
:103D40000278E0FF90033BEFF0900333E0FFEF6475
:103D500080FF900333EFF0900338740BF022900251
:103D6000837401F0906004E0FF900284EFF0900310
:103D700037E0FFEF14FF123F3E900285EEF0A3EF15
:103D8000F0900285E0FEA3E0FF8F828E83A31212E3
:103D9000DBE92404F9EA3400FA121074FF90028778
:103DA000EFF0900287E0FF900284E0FEEEC39F50A8
:103DB0000B900284E0FFEFC394014007900283E47C
:103DC000F08038900284E0FF74222FF582E43403FF
:103DD000F583E0FF900284E0FE74302EF582E43437
:103DE00003F583EFF0906002E0FF900284E0FE7440
:103DF000222EF582E43403F583EFF0900283E0FF96
:103E000022900337E0FFEF14FF123F3E900291EE45
:103E1000F0A3EFF0900291E0FEA3E0FFEF4E606FA1
:103E2000900291E0FEA3E0FF8F828E83A31212DB4B
:103E3000E92404F9EA3400FA121074FF900295EFB5
:103E4000F0900295E0FF7E00EF2402FFEE3400FECA
:103E5000EF7802C333CE33CED8F9FF900291E0FC65
:103E6000A3E0FDEF2DFFEE3CFE900291EEF0A3EFFC
:103E7000F0900291E0FEA3E0FF8F828E83A31212E6
:103E8000DBAE02AF01900293EEF0A3EFF08008905A
:103E90000293E4F0A3E4F0900293E0FEA3E0FF229B
:103EA000900267EFF0900268ECF0A3EDF090026AE8
:103EB000EBF090026C7407F0904722E0FFEF5402A1
:103EC000FF7E00EF4E606B90472074B6F090472065
:103ED00074D8F09047207405F0904722E0FFEF542B
:103EE00002FF7E00EF4E7042900267E0FF90472095
:103EF000EFF0900268E0FEA3E0FFEEFF7E00904747
:103F000020EFF0900268E0FEA3E0FFEF54FFFF9087
:103F10004720EFF090026AE0FF904720EFF0900218
:103F20006BE0FF904720EFF0800E90026C7409F078
:103F3000800690026C7404F090026CE0FF22900204
:103F400096EFF0900335E0FFEF25E025E02447F5FC
:103F500082E43451F5831212DBAE02AF0190029776
:103F6000EEF0A3EFF0900297E0FEA3E0FFEF240451
:103F7000FFEE3400FE900297EEF0A3EFF090029770
:103F8000E0FEA3E0FF8F828E83E493FF900296E031
:103F9000FEEEC39F400A900297E4F0A3E4F0803065
:103FA000900297E0FEA3E0FF8F828E83C083C082E1
:103FB000900296E0FFD082D08375F004EF1212BD1C
:103FC000A31212DBAE02AF01900297EEF0A3EFF066
:103FD000900297E0FEA3E0FF228F488E478D468C2B
:103FE00045755100AE47AF48EF64007003EE648042
:103FF000601B7F007E007D107C00AB48AA47A9466D
:10400000A845C312125260057F00124F2AAE4FAF6F
:1040100050D3EF9400EE94004050AF50AE4FAD4EF1
:10402000AC4D7BFF7AFF79FF78FF1210FF8F508E27
:104030004F8D4E8C4DE548254CFFE547354BFEE551
:1040400046354AFDE5453549FCEF2550FFEE354F35
:10405000FEED354EFDEC354DFCA907AA06AB051269
:104060001074FFEF2551F55180A3AF5122906028C5
:10407000E0FF900278EFF0900278E0FF906028EF88
:10408000F0906028E0FF900278EFF0900278E0FF77
:10409000EF5480FF7E00EF4E600B900278E0FF90BF
:1040A0000338EFF0227F02124694906000E0FFEFA9
:1040B0005460FFEF12130740C40040CE2040D840A8
:1040C000000040E21206FA900278EFF080191240E8
:1040D000F6900278EFF0800F124C7E900278EFF0AD
:1040E0008005900278E4F0900278E0FFEF7006908F
:1040F00003387403F022900283E4F0900284E4F029
:10410000906000E0FFEF5403FFEF12130741170127
:1041100041230200004141906004E0FF900284EFDF
:10412000F0801E906004E0FFEF547FFFEF75F00B0E
:10413000A42446F582E43403F583E0FF900284EF83
:10414000F0900284E0FF90032DE0FCA3E0FD8D825F
:104150008C83E5822FF582E43583F583E493FFEFCA
:104160001213074178014178024170030000417841
:10417000121C70900283EFF0900283E0FF22900205
:1041800061EFF0900262ECF0A3EDF0900261E0FFCD
:10419000EFD3941F5003D38001C340057F00124F1B
:1041A0002A900261E0FFEF541FFF7E00EF25E0FF41
:1041B000EE33FEEF2400FFEE3444FEAA06A9077B8F
:1041C00001124F96900264EEF0A3EFF0900261E0CE
:1041D000FF7E02EF8EF0A4FFAEF0EF2400FFEE347E
:1041E00044FEAA06A9077B01900262E0FEA3E0FF5D
:1041F000AD07AC06124FA5900264E0FEA3E0FF22DB
:1042000090026BEFF090026BE0FFEFD39400406EF2
:1042100090026BE0FFEFC39409506390026BE0FFE4
:104220007E00EF24FFFFEE34FFFEEFC4F8540FC80A
:1042300068FFEEC454F048FE90026CEFF090026B01
:10424000E0FFEF75F00BA4243DF582E43403F58321
:10425000E4F090026BE0FFEF75F00BA42441F582CF
:10426000E43403F583E0FF90026CE0FEEEFD7C0099
:10427000ED240EFDEC3460FC8D828C83EFF0228BFC
:104280004D8A4E894F8C508D51AF557E0AEF8EF07E
:10429000A4FFAEF08E578F58AB4DAA4EA94F900297
:1042A00062E4F0A37440F07F021222BB7F02124E40
:1042B00024EF701BE558455760157F017E007D0097
:1042C0007C001244FFE55815587002155780DD7FB9
:1042D00002124E24EF70057556108011AB52AA538E
:1042E000A954E5508551F01210E0755600AF5622E2
:1042F000900323E0FEA3E0FFEF4E7005124DC9804E
:10430000589003347402F0900333E4F0124969903A
:104310006007E0FF7E00EF7F00FE906006E0FD7C1E
:1043200000EE4CFEEF4DFF900287EEF0A3EFF09011
:104330000287E0FEA3E0FF900323E0FCA3E0FDD3AF
:10434000ED9FEC9E4010900287E0FEA3E0FF9003FB
:1043500023EEF0A3EFF01238E57F01228F21E52153
:10436000B402079046FAE4F08059AF21122645EFD7
:10437000704C752200E522C39401503AAF227E00B2
:104380007C017D00121351A804A905AA06AB07C33E
:1043900074D09BFF74FF9AFE741099FDE498FCE5BD
:1043A00022B521047B0180027B00900005EBF01216
:1043B0003131052280BF9046FA7480F08005904626
:1043C000FAE4F0124FB222124CD3124B6FEF705539
:1043D000124AC290025FEFF090025FE0FFEF6407C5
:1043E000703E904722E0FFEF5402FF7E00EF4E70D8
:1043F000097F017E00124BCC80E8904722E0FFEF5E
:104400005402FF7E00EF4E600D904722E0FFEF1355
:1044100013543FFF80027FFFEF700590025FE4F0CE
:10442000124EFF800690025F7404F090025FE0FF7E
:1044300022C0E0C083C082C085C084C0867586006B
:10444000C093759300C0D075D000C006C0079060BF
:104450000EE0FF900347E0FFEF5403FF7E00EF64A0
:10446000014E600E90034AE0FFEF6480FF90034A24
:10447000EFF09003487401F090600BE0FFEF54FE02
:10448000FFEFF0D007D006D0D0D093D086D084D024
:1044900085D082D083D0E032C0E0C083C082C085A6
:1044A000C084C086758600C093759300C0D075D057
:1044B00000C006C00790601EE0FF900352E0FFEFCF
:1044C0005403FF7E00EF64014E600E900355E0FF41
:1044D000EF6480FF900355EFF09003537401F09068
:1044E000600BE0FFEF54FDFFEFF0D007D006D0D017
:1044F000D093D086D084D085D082D083D0E0329043
:10450000FFFC12132D1212B1850883850982121245
:1045100089D3EF9400EE9480402F9003EC1212891F
:10452000124B00850883850982C083C082121289DC
:10453000EF2400FFEE3480FEED34FFFDEC34FFFC91
:10454000D082D0831212B180BF9003E2121289850B
:1045500008838509821212A512111A124B009000CD
:104560000412132D22124CD390025F74FFF0124BF1
:104570006FEF704A7F01124811EF6407703B7B01B7
:104580007A0379FB7D0212462FEFB4021D90025F81
:10459000E4F0904722E0FFEF5402FF7E00EF4E7000
:1045A000187F017E00124BCC80E8904722E0FFEF9D
:1045B0005402FF7E00EF4E60C5124EFF800690024F
:1045C0005F7404F090025FE0FF22900113EFF0901F
:1045D0000114ECF0A3EDF09001161212D290011329
:1045E000E0FFEFD3943F40067E007F1080047E0101
:1045F0007F00900119EEF0A3EFF0900113E0FFC0EF
:1046000007900114E0FCA3E0FD9001161212C9907E
:104610000119E0FEA3E0FF900264EEF0A3EFF0D0FA
:1046200007121EC090011BEFF090011BE0FF2290CB
:1046300002601212D2900263EDF0900264E4F090F6
:104640000263E0FF900264E0FEEEC39F504090479B
:1046500022E0FFEF5401FF7E00EF4E6003D38001A4
:10466000C340097F017E00124BCC80E2904720E0DE
:10467000FF9002601212C9900264E0FEE92EF9E494
:104680003AFAEF12108D900264E004F080B19002CB
:1046900064E0FF22900279EFF07B007A007900C09D
:1046A00003C002C0019003281212C9D082D083D067
:1046B000E06B7008E965827003EA658360379002F9
:1046C00079E0FF9003281212C9EF12108D90033980
:1046D000E0FEA3E0FF9003281212C9E92401F9EAE1
:1046E0003400FAEE8FF01210E07B007A007900902F
:1046F00003281212D222900261EFF0900262EDF0D4
:10470000900262E0FFEFD394075003D38001C340CF
:10471000057F00124F2A900261E0FFEFD3941F50F3
:1047200003D38001C340057F00124F2A900262E04C
:10473000FFEF5407FF7E00EF75F020A4FFAEF0906E
:104740000261E0FEEE541FFE74802EF582E43444D4
:10475000F583EFF0229003347404F09003337480F7
:10476000F0124969906007E0FF7E00EF7F00FE9045
:104770006006E0FD7C00EE4CFEEF4DFF900287EE00
:10478000F0A3EFF0900287E0FEA3E0FF900323E0A8
:10479000FCA3E0FDD3ED9FEC9E4010900287E0FE6D
:1047A000A3E0FF900323EEF0A3EFF0900338740B27
:1047B000F07F0122904F00E0FFEF5401FFEFF090F7
:1047C0004F02E0FFEF54FCFFEFF0904F01E0FFEFEE
:1047D0004401FFEFF0904F0BE0FFEF54CFFFEFF0FD
:1047E000904F0BE0FFEF4430FFEFF0904F0BE0FFF6
:1047F000EF54F0FFEFF0904F0BE0FFEF440FFFEFAF
:10480000F07FF0124E8D7FF0124A027F00124F753A
:1048100022900260EFF09002617407F0904722E06E
:10482000FFEF5402FF7E00EF4E603590472074B6D4
:10483000F090472074E1F0904720740EF0904722EA
:10484000E0FFEF5402FF7E00EF4E700C900260E03C
:10485000FF904720EFF0800E9002617409F080060F
:104860009002617404F0900261E0FF22900299E4EA
:10487000F0900299E0FFEFC39401501A900299E082
:10488000FF74032FF582E43404F5837401F0900281
:1048900099E004F080DB900334E4F0900337E4F017
:1048A00090032BE4F090032FE4F0900331E4F090B8
:1048B0000336E4F090032CE4F09060287403F09049
:1048C00060087480F022124F3F90025EEFF0904338
:1048D000A0E0FFEF4408FFEFF09043B0E0FFEF44AB
:1048E00008FFEFF090470174C8F09043ACE0FFEF91
:1048F0004410FFEFF09043BCE0FFEF4410FFEFF0F7
:10490000904700E0FFEF5420FF7E00EF4E60F190F3
:10491000025EE0FF124EA522C0E0C0F0C083C0825C
:10492000C085C084C086758600C093759300C0D0D2
:1049300075D000C000C001C002C003C004C005C0E3
:1049400006C00712486CD007D006D005D004D003AB
:10495000D002D001D000D0D0D093D086D084D085E2
:10496000D082D083D0F0D0E032900339E4F0A3E4D9
:10497000F07B007A007900C003C002C001900328D8
:104980001212C9D082D083D0E06B7008E9658270C2
:1049900003EA6583601F9003281212C9E412108D88
:1049A0009003281212C9E92401F9EA3400FAE475E7
:1049B000F0001210E0227BFF7A5279569003F51234
:1049C00012D2124FEDEF30E021124ED3EF600E7B8A
:1049D000FF7A52795B9003F51212D2800D7F00129C
:1049E0002645EF70057F0012435C7E2C7F4F124DF1
:1049F000AA124F15D2AF9044F474FDF0123A7880A9
:104A0000FE22900001EFF09043A3E0FFEF5401FF7E
:104A10007E00EF4E7003D38001C340057F00124F2C
:104A20002A9043A3E0FFEF4401FFEFF07B027A4FAF
:104A30007906900001E0FFEFFD7C00124FA5904346
:104A4000A3E0FFEF54FEFFEFF0224103F00041032B
:104A5000F1004203FD52494203FF524A410406005D
:104A60004403E7016E36004403E200005DC04103E9
:104A7000E6184403EC2EE00000410407004303F86D
:104A80000000004104080041040900007B0C7A0189
:104A900079CF124FBE900001EFF0900001E0FFEFE0
:104AA0005407FF90586EEFF0900001E0FFEFC45400
:104AB0000FFFEF540FFF90586FEFF090587674444B
:104AC000F0229002607407F0904722E0FFEF54025A
:104AD000FF7E00EF4E601490472074B6F0904720A0
:104AE00074E0F0904720740DF0800690026074042A
:104AF000F0900260E0FF229044C07404F022323251
:104B0000EC4D4E700D78FCEF24E950032840FD2257
:104B100000007BF178DA0000EF28FF78FFEE38FE26
:104B2000ED38FDEC38FC50E7EF2BFFEE38FEED38AA
:104B3000FDEC38FC40F22205020304758600EF4EBE
:104B40006027EF60010E759300900006E0F595A3D5
:104B5000E0F585A3E0F5848B938A838982E0A30541
:104B600086F0A31586DFF6DEF4E4F593F595229042
:104B700002677404F0124F3F900268EFF09004094E
:104B8000E0FFEF700B9004097401F0900267E4F00D
:104B9000900268E0FF124EA5900267E0FF22ACEAA7
:104BA000ADA08E838F82E493F9601CA3E493F5EAB1
:104BB000A3E493F5A0A3E49360F1FAA3E493F8A32C
:104BC000E493F2DAF6D9E48DA08CEA22EEFA9003AF
:104BD000E6E0F88FF0A4FFAEF0E88AF0A42EFEE540
:104BE000F03400FDEF24C9FF78FFEE38FEED38FD0C
:104BF000E438FC5003024B0022900334E0FFEF1234
:104C000013074C25004C12024C16044C1A060000E7
:104C10004C25124D8922123CB0227F0312469490FB
:104C200003387403F0229046FAE0FFEF54C0FF7E91
:104C300000EF64804E701A9046FAE4F07D007F0227
:104C400012149EEF4E600A7D007F0212149E124FD6
:104C50008522900331E0FFEF6013900331E0FFEF16
:104C60004480FF906008EFF0900331E4F09003344B
:104C7000E4F07F011246949003387403F02290020E
:104C800079E4F0906000E0FFEF5480FF7E00EF6475
:104C9000804E7010906001E0FFEF1213074CA401EA
:104CA00000004CA4900279E0FF2290025EEFF090A9
:104CB000025FEDF0900408E0FFEF700912334A90B4
:104CC00004087401F090025EE0FF90025FE0FD12C4
:104CD0003B3B22124F3F900260EFF09043A0E0FF79
:104CE000EF4408FFEFF09043B0E0FFEF4408FFEF20
:104CF000F0900260E0FF124EA522758600EF4E6034
:104D00001BEF60010E8C838D828B958A858984E4EC
:104D100093A30586F0A31586DFF5DEF3E4F595226F
:104D2000900334E0FFEF1213074D44004D39024D5C
:104D30003D044D410600004D44124FFF22124F54D6
:104D400022124C52229043A3E0FFEF4401FFEFF008
:104D50009043B3E0FFEF4401FFEFF0904F00E0FF1E
:104D6000EF4401FFEFF02290025EE4F090032FE0A9
:104D7000FFEF600F90032FE0FF90025EEFF09003D3
:104D80002FE4F090025EE0FF2290032CE0FF7E0013
:104D9000900339EE8FF012109F900334E4F07F01FE
:104DA0001246949003387403F022900001EEF0A3B1
:104DB000EFF0124FE0900001E0FEA3E0FF124DE89B
:104DC0007F07124EBD124AF7229003347402F0900E
:104DD00003337480F0900338740FF090032CE4F0E8
:104DE00090033BE4F07F0122900003EEF0A3EFF08C
:104DF0007B027A447904900003E0FEA3E0FFAD0754
:104E0000AC06124FA5221243C790025EEFF090024B
:104E10005EE0FFEF700812456590025EEFF09002D1
:104E20005EE0FF2290025EEFF090025EE0FFEF7521
:104E3000F00BA4243DF582E43403F583E0FF2290D7
:104E40000335E0FFEF25E025E02447F582E4345107
:104E5000F5831212DBAE02AF01229003347406F028
:104E60009003387406F09003337480F090033BE4B1
:104E7000F07F0122EC4D6011ED60010C8B938A8371
:104E80008982E4F0A3DDFCDCFA7593002290000136
:104E9000EFF07B027A4F7904900001E0FFEFFD7C98
:104EA00000124FA522EF54016004D2AF8002C2AFBE
:104EB000EF5402FF9044F4E054FD4FF022900003C1
:104EC000EFF0900003E0FFEFC43354E0FF90448222
:104ED000EFF022904210E0FFEF5480FF7E00EF4E93
:104EE00060047F0180027F0022D2AF9044F474FD01
:104EF000F07D027F00124CAA9004077401F0221288
:104F00004F3F900267EFF0900409E4F0900267E0F1
:104F1000FF124EA522900406E0FFEF70091247B47D
:104F20009004067401F0124D452290FFFF12132DDC
:104F3000EFF09046EA7401F090000112132D2290D8
:104F400044F4E0F84402F0E85402FF10AF01227488
:104F5000014FFF22900334E4F07F01124694900346
:104F6000387403F022900000EFF0900000E0FF9012
:104F70006479EFF022900001EFF0900001E0FF90E3
:104F80004F03EFF0229003EBE0FA8E838F827400E0
:104F9000758101738B938A838982E0FFA3E0FE759C
:104FA0009300228B938A838982EDF0A3ECF07593B2
:104FB00000229046F6E0FFEF4401FFEFF0228B93D2
:104FC0008A838982E0759300FF228B938A8389828A
:104FD000EDF0759300229046FA7480F0124FB222E1
:104FE0009044C87404F022906479E0FF22906469D0
:104FF000E0FF227F0112420022900337E0FF2212DD
:1050000038E5221201000200000008B4041DB701B7
:10501000300203800109022900010100C0020904D5
:1050200000000203000003092111010001222400F5
:105030000705010340000107058203400001040346
:1050400009040C03410045003900520042002C03C2
:105050004300790070007200650073007300200047
:10506000530065006D00690063006F006E0064000E
:105070007500630074006F0072002203500053003B
:105080006F0043003300200042006F006F00740087
:105090006C006F006100640065007200000A03305C
:1050A00000300030003100240005010900A1000992
:1050B00000A1000900150025FF750895409102091F
:1050C00000150025FF750895408102C0C00000242E
:1050D0000005010900A1000900A100090015002533
:1050E000FF7508954091020900150025FF75089588
:1050F000408102C0C00000004101029A0102DE00AE
:10510000410102E10102DB00FF50F700FF50FF0008
:1051100000000001FF50CF01FF502701FF510700A1
:10512000000103004003000082030040030301FF6D
:10513000501502FF511F01FF511B00FF512D01FFB0
:10514000500301FF512E01FF513E000000000000FE
:105150000000C0000024000000000000000060000B
:1051600060000000150045017E02004F010A1B008F
:1051700052030C2011607C40006401790101070199
:10518000EA08010804BE01D804DB04DF01010907B5
:105190001A8058806A408240D608E004EA08011765
:1051A00001EE030119039C80AA40EE02011B01B02D
:1051B00080014004308032043640CC7001410396B7
:1051C00008A480A64001420512809608A480A6404B
:1051D000C4100143066320A640AC80AE84D840EAE8
:1051E000100145026380D802014601A7400147072C
:1051F0000B800F4083409780A740AF40C20C01480E
:1052000003AB10AE40EEC0014C030F40AF40C204F0
:10521000014D02B340EA04015101003A004F000081
:105220000C005100001000513000400051C000102F
:10523000010000100001140008000140000A0001F4
:105240004C000200015000002000FFFFFFFF69300A
:10525000091E031E010184E3E3810094814244009E
:00000001FF
